{
  "_format": "hh-sol-artifact-1",
  "contractName": "TradeGuide",
  "sourceName": "contracts/tradeGuide.sol",
  "abi": [
    {
      "inputs": [
        {
          "internalType": "contract ISwapRouter",
          "name": "_swapRouter",
          "type": "address"
        },
        {
          "internalType": "contract LinkTokenInterface",
          "name": "_link",
          "type": "address"
        },
        {
          "internalType": "address",
          "name": "_registrar",
          "type": "address"
        },
        {
          "internalType": "contract IPriceOracle",
          "name": "_oracleAddress",
          "type": "address"
        },
        {
          "internalType": "contract AutomationRegistryInterface",
          "name": "_registry",
          "type": "address"
        },
        {
          "internalType": "contract IEPNSCommInterface",
          "name": "epnsComms",
          "type": "address"
        },
        {
          "internalType": "address",
          "name": "_channel",
          "type": "address"
        }
      ],
      "stateMutability": "nonpayable",
      "type": "constructor"
    },
    {
      "inputs": [],
      "name": "InsufficientFunds",
      "type": "error"
    },
    {
      "inputs": [],
      "name": "InvalidTPOrSL",
      "type": "error"
    },
    {
      "anonymous": false,
      "inputs": [
        {
          "indexed": false,
          "internalType": "address",
          "name": "to",
          "type": "address"
        },
        {
          "indexed": false,
          "internalType": "uint256",
          "name": "amount",
          "type": "uint256"
        }
      ],
      "name": "Subscribed",
      "type": "event"
    },
    {
      "anonymous": false,
      "inputs": [
        {
          "indexed": false,
          "internalType": "address",
          "name": "_tokenIn",
          "type": "address"
        },
        {
          "indexed": false,
          "internalType": "uint256",
          "name": "_price",
          "type": "uint256"
        }
      ],
      "name": "Swapped",
      "type": "event"
    },
    {
      "anonymous": false,
      "inputs": [
        {
          "indexed": true,
          "internalType": "uint256",
          "name": "upkeedId",
          "type": "uint256"
        }
      ],
      "name": "UpkeepID",
      "type": "event"
    },
    {
      "inputs": [],
      "name": "USDC",
      "outputs": [
        {
          "internalType": "address",
          "name": "",
          "type": "address"
        }
      ],
      "stateMutability": "view",
      "type": "function"
    },
    {
      "inputs": [],
      "name": "_epnsComms",
      "outputs": [
        {
          "internalType": "contract IEPNSCommInterface",
          "name": "",
          "type": "address"
        }
      ],
      "stateMutability": "view",
      "type": "function"
    },
    {
      "inputs": [
        {
          "internalType": "string",
          "name": "link",
          "type": "string"
        }
      ],
      "name": "addAPost",
      "outputs": [],
      "stateMutability": "nonpayable",
      "type": "function"
    },
    {
      "inputs": [
        {
          "internalType": "address",
          "name": "_delegate",
          "type": "address"
        }
      ],
      "name": "addAdelegate",
      "outputs": [],
      "stateMutability": "nonpayable",
      "type": "function"
    },
    {
      "inputs": [
        {
          "components": [
            {
              "internalType": "address",
              "name": "trader",
              "type": "address"
            },
            {
              "internalType": "address",
              "name": "tokenBought",
              "type": "address"
            },
            {
              "internalType": "uint256",
              "name": "timeStamp",
              "type": "uint256"
            },
            {
              "internalType": "int256",
              "name": "buyPrice",
              "type": "int256"
            },
            {
              "internalType": "enum TradeGuideStorage.TradeState",
              "name": "_tradeState",
              "type": "uint8"
            },
            {
              "internalType": "uint256",
              "name": "upkeepID",
              "type": "uint256"
            },
            {
              "internalType": "int256",
              "name": "sl",
              "type": "int256"
            },
            {
              "internalType": "int256",
              "name": "tp",
              "type": "int256"
            }
          ],
          "internalType": "struct TradeGuideStorage.TradeLog",
          "name": "_tradeLog",
          "type": "tuple"
        },
        {
          "internalType": "uint96",
          "name": "amount",
          "type": "uint96"
        }
      ],
      "name": "addFundsByID",
      "outputs": [],
      "stateMutability": "nonpayable",
      "type": "function"
    },
    {
      "inputs": [
        {
          "internalType": "address",
          "name": "_address",
          "type": "address"
        }
      ],
      "name": "addressToString",
      "outputs": [
        {
          "internalType": "string",
          "name": "",
          "type": "string"
        }
      ],
      "stateMutability": "pure",
      "type": "function"
    },
    {
      "inputs": [
        {
          "components": [
            {
              "internalType": "address",
              "name": "trader",
              "type": "address"
            },
            {
              "internalType": "address",
              "name": "tokenBought",
              "type": "address"
            },
            {
              "internalType": "uint256",
              "name": "timeStamp",
              "type": "uint256"
            },
            {
              "internalType": "int256",
              "name": "buyPrice",
              "type": "int256"
            },
            {
              "internalType": "enum TradeGuideStorage.TradeState",
              "name": "_tradeState",
              "type": "uint8"
            },
            {
              "internalType": "uint256",
              "name": "upkeepID",
              "type": "uint256"
            },
            {
              "internalType": "int256",
              "name": "sl",
              "type": "int256"
            },
            {
              "internalType": "int256",
              "name": "tp",
              "type": "int256"
            }
          ],
          "internalType": "struct TradeGuideStorage.TradeLog",
          "name": "_tradeLog",
          "type": "tuple"
        }
      ],
      "name": "cancelUpkeepById",
      "outputs": [],
      "stateMutability": "nonpayable",
      "type": "function"
    },
    {
      "inputs": [],
      "name": "channel",
      "outputs": [
        {
          "internalType": "address",
          "name": "",
          "type": "address"
        }
      ],
      "stateMutability": "view",
      "type": "function"
    },
    {
      "inputs": [
        {
          "internalType": "bytes",
          "name": "checkData",
          "type": "bytes"
        }
      ],
      "name": "checkUpkeep",
      "outputs": [
        {
          "internalType": "bool",
          "name": "upkeepNeeded",
          "type": "bool"
        },
        {
          "internalType": "bytes",
          "name": "performData",
          "type": "bytes"
        }
      ],
      "stateMutability": "view",
      "type": "function"
    },
    {
      "inputs": [
        {
          "internalType": "address",
          "name": "user",
          "type": "address"
        }
      ],
      "name": "getNoSubscribers",
      "outputs": [
        {
          "internalType": "uint256",
          "name": "",
          "type": "uint256"
        }
      ],
      "stateMutability": "view",
      "type": "function"
    },
    {
      "inputs": [
        {
          "internalType": "address",
          "name": "user",
          "type": "address"
        }
      ],
      "name": "getNoTrades",
      "outputs": [
        {
          "internalType": "uint256",
          "name": "",
          "type": "uint256"
        }
      ],
      "stateMutability": "view",
      "type": "function"
    },
    {
      "inputs": [
        {
          "internalType": "address",
          "name": "user",
          "type": "address"
        }
      ],
      "name": "getPosts",
      "outputs": [
        {
          "internalType": "string[]",
          "name": "",
          "type": "string[]"
        }
      ],
      "stateMutability": "view",
      "type": "function"
    },
    {
      "inputs": [
        {
          "internalType": "address",
          "name": "user",
          "type": "address"
        }
      ],
      "name": "getProfile",
      "outputs": [
        {
          "internalType": "string",
          "name": "",
          "type": "string"
        }
      ],
      "stateMutability": "view",
      "type": "function"
    },
    {
      "inputs": [
        {
          "internalType": "address",
          "name": "user",
          "type": "address"
        }
      ],
      "name": "getSubcribers",
      "outputs": [
        {
          "internalType": "address[]",
          "name": "",
          "type": "address[]"
        }
      ],
      "stateMutability": "view",
      "type": "function"
    },
    {
      "inputs": [
        {
          "internalType": "address",
          "name": "user",
          "type": "address"
        }
      ],
      "name": "getSubscribersFee",
      "outputs": [
        {
          "internalType": "uint256",
          "name": "",
          "type": "uint256"
        }
      ],
      "stateMutability": "view",
      "type": "function"
    },
    {
      "inputs": [],
      "name": "getTotalTrades",
      "outputs": [
        {
          "internalType": "uint256",
          "name": "",
          "type": "uint256"
        }
      ],
      "stateMutability": "view",
      "type": "function"
    },
    {
      "inputs": [],
      "name": "getTrades",
      "outputs": [
        {
          "components": [
            {
              "internalType": "address",
              "name": "trader",
              "type": "address"
            },
            {
              "internalType": "address",
              "name": "tokenBought",
              "type": "address"
            },
            {
              "internalType": "uint256",
              "name": "timeStamp",
              "type": "uint256"
            },
            {
              "internalType": "int256",
              "name": "buyPrice",
              "type": "int256"
            },
            {
              "internalType": "enum TradeGuideStorage.TradeState",
              "name": "_tradeState",
              "type": "uint8"
            },
            {
              "internalType": "uint256",
              "name": "upkeepID",
              "type": "uint256"
            },
            {
              "internalType": "int256",
              "name": "sl",
              "type": "int256"
            },
            {
              "internalType": "int256",
              "name": "tp",
              "type": "int256"
            }
          ],
          "internalType": "struct TradeGuideStorage.TradeLog[]",
          "name": "",
          "type": "tuple[]"
        }
      ],
      "stateMutability": "view",
      "type": "function"
    },
    {
      "inputs": [
        {
          "components": [
            {
              "internalType": "address",
              "name": "trader",
              "type": "address"
            },
            {
              "internalType": "address",
              "name": "tokenBought",
              "type": "address"
            },
            {
              "internalType": "uint256",
              "name": "timeStamp",
              "type": "uint256"
            },
            {
              "internalType": "int256",
              "name": "buyPrice",
              "type": "int256"
            },
            {
              "internalType": "enum TradeGuideStorage.TradeState",
              "name": "_tradeState",
              "type": "uint8"
            },
            {
              "internalType": "uint256",
              "name": "upkeepID",
              "type": "uint256"
            },
            {
              "internalType": "int256",
              "name": "sl",
              "type": "int256"
            },
            {
              "internalType": "int256",
              "name": "tp",
              "type": "int256"
            }
          ],
          "internalType": "struct TradeGuideStorage.TradeLog",
          "name": "_tradeLog",
          "type": "tuple"
        }
      ],
      "name": "getUpkeepInfo",
      "outputs": [
        {
          "internalType": "address",
          "name": "target",
          "type": "address"
        },
        {
          "internalType": "uint32",
          "name": "executeGas",
          "type": "uint32"
        },
        {
          "internalType": "bytes",
          "name": "checkData",
          "type": "bytes"
        },
        {
          "internalType": "uint96",
          "name": "balance",
          "type": "uint96"
        },
        {
          "internalType": "address",
          "name": "admin",
          "type": "address"
        },
        {
          "internalType": "uint96",
          "name": "amountSpent",
          "type": "uint96"
        }
      ],
      "stateMutability": "view",
      "type": "function"
    },
    {
      "inputs": [],
      "name": "i_link",
      "outputs": [
        {
          "internalType": "contract LinkTokenInterface",
          "name": "",
          "type": "address"
        }
      ],
      "stateMutability": "view",
      "type": "function"
    },
    {
      "inputs": [],
      "name": "i_registry",
      "outputs": [
        {
          "internalType": "contract AutomationRegistryInterface",
          "name": "",
          "type": "address"
        }
      ],
      "stateMutability": "view",
      "type": "function"
    },
    {
      "inputs": [
        {
          "internalType": "address",
          "name": "",
          "type": "address"
        }
      ],
      "name": "noOfSubscribers",
      "outputs": [
        {
          "internalType": "uint256",
          "name": "",
          "type": "uint256"
        }
      ],
      "stateMutability": "view",
      "type": "function"
    },
    {
      "inputs": [
        {
          "internalType": "address",
          "name": "",
          "type": "address"
        }
      ],
      "name": "noOfTrades",
      "outputs": [
        {
          "internalType": "uint256",
          "name": "",
          "type": "uint256"
        }
      ],
      "stateMutability": "view",
      "type": "function"
    },
    {
      "inputs": [
        {
          "internalType": "uint256",
          "name": "_number",
          "type": "uint256"
        }
      ],
      "name": "numberToString",
      "outputs": [
        {
          "internalType": "string",
          "name": "",
          "type": "string"
        }
      ],
      "stateMutability": "pure",
      "type": "function"
    },
    {
      "inputs": [],
      "name": "oracleAdress",
      "outputs": [
        {
          "internalType": "contract IPriceOracle",
          "name": "",
          "type": "address"
        }
      ],
      "stateMutability": "view",
      "type": "function"
    },
    {
      "inputs": [
        {
          "internalType": "bytes",
          "name": "performData",
          "type": "bytes"
        }
      ],
      "name": "performUpkeep",
      "outputs": [],
      "stateMutability": "nonpayable",
      "type": "function"
    },
    {
      "inputs": [],
      "name": "poolFee",
      "outputs": [
        {
          "internalType": "uint24",
          "name": "",
          "type": "uint24"
        }
      ],
      "stateMutability": "view",
      "type": "function"
    },
    {
      "inputs": [
        {
          "internalType": "address",
          "name": "",
          "type": "address"
        },
        {
          "internalType": "uint256",
          "name": "",
          "type": "uint256"
        }
      ],
      "name": "posts",
      "outputs": [
        {
          "internalType": "string",
          "name": "",
          "type": "string"
        }
      ],
      "stateMutability": "view",
      "type": "function"
    },
    {
      "inputs": [
        {
          "internalType": "uint96",
          "name": "amount",
          "type": "uint96"
        },
        {
          "internalType": "uint256",
          "name": "_amountOut",
          "type": "uint256"
        },
        {
          "components": [
            {
              "internalType": "address",
              "name": "trader",
              "type": "address"
            },
            {
              "internalType": "address",
              "name": "tokenBought",
              "type": "address"
            },
            {
              "internalType": "uint256",
              "name": "timeStamp",
              "type": "uint256"
            },
            {
              "internalType": "int256",
              "name": "buyPrice",
              "type": "int256"
            },
            {
              "internalType": "enum TradeGuideStorage.TradeState",
              "name": "_tradeState",
              "type": "uint8"
            },
            {
              "internalType": "uint256",
              "name": "upkeepID",
              "type": "uint256"
            },
            {
              "internalType": "int256",
              "name": "sl",
              "type": "int256"
            },
            {
              "internalType": "int256",
              "name": "tp",
              "type": "int256"
            }
          ],
          "internalType": "struct TradeGuideStorage.TradeLog",
          "name": "_tradeLog",
          "type": "tuple"
        }
      ],
      "name": "registerAndPredictID",
      "outputs": [],
      "stateMutability": "nonpayable",
      "type": "function"
    },
    {
      "inputs": [],
      "name": "registrar",
      "outputs": [
        {
          "internalType": "address",
          "name": "",
          "type": "address"
        }
      ],
      "stateMutability": "view",
      "type": "function"
    },
    {
      "inputs": [
        {
          "internalType": "address[]",
          "name": "_to",
          "type": "address[]"
        },
        {
          "components": [
            {
              "internalType": "address",
              "name": "trader",
              "type": "address"
            },
            {
              "internalType": "address",
              "name": "tokenBought",
              "type": "address"
            },
            {
              "internalType": "uint256",
              "name": "timeStamp",
              "type": "uint256"
            },
            {
              "internalType": "int256",
              "name": "buyPrice",
              "type": "int256"
            },
            {
              "internalType": "enum TradeGuideStorage.TradeState",
              "name": "_tradeState",
              "type": "uint8"
            },
            {
              "internalType": "uint256",
              "name": "upkeepID",
              "type": "uint256"
            },
            {
              "internalType": "int256",
              "name": "sl",
              "type": "int256"
            },
            {
              "internalType": "int256",
              "name": "tp",
              "type": "int256"
            }
          ],
          "internalType": "struct TradeGuideStorage.TradeLog",
          "name": "_tradeLog",
          "type": "tuple"
        }
      ],
      "name": "sendNotif",
      "outputs": [
        {
          "internalType": "bool",
          "name": "",
          "type": "bool"
        }
      ],
      "stateMutability": "nonpayable",
      "type": "function"
    },
    {
      "inputs": [
        {
          "internalType": "uint256",
          "name": "fee",
          "type": "uint256"
        }
      ],
      "name": "setSubscribersFee",
      "outputs": [],
      "stateMutability": "nonpayable",
      "type": "function"
    },
    {
      "inputs": [
        {
          "internalType": "string",
          "name": "userLink",
          "type": "string"
        }
      ],
      "name": "setUserProfile",
      "outputs": [],
      "stateMutability": "nonpayable",
      "type": "function"
    },
    {
      "inputs": [
        {
          "internalType": "address",
          "name": "_to",
          "type": "address"
        }
      ],
      "name": "subscribe",
      "outputs": [],
      "stateMutability": "nonpayable",
      "type": "function"
    },
    {
      "inputs": [
        {
          "internalType": "address",
          "name": "",
          "type": "address"
        },
        {
          "internalType": "uint256",
          "name": "",
          "type": "uint256"
        }
      ],
      "name": "subscribers",
      "outputs": [
        {
          "internalType": "address",
          "name": "",
          "type": "address"
        }
      ],
      "stateMutability": "view",
      "type": "function"
    },
    {
      "inputs": [
        {
          "internalType": "address",
          "name": "_tokenIn",
          "type": "address"
        },
        {
          "internalType": "uint256",
          "name": "amountIn",
          "type": "uint256"
        },
        {
          "internalType": "address",
          "name": "_tokenOut",
          "type": "address"
        }
      ],
      "name": "swapExactInputSingleAlone",
      "outputs": [
        {
          "internalType": "uint256",
          "name": "amountOut",
          "type": "uint256"
        }
      ],
      "stateMutability": "nonpayable",
      "type": "function"
    },
    {
      "inputs": [],
      "name": "swapRouter",
      "outputs": [
        {
          "internalType": "contract ISwapRouter",
          "name": "",
          "type": "address"
        }
      ],
      "stateMutability": "view",
      "type": "function"
    },
    {
      "inputs": [],
      "name": "totalOfTrades",
      "outputs": [
        {
          "internalType": "uint256",
          "name": "",
          "type": "uint256"
        }
      ],
      "stateMutability": "view",
      "type": "function"
    },
    {
      "inputs": [
        {
          "internalType": "uint256",
          "name": "",
          "type": "uint256"
        }
      ],
      "name": "trades",
      "outputs": [
        {
          "internalType": "address",
          "name": "trader",
          "type": "address"
        },
        {
          "internalType": "address",
          "name": "tokenBought",
          "type": "address"
        },
        {
          "internalType": "uint256",
          "name": "timeStamp",
          "type": "uint256"
        },
        {
          "internalType": "int256",
          "name": "buyPrice",
          "type": "int256"
        },
        {
          "internalType": "enum TradeGuideStorage.TradeState",
          "name": "_tradeState",
          "type": "uint8"
        },
        {
          "internalType": "uint256",
          "name": "upkeepID",
          "type": "uint256"
        },
        {
          "internalType": "int256",
          "name": "sl",
          "type": "int256"
        },
        {
          "internalType": "int256",
          "name": "tp",
          "type": "int256"
        }
      ],
      "stateMutability": "view",
      "type": "function"
    },
    {
      "inputs": [
        {
          "internalType": "int256",
          "name": "tp",
          "type": "int256"
        },
        {
          "internalType": "int256",
          "name": "sl",
          "type": "int256"
        },
        {
          "internalType": "uint256",
          "name": "amountIn",
          "type": "uint256"
        },
        {
          "internalType": "address",
          "name": "_tokenIn",
          "type": "address"
        },
        {
          "internalType": "address",
          "name": "_tokenOut",
          "type": "address"
        }
      ],
      "name": "useTPandSL",
      "outputs": [],
      "stateMutability": "nonpayable",
      "type": "function"
    },
    {
      "inputs": [
        {
          "internalType": "address",
          "name": "",
          "type": "address"
        }
      ],
      "name": "userProfile",
      "outputs": [
        {
          "internalType": "string",
          "name": "",
          "type": "string"
        }
      ],
      "stateMutability": "view",
      "type": "function"
    },
    {
      "inputs": [],
      "name": "users",
      "outputs": [
        {
          "internalType": "uint256",
          "name": "",
          "type": "uint256"
        }
      ],
      "stateMutability": "view",
      "type": "function"
    },
    {
      "stateMutability": "payable",
      "type": "receive"
    }
  ],
  "bytecode": "0x610140604052600b805463ffffffff1916633659d6661790553480156200002557600080fd5b506040516200409a3803806200409a8339810160408190526200004891620000a8565b6001600160a01b0396871660805294861660a05292851660e05290841660c052831661012052821661010052600180546001600160a01b0319169190921617905562000153565b6001600160a01b0381168114620000a557600080fd5b50565b600080600080600080600060e0888a031215620000c457600080fd5b8751620000d1816200008f565b6020890151909750620000e4816200008f565b6040890151909650620000f7816200008f565b60608901519095506200010a816200008f565b60808901519094506200011d816200008f565b60a089015190935062000130816200008f565b60c089015190925062000143816200008f565b8091505092959891949750929550565b60805160a05160c05160e0516101005161012051613e41620002596000396000818161039e015281816119f301528181611b7501528181611c61015281816123890152818161253401526125ff01526000818161041e015281816112970152611bfd0152600081816103ea015261247f015260008181610472015281816113db0152818161146d0152818161151d01528181611ddc01528181611e6e0152818161273901526127cb0152600081816106c4015281816114ef015281816118dc01528181611a7b01528181611b1a01526124500152600081816107ce0152818161193f01528181611d3d0152818161219f015281816126f201526128ab0152613e416000f3fe60806040526004361061024a5760003560e01c80635f5bafcc11610139578063b07e1b64116100b6578063ce891f991161007a578063ce891f9914610822578063d0ca42881461084f578063e43372e91461086f578063ebd34f5014610891578063eeb1cd4c146108a6578063f2020275146108c657600080fd5b8063b07e1b641461075c578063be7ef5f21461077c578063c27a69f01461079c578063c31c9c07146107bc578063cc65f3aa146107f057600080fd5b80637bbdb96e116100fd5780637bbdb96e146106925780637d253aff146106b25780637d4f225b146106e6578063847e0b2b1461070657806389a302711461073c57600080fd5b80635f5bafcc146105be5780635fbf9ba7146105de5780636401c30c146106145780636e04ff0d146106345780637028cbfa1461066257600080fd5b806341a7726a116101c75780634caf9d0b1161018b5780634caf9d0b1461050e5780634cb47e841461053b5780635be6bf00146105685780635c538df31461057e5780635e57966d1461059e57600080fd5b806341a7726a146104405780634398604e146104605780634585e33b146104945780634ac17c25146104b45780634b36c125146104e157600080fd5b80631e6c598e1161020e5780631e6c598e146103145780632160f3f6146103485780632a6636061461038c5780632b20e397146103d8578063382988d41461040c57600080fd5b8063089fe6aa146102565780630f53a47014610285578063129552ec146102b2578063170dc660146102d45780631c8e8962146102f457600080fd5b3661025157005b600080fd5b34801561026257600080fd5b5061026c610bb881565b60405162ffffff90911681526020015b60405180910390f35b34801561029157600080fd5b506102a56102a0366004612e1d565b6108dc565b60405161027c9190612e92565b3480156102be57600080fd5b506102d26102cd366004612f5d565b610988565b005b3480156102e057600080fd5b506102a56102ef366004612fdc565b6109bf565b34801561030057600080fd5b506102a561030f366004612e1d565b610ac4565b34801561032057600080fd5b5061033461032f366004612fdc565b610b5e565b60405161027c98979695949392919061302d565b34801561035457600080fd5b5061037e610363366004612e1d565b6001600160a01b03166000908152600a602052604090205490565b60405190815260200161027c565b34801561039857600080fd5b506103c07f000000000000000000000000000000000000000000000000000000000000000081565b6040516001600160a01b03909116815260200161027c565b3480156103e457600080fd5b506103c07f000000000000000000000000000000000000000000000000000000000000000081565b34801561041857600080fd5b506103c07f000000000000000000000000000000000000000000000000000000000000000081565b34801561044c57600080fd5b506102d261045b366004612e1d565b610bc4565b34801561046c57600080fd5b506103c07f000000000000000000000000000000000000000000000000000000000000000081565b3480156104a057600080fd5b506102d26104af366004613080565b610d66565b3480156104c057600080fd5b5061037e6104cf366004612e1d565b60076020526000908152604090205481565b3480156104ed57600080fd5b5061037e6104fc366004612e1d565b60086020526000908152604090205481565b34801561051a57600080fd5b5061052e610529366004612e1d565b610dfe565b60405161027c91906130f1565b34801561054757600080fd5b5061055b610556366004612e1d565b610eed565b60405161027c9190613153565b34801561057457600080fd5b5061037e60025481565b34801561058a57600080fd5b506102a56105993660046131a0565b610f62565b3480156105aa57600080fd5b506102a56105b9366004612e1d565b610f9a565b3480156105ca57600080fd5b506103c06105d93660046131a0565b611185565b3480156105ea57600080fd5b5061037e6105f9366004612e1d565b6001600160a01b031660009081526008602052604090205490565b34801561062057600080fd5b506102d261062f366004612f5d565b6111bd565b34801561064057600080fd5b5061065461064f366004613080565b6111dd565b60405161027c9291906131cc565b34801561066e57600080fd5b5061068261067d3660046132c2565b61127b565b604051901515815260200161027c565b34801561069e57600080fd5b506001546103c0906001600160a01b031681565b3480156106be57600080fd5b506103c07f000000000000000000000000000000000000000000000000000000000000000081565b3480156106f257600080fd5b506102d261070136600461336f565b6113b9565b34801561071257600080fd5b5061037e610721366004612e1d565b6001600160a01b031660009081526007602052604090205490565b34801561074857600080fd5b506000546103c0906001600160a01b031681565b34801561076857600080fd5b506102d26107773660046133c5565b6119d8565b34801561078857600080fd5b506102d26107973660046133f7565b611a5b565b3480156107a857600080fd5b506102d26107b7366004612e1d565b611bde565b3480156107c857600080fd5b506103c07f000000000000000000000000000000000000000000000000000000000000000081565b3480156107fc57600080fd5b5061081061080b3660046133c5565b611c55565b60405161027c96959493929190613431565b34801561082e57600080fd5b506102d261083d366004612fdc565b336000908152600a6020526040902055565b34801561085b57600080fd5b5061037e61086a366004613489565b611d0f565b34801561087b57600080fd5b50610884612273565b60405161027c919061352e565b34801561089d57600080fd5b5060025461037e565b3480156108b257600080fd5b506102d26108c1366004613571565b61235f565b3480156108d257600080fd5b5061037e60035481565b6001600160a01b0381166000908152600960205260409020805460609190610903906135b1565b80601f016020809104026020016040519081016040528092919081815260200182805461092f906135b1565b801561097c5780601f106109515761010080835404028352916020019161097c565b820191906000526020600020905b81548152906001019060200180831161095f57829003601f168201915b50505050509050919050565b336000908152600660209081526040822080546001810182559083529181902083516109bb939190910191840190612d5c565b5050565b6060816109e35750506040805180820190915260018152600360fc1b602082015290565b8160005b8115610a0d57806109f781613602565b9150610a069050600a83613633565b91506109e7565b6000816001600160401b03811115610a2757610a27612ea5565b6040519080825280601f01601f191660200182016040528015610a51576020820181803683370190505b5090505b8415610abc57610a66600183613647565b9150610a73600a8661365e565b610a7e906030613672565b60f81b818381518110610a9357610a9361368a565b60200101906001600160f81b031916908160001a905350610ab5600a86613633565b9450610a55565b949350505050565b60096020526000908152604090208054610add906135b1565b80601f0160208091040260200160405190810160405280929190818152602001828054610b09906135b1565b8015610b565780601f10610b2b57610100808354040283529160200191610b56565b820191906000526020600020905b815481529060010190602001808311610b3957829003601f168201915b505050505081565b60048181548110610b6e57600080fd5b6000918252602090912060089091020180546001820154600283015460038401546004850154600586015460068701546007909701546001600160a01b03968716985094909516959294919360ff909116929088565b6001600160a01b038181166000908152600a602052604080822054915490516370a0823160e01b8152336004820152919216906370a0823190602401602060405180830381865afa158015610c1d573d6000803e3d6000fd5b505050506040513d601f19601f82011682018060405250810190610c4191906136a0565b1015610c605760405163356680b760e01b815260040160405180910390fd5b600080546001600160a01b03838116808452600a60205260409384902054935163a9059cbb60e01b815260048101919091526024810193909352169063a9059cbb906044016020604051808303816000875af1158015610cc4573d6000803e3d6000fd5b505050506040513d601f19601f82011682018060405250810190610ce891906136b9565b506001600160a01b038116600081815260056020908152604080832080546001810182559084528284200180546001600160a01b03191633179055838352600a825291829020548251938452908301527f4b90d6788928d63c1821907a6a8b95f40d26562d8fe41b105f7489db9966dfcb910160405180910390a150565b600080610d75838501856136db565b91509150600081606001518260e00151131580610d9a575081606001518260c0015112155b9050808015610dbe5750600082608001516001811115610dbc57610dbc612ff5565b145b15610dee576020820151600054610de1919085906001600160a01b0316336126e1565b5060016080830152610df7565b610df7826119d8565b5050505050565b6001600160a01b0381166000908152600660209081526040808320805482518185028101850190935280835260609492939192909184015b82821015610ee2578382906000526020600020018054610e55906135b1565b80601f0160208091040260200160405190810160405280929190818152602001828054610e81906135b1565b8015610ece5780601f10610ea357610100808354040283529160200191610ece565b820191906000526020600020905b815481529060010190602001808311610eb157829003601f168201915b505050505081526020019060010190610e36565b505050509050919050565b6001600160a01b03811660009081526005602090815260409182902080548351818402810184019094528084526060939283018282801561097c57602002820191906000526020600020905b81546001600160a01b03168152600190910190602001808311610f395750505050509050919050565b60066020528160005260406000208181548110610f7e57600080fd5b90600052602060002001600091509150508054610add906135b1565b604080518082018252601081526f181899199a1a9b1b9c1cb0b131b232b360811b60208201528151602a80825260608281019094526001600160a01b0385169291600091602082018180368337019050509050600360fc1b816000815181106110055761100561368a565b60200101906001600160f81b031916908160001a905350600f60fb1b816001815181106110345761103461368a565b60200101906001600160f81b031916908160001a90535060005b601481101561117c578260048561106684600c613672565b602081106110765761107661368a565b1a60f81b6001600160f81b031916901c60f81c60ff168151811061109c5761109c61368a565b01602001516001600160f81b031916826110b7836002613709565b6110c2906002613672565b815181106110d2576110d261368a565b60200101906001600160f81b031916908160001a90535082846110f683600c613672565b602081106111065761110661368a565b825191901a600f1690811061111d5761111d61368a565b01602001516001600160f81b03191682611138836002613709565b611143906003613672565b815181106111535761115361368a565b60200101906001600160f81b031916908160001a9053508061117481613602565b91505061104e565b50949350505050565b600560205281600052604060002081815481106111a157600080fd5b6000918252602090912001546001600160a01b03169150829050565b33600090815260096020908152604090912082516109bb92840190612d5c565b60006060816111ee848601866136db565b915050600081606001518260e00151131580611212575081606001518260c0015112155b9050808015611236575060008260800151600181111561123457611234612ff5565b145b935085858080601f0160208091040260200160405190810160405280939291908181526020018383808284376000920191909152509699929850919650505050505050565b6000805b83518110156113af5760015484516001600160a01b037f000000000000000000000000000000000000000000000000000000000000000081169263ba3d69d7929116908790859081106112d4576112d461368a565b60200260200101516112e987604001516109bf565b87516112f490610f9a565b6113018960200151610f9a565b61130e8a606001516109bf565b61131b8b60c001516109bf565b6113288c60e001516109bf565b60405160200161133d96959493929190613744565b6040516020818303038152906040526040518463ffffffff1660e01b815260040161136a9392919061382a565b600060405180830381600087803b15801561138457600080fd5b505af1158015611398573d6000803e3d6000fd5b5050505080806113a790613602565b91505061127f565b5060019392505050565b60405163b3596f0760e01b81526001600160a01b0382811660048301526000917f00000000000000000000000000000000000000000000000000000000000000009091169063b3596f0790602401602060405180830381865afa158015611424573d6000803e3d6000fd5b505050506040513d601f19601f8201168201806040525081019061144891906136a0565b60405163b3596f0760e01b81526001600160a01b0385811660048301529192506000917f0000000000000000000000000000000000000000000000000000000000000000169063b3596f0790602401602060405180830381865afa1580156114b4573d6000803e3d6000fd5b505050506040513d601f19601f820116820180604052508101906114d891906136a0565b60405163b3596f0760e01b81526001600160a01b037f0000000000000000000000000000000000000000000000000000000000000000811660048301529192506000917f0000000000000000000000000000000000000000000000000000000000000000169063b3596f0790602401602060405180830381865afa158015611564573d6000803e3d6000fd5b505050506040513d601f19601f8201168201806040525081019061158891906136a0565b90506000600a611598848461385f565b6115a390600561388d565b6115ad919061385f565b905060006115bb8289613672565b9050848a12156115de576040516359570a0160e11b815260040160405180910390fd5b848913156115ff576040516359570a0160e11b815260040160405180910390fd5b6040516370a0823160e01b815233600482015281906001600160a01b038916906370a0823190602401602060405180830381865afa158015611645573d6000803e3d6000fd5b505050506040513d601f19601f8201168201806040525081019061166991906136a0565b10156116885760405163356680b760e01b815260040160405180910390fd5b60048054600181810183556000928352604080516101008101825260089093027f8a35acfbc15ff81a39ae7d344fd709f28e8600b4aa8c65c6b64bfe7fe36bd19b810180546001600160a01b0390811686527f8a35acfbc15ff81a39ae7d344fd709f28e8600b4aa8c65c6b64bfe7fe36bd19c8301541660208601527f8a35acfbc15ff81a39ae7d344fd709f28e8600b4aa8c65c6b64bfe7fe36bd19d820154928501929092527f8a35acfbc15ff81a39ae7d344fd709f28e8600b4aa8c65c6b64bfe7fe36bd19e81015460608501527f8a35acfbc15ff81a39ae7d344fd709f28e8600b4aa8c65c6b64bfe7fe36bd19f01549091608084019160ff169081111561179557611795612ff5565b60018111156117a6576117a6612ff5565b8152600582015460208083019190915260068301546040808401919091526007909301546060928301523384526001600160a01b038b16908401524291830191909152810187905290506000608082018190525060c081018a905260e081018b90523360009081526005602090815260408083208054825181850281018501909352808352919290919083018282801561186957602002820191906000526020600020905b81546001600160a01b0316815260019091019060200180831161184b575b5050505050905060008151111561188657611884818361127b565b505b61189b6001600160a01b038a16333086612970565b60006118a98a8c8b306126e1565b90506000856118b8888a61385f565b6118c2919061388d565b60408051610100810182526001600160a01b03808f1682527f000000000000000000000000000000000000000000000000000000000000000081166020830152610bb88284015230606083015242608083015260a082018a905260c08201849052600060e08301819052925163414bf38960e01b815293945090927f00000000000000000000000000000000000000000000000000000000000000009091169063414bf38990611976908590600401613912565b6020604051808303816000875af1158015611995573d6000803e3d6000fd5b505050506040513d601f19601f820116820180604052508101906119b991906136a0565b90506119c681858861235f565b50505050505050505050505050505050565b60a0810151604051636402401160e11b8152600481018290527f00000000000000000000000000000000000000000000000000000000000000006001600160a01b03169063c804802290602401600060405180830381600087803b158015611a3f57600080fd5b505af1158015611a53573d6000803e3d6000fd5b505050505050565b6040516370a0823160e01b81523360048201526001600160601b038216907f00000000000000000000000000000000000000000000000000000000000000006001600160a01b0316906370a0823190602401602060405180830381865afa158015611aca573d6000803e3d6000fd5b505050506040513d601f19601f82011682018060405250810190611aee91906136a0565b1015611b0d5760405163356680b760e01b815260040160405180910390fd5b611b4b6001600160a01b037f00000000000000000000000000000000000000000000000000000000000000001633306001600160601b038516612970565b60a082015160405163948108f760e01b8152600481018290526001600160601b03831660248201527f00000000000000000000000000000000000000000000000000000000000000006001600160a01b03169063948108f790604401600060405180830381600087803b158015611bc157600080fd5b505af1158015611bd5573d6000803e3d6000fd5b50505050505050565b60405163e71bdf4160e01b81526001600160a01b0382811660048301527f0000000000000000000000000000000000000000000000000000000000000000169063e71bdf4190602401600060405180830381600087803b158015611c4157600080fd5b505af1158015610df7573d6000803e3d6000fd5b600080606060008060007f00000000000000000000000000000000000000000000000000000000000000006001600160a01b031663c7c3a19a8860a001516040518263ffffffff1660e01b8152600401611cb191815260200190565b600060405180830381865afa158015611cce573d6000803e3d6000fd5b505050506040513d6000823e601f3d908101601f19168201604052611cf691908101906139bc565b969e959d50939b50919950909750929550909350505050565b6000611d266001600160a01b038516333086612970565b60405163095ea7b360e01b81526001600160a01b037f0000000000000000000000000000000000000000000000000000000000000000811660048301526024820185905285169063095ea7b3906044016020604051808303816000875af1158015611d95573d6000803e3d6000fd5b505050506040513d601f19601f82011682018060405250810190611db991906136b9565b5060405163b3596f0760e01b81526001600160a01b0383811660048301526000917f00000000000000000000000000000000000000000000000000000000000000009091169063b3596f0790602401602060405180830381865afa158015611e25573d6000803e3d6000fd5b505050506040513d601f19601f82011682018060405250810190611e4991906136a0565b60405163b3596f0760e01b81526001600160a01b0387811660048301529192506000917f0000000000000000000000000000000000000000000000000000000000000000169063b3596f0790602401602060405180830381865afa158015611eb5573d6000803e3d6000fd5b505050506040513d601f19601f82011682018060405250810190611ed991906136a0565b9050600085611ee88484613633565b611ef29190613709565b60048054600181019091556008027f8a35acfbc15ff81a39ae7d344fd709f28e8600b4aa8c65c6b64bfe7fe36bd19b810180546001600160a01b03199081163390811783557f8a35acfbc15ff81a39ae7d344fd709f28e8600b4aa8c65c6b64bfe7fe36bd19c840180546001600160a01b038c16931692909217909155427f8a35acfbc15ff81a39ae7d344fd709f28e8600b4aa8c65c6b64bfe7fe36bd19d8401557f8a35acfbc15ff81a39ae7d344fd709f28e8600b4aa8c65c6b64bfe7fe36bd19e83018790557f8a35acfbc15ff81a39ae7d344fd709f28e8600b4aa8c65c6b64bfe7fe36bd19f8301805460ff1916905560007f8a35acfbc15ff81a39ae7d344fd709f28e8600b4aa8c65c6b64bfe7fe36bd1a184018190557f8a35acfbc15ff81a39ae7d344fd709f28e8600b4aa8c65c6b64bfe7fe36bd1a29093018390558252600560209081526040808420805482518185028101850190935280835295965093948594859390919083018282801561209857602002820191906000526020600020905b81546001600160a01b0316815260019091019060200180831161207a575b5050505050905060008151111561214757604080516101008101825283546001600160a01b0390811682526001808601549091166020830152600285015492820192909252600384015460608201526004840154612145928492918691608084019160ff169081111561210d5761210d612ff5565b600181111561211e5761211e612ff5565b8152602001600582015481526020016006820154815260200160078201548152505061127b565b505b60408051610100810182526001600160a01b03808e1682528b81166020830152610bb88284015233606083015242608083015260a082018d905260c08201889052600060e0830152915163414bf38960e01b815290917f0000000000000000000000000000000000000000000000000000000000000000169063414bf389906121d4908490600401613912565b6020604051808303816000875af11580156121f3573d6000803e3d6000fd5b505050506040513d601f19601f8201168201806040525081019061221791906136a0565b60048401805460ff191660019081179091553360009081526008602052604081208054939c50919261224a908490613672565b90915550506002805490600061225f83613602565b919050555050505050505050509392505050565b60606004805480602002602001604051908101604052809291908181526020016000905b8282101561235657600084815260209081902060408051610100810182526008860290920180546001600160a01b0390811684526001808301549091169484019490945260028101549183019190915260038101546060830152600481015491929091608084019160ff9091169081111561231457612314612ff5565b600181111561232557612325612ff5565b8152602001600582015481526020016006820154815260200160078201548152505081526020019060010190612297565b50505050905090565b60008282604051602001612374929190613aaa565b604051602081830303815290604052905060007f00000000000000000000000000000000000000000000000000000000000000006001600160a01b0316631865c57d6040518163ffffffff1660e01b8152600401600060405180830381865afa1580156123e5573d6000803e3d6000fd5b505050506040513d6000823e601f3d908101601f1916820160405261240d9190810190613b53565b5050805160405191925063ffffffff169060009061243d90309061270f90339088908c9087908690602001613cca565b60405160208183030381529060405290507f00000000000000000000000000000000000000000000000000000000000000006001600160a01b0316634000aea07f000000000000000000000000000000000000000000000000000000000000000089600b60009054906101000a900460e01b856040516020016124c1929190613d8b565b6040516020818303038152906040526040518463ffffffff1660e01b81526004016124ee93929190613dbc565b6020604051808303816000875af115801561250d573d6000803e3d6000fd5b505050506040513d601f19601f8201168201806040525081019061253191906136b9565b507f00000000000000000000000000000000000000000000000000000000000000006001600160a01b0316631865c57d6040518163ffffffff1660e01b8152600401600060405180830381865afa158015612590573d6000803e3d6000fd5b505050506040513d6000823e601f3d908101601f191682016040526125b89190810190613b53565b5050805190935063ffffffff166125d0836001613672565b8114156126925760006125e4600143613647565b60408051914060208301526bffffffffffffffffffffffff197f000000000000000000000000000000000000000000000000000000000000000060601b16908201526001600160e01b031960e086901b16605482015260580160408051601f19818403018152918152815160209092019190912060a08901819052905190915081907f63410b84334e1011f4c6e94909882bd236426deb3c6a08c13ec54cedad72d43c90600090a2506126d7565b60405162461bcd60e51b8152602060048201526015602482015274185d5d1bcb585c1c1c9bdd9948191a5cd8589b1959605a1b60448201526064015b60405180910390fd5b5050505050505050565b60006127176001600160a01b0386167f0000000000000000000000000000000000000000000000000000000000000000866129e1565b60405163b3596f0760e01b81526001600160a01b0384811660048301526000917f00000000000000000000000000000000000000000000000000000000000000009091169063b3596f0790602401602060405180830381865afa158015612782573d6000803e3d6000fd5b505050506040513d601f19601f820116820180604052508101906127a691906136a0565b60405163b3596f0760e01b81526001600160a01b0388811660048301529192506000917f0000000000000000000000000000000000000000000000000000000000000000169063b3596f0790602401602060405180830381865afa158015612812573d6000803e3d6000fd5b505050506040513d601f19601f8201168201806040525081019061283691906136a0565b90506000866128458484613633565b61284f9190613709565b60408051610100810182526001600160a01b03808c1682528981166020830152610bb882840152888116606083015242608083015260a082018b905260c08201849052600060e0830152915163414bf38960e01b8152929350917f00000000000000000000000000000000000000000000000000000000000000009091169063414bf389906128e2908490600401613912565b6020604051808303816000875af1158015612901573d6000803e3d6000fd5b505050506040513d601f19601f8201168201806040525081019061292591906136a0565b336000908152600860205260408120805492975060019290919061294a908490613672565b90915550506002805490600061295f83613602565b919050555050505050949350505050565b6040516001600160a01b03808516602483015283166044820152606481018290526129db9085906323b872dd60e01b906084015b60408051601f198184030181529190526020810180516001600160e01b03166001600160e01b031990931692909217909152612afb565b50505050565b801580612a5b5750604051636eb1769f60e11b81523060048201526001600160a01b03838116602483015284169063dd62ed3e90604401602060405180830381865afa158015612a35573d6000803e3d6000fd5b505050506040513d601f19601f82011682018060405250810190612a5991906136a0565b155b612ac65760405162461bcd60e51b815260206004820152603660248201527f5361666545524332303a20617070726f76652066726f6d206e6f6e2d7a65726f60448201527520746f206e6f6e2d7a65726f20616c6c6f77616e636560501b60648201526084016126ce565b6040516001600160a01b038316602482015260448101829052612af690849063095ea7b360e01b906064016129a4565b505050565b6000612b50826040518060400160405280602081526020017f5361666545524332303a206c6f772d6c6576656c2063616c6c206661696c6564815250856001600160a01b0316612bcd9092919063ffffffff16565b805190915015612af65780806020019051810190612b6e91906136b9565b612af65760405162461bcd60e51b815260206004820152602a60248201527f5361666545524332303a204552433230206f7065726174696f6e20646964206e6044820152691bdd081cdd58d8d9595960b21b60648201526084016126ce565b6060612bdc8484600085612be6565b90505b9392505050565b606082471015612c475760405162461bcd60e51b815260206004820152602660248201527f416464726573733a20696e73756666696369656e742062616c616e636520666f6044820152651c8818d85b1b60d21b60648201526084016126ce565b600080866001600160a01b03168587604051612c639190613def565b60006040518083038185875af1925050503d8060008114612ca0576040519150601f19603f3d011682016040523d82523d6000602084013e612ca5565b606091505b5091509150612cb687838387612cc1565b979650505050505050565b60608315612d2d578251612d26576001600160a01b0385163b612d265760405162461bcd60e51b815260206004820152601d60248201527f416464726573733a2063616c6c20746f206e6f6e2d636f6e747261637400000060448201526064016126ce565b5081610abc565b610abc8383815115612d425781518083602001fd5b8060405162461bcd60e51b81526004016126ce9190612e92565b828054612d68906135b1565b90600052602060002090601f016020900481019282612d8a5760008555612dd0565b82601f10612da357805160ff1916838001178555612dd0565b82800160010185558215612dd0579182015b82811115612dd0578251825591602001919060010190612db5565b50612ddc929150612de0565b5090565b5b80821115612ddc5760008155600101612de1565b6001600160a01b0381168114612e0a57600080fd5b50565b8035612e1881612df5565b919050565b600060208284031215612e2f57600080fd5b8135612bdf81612df5565b60005b83811015612e55578181015183820152602001612e3d565b838111156129db5750506000910152565b60008151808452612e7e816020860160208601612e3a565b601f01601f19169290920160200192915050565b602081526000612bdf6020830184612e66565b634e487b7160e01b600052604160045260246000fd5b604051608081016001600160401b0381118282101715612edd57612edd612ea5565b60405290565b60405161018081016001600160401b0381118282101715612edd57612edd612ea5565b604051601f8201601f191681016001600160401b0381118282101715612f2e57612f2e612ea5565b604052919050565b60006001600160401b03821115612f4f57612f4f612ea5565b50601f01601f191660200190565b600060208284031215612f6f57600080fd5b81356001600160401b03811115612f8557600080fd5b8201601f81018413612f9657600080fd5b8035612fa9612fa482612f36565b612f06565b818152856020838501011115612fbe57600080fd5b81602084016020830137600091810160200191909152949350505050565b600060208284031215612fee57600080fd5b5035919050565b634e487b7160e01b600052602160045260246000fd5b6002811061302957634e487b7160e01b600052602160045260246000fd5b9052565b6001600160a01b0389811682528816602082015260408101879052606081018690526101008101613061608083018761300b565b8460a08301528360c08301528260e08301529998505050505050505050565b6000806020838503121561309357600080fd5b82356001600160401b03808211156130aa57600080fd5b818501915085601f8301126130be57600080fd5b8135818111156130cd57600080fd5b8660208285010111156130df57600080fd5b60209290920196919550909350505050565b6000602080830181845280855180835260408601915060408160051b870101925083870160005b8281101561314657603f19888603018452613134858351612e66565b94509285019290850190600101613118565b5092979650505050505050565b6020808252825182820181905260009190848201906040850190845b818110156131945783516001600160a01b03168352928401929184019160010161316f565b50909695505050505050565b600080604083850312156131b357600080fd5b82356131be81612df5565b946020939093013593505050565b8215158152604060208201526000612bdc6040830184612e66565b60006001600160401b0382111561320057613200612ea5565b5060051b60200190565b803560028110612e1857600080fd5b600061010080838503121561322d57600080fd5b604051908101906001600160401b038211818310171561324f5761324f612ea5565b816040528092508335915061326382612df5565b81815261327260208501612e0d565b602082015260408401356040820152606084013560608201526132976080850161320a565b608082015260a084013560a082015260c084013560c082015260e084013560e0820152505092915050565b60008061012083850312156132d657600080fd5b82356001600160401b038111156132ec57600080fd5b8301601f810185136132fd57600080fd5b8035602061330d612fa4836131e7565b82815260059290921b8301810191818101908884111561332c57600080fd5b938201935b8385101561335357843561334481612df5565b82529382019390820190613331565b9550613363905087878301613219565b93505050509250929050565b600080600080600060a0868803121561338757600080fd5b85359450602086013593506040860135925060608601356133a781612df5565b915060808601356133b781612df5565b809150509295509295909350565b600061010082840312156133d857600080fd5b612bdf8383613219565b6001600160601b0381168114612e0a57600080fd5b600080610120838503121561340b57600080fd5b6134158484613219565b9150610100830135613426816133e2565b809150509250929050565b600060018060a01b03808916835263ffffffff8816602084015260c0604084015261345f60c0840188612e66565b6001600160601b0396871660608501529416608083015250921660a0909201919091529392505050565b60008060006060848603121561349e57600080fd5b83356134a981612df5565b92506020840135915060408401356134c081612df5565b809150509250925092565b60018060a01b03808251168352806020830151166020840152506040810151604083015260608101516060830152608081015161350b608084018261300b565b5060a081015160a083015260c081015160c083015260e081015160e08301525050565b6020808252825182820181905260009190848201906040850190845b818110156131945761355d8385516134cb565b92840192610100929092019160010161354a565b6000806000610140848603121561358757600080fd5b8335613592816133e2565b9250602084013591506135a88560408601613219565b90509250925092565b600181811c908216806135c557607f821691505b602082108114156135e657634e487b7160e01b600052602260045260246000fd5b50919050565b634e487b7160e01b600052601160045260246000fd5b6000600019821415613616576136166135ec565b5060010190565b634e487b7160e01b600052601260045260246000fd5b6000826136425761364261361d565b500490565b600082821015613659576136596135ec565b500390565b60008261366d5761366d61361d565b500690565b60008219821115613685576136856135ec565b500190565b634e487b7160e01b600052603260045260246000fd5b6000602082840312156136b257600080fd5b5051919050565b6000602082840312156136cb57600080fd5b81518015158114612bdf57600080fd5b60008061012083850312156136ef57600080fd5b823591506137008460208501613219565b90509250929050565b6000816000190483118215151615613723576137236135ec565b500290565b6000815161373a818560208601612e3a565b9290920192915050565b600360fc1b81526000602b60f81b806001840152603360f81b6002840152806003840152506914ddd85c08105b195c9d60b21b6004830152875161378f81600e850160208c01612e3a565b601d60f91b600e9184019182015287516137b081600f840160208c01612e3a565b65189bdd59da1d60d21b600f929091019182015286516137d7816015840160208b01612e3a565b61381c6138166138106138006137fa60158688010161185d60f21b815260020190565b8b613728565b630eed2e8d60e31b815260040190565b88613728565b86613728565b9a9950505050505050505050565b6001600160a01b0384811682528316602082015260606040820181905260009061385690830184612e66565b95945050505050565b60008261386e5761386e61361d565b600160ff1b821460001984141615613888576138886135ec565b500590565b60006001600160ff1b03818413828413808216868404861116156138b3576138b36135ec565b600160ff1b60008712828116878305891216156138d2576138d26135ec565b600087129250878205871284841616156138ee576138ee6135ec565b87850587128184161615613904576139046135ec565b505050929093029392505050565b81516001600160a01b03908116825260208084015182169083015260408084015162ffffff16908301526060808401518216908301526080808401519083015260a0838101519083015260c0808401519083015260e09283015116918101919091526101000190565b8051612e1881612df5565b805163ffffffff81168114612e1857600080fd5b8051612e18816133e2565b80516001600160401b0381168114612e1857600080fd5b600080600080600080600080610100898b0312156139d957600080fd5b88516139e481612df5565b97506139f260208a01613986565b965060408901516001600160401b03811115613a0d57600080fd5b8901601f81018b13613a1e57600080fd5b8051613a2c612fa482612f36565b8181528c6020838501011115613a4157600080fd5b613a52826020830160208601612e3a565b9750613a6391505060608a0161399a565b9450613a7160808a0161397b565b9350613a7f60a08a0161397b565b9250613a8d60c08a016139a5565b9150613a9b60e08a0161399a565b90509295985092959890939650565b8281526101208101612bdf60208301846134cb565b805162ffffff81168114612e1857600080fd5b805161ffff81168114612e1857600080fd5b600082601f830112613af557600080fd5b81516020613b05612fa4836131e7565b82815260059290921b84018101918181019086841115613b2457600080fd5b8286015b84811015613b48578051613b3b81612df5565b8352918301918301613b28565b509695505050505050565b6000806000838503610220811215613b6a57600080fd5b6080811215613b7857600080fd5b613b80612ebb565b613b8986613986565b81526020860151613b99816133e2565b602082015260408681015190820152606080870151908201529350610180607f198201811315613bc857600080fd5b613bd0612ee3565b9150613bde60808701613986565b8252613bec60a08701613986565b6020830152613bfd60c08701613abf565b6040830152613c0e60e08701613986565b6060830152610100613c21818801613abf565b6080840152610120613c34818901613ad2565b60a0850152610140613c47818a0161399a565b60c0860152610160613c5a818b01613986565b60e0870152848a0151848701526101a08a015183870152613c7e6101c08b0161397b565b82870152613c8f6101e08b0161397b565b90860152505050506102008501519092506001600160401b03811115613cb457600080fd5b613cc086828701613ae4565b9150509250925092565b6101208082526013908201527254726164654775696465204175746f6d61746560681b6101408201526101606020820181905260029082015261060f60f31b6101808201526001600160a01b038816604082015261ffff8716606082015260006101a06001600160a01b03881660808401528060a0840152613d4e81840188612e66565b915050613d6660c08301866001600160601b03169052565b60ff841660e08301526001600160a01b03831661010083015298975050505050505050565b6001600160e01b0319831681528151600090613dae816004850160208701612e3a565b919091016004019392505050565b6001600160a01b03841681526001600160601b038316602082015260606040820181905260009061385690830184612e66565b60008251613e01818460208701612e3a565b919091019291505056fea2646970667358221220e7e72c30a23af8e5b1769a404b8a07f410e5592c0b9b575416bfc8e33cbf0f1f64736f6c634300080a0033",
  "linkReferences": {},
  "deployedLinkReferences": {}
}