{
  "address": "0x30099495B408ab8D9cD35FEc0850C39087f419d2",
  "abi": [
    {
      "inputs": [
        {
          "internalType": "contract ISwapRouter",
          "name": "_swapRouter",
          "type": "address"
        },
        {
          "internalType": "contract LinkTokenInterface",
          "name": "_link",
          "type": "address"
        },
        {
          "internalType": "address",
          "name": "_registrar",
          "type": "address"
        },
        {
          "internalType": "contract IPriceOracle",
          "name": "_oracleAddress",
          "type": "address"
        },
        {
          "internalType": "contract AutomationRegistryInterface",
          "name": "_registry",
          "type": "address"
        },
        {
          "internalType": "contract IEPNSCommInterface",
          "name": "epnsComms",
          "type": "address"
        },
        {
          "internalType": "address",
          "name": "_channel",
          "type": "address"
        }
      ],
      "stateMutability": "nonpayable",
      "type": "constructor"
    },
    {
      "inputs": [],
      "name": "InsufficientFunds",
      "type": "error"
    },
    {
      "inputs": [],
      "name": "InvalidTPOrSL",
      "type": "error"
    },
    {
      "anonymous": false,
      "inputs": [
        {
          "indexed": false,
          "internalType": "address",
          "name": "to",
          "type": "address"
        },
        {
          "indexed": false,
          "internalType": "uint256",
          "name": "amount",
          "type": "uint256"
        }
      ],
      "name": "Subscribed",
      "type": "event"
    },
    {
      "anonymous": false,
      "inputs": [
        {
          "indexed": false,
          "internalType": "address",
          "name": "_tokenIn",
          "type": "address"
        },
        {
          "indexed": false,
          "internalType": "uint256",
          "name": "_price",
          "type": "uint256"
        }
      ],
      "name": "Swapped",
      "type": "event"
    },
    {
      "anonymous": false,
      "inputs": [
        {
          "indexed": true,
          "internalType": "uint256",
          "name": "upkeedId",
          "type": "uint256"
        }
      ],
      "name": "UpkeepID",
      "type": "event"
    },
    {
      "inputs": [],
      "name": "USDC",
      "outputs": [
        {
          "internalType": "address",
          "name": "",
          "type": "address"
        }
      ],
      "stateMutability": "view",
      "type": "function"
    },
    {
      "inputs": [],
      "name": "_epnsComms",
      "outputs": [
        {
          "internalType": "contract IEPNSCommInterface",
          "name": "",
          "type": "address"
        }
      ],
      "stateMutability": "view",
      "type": "function"
    },
    {
      "inputs": [
        {
          "internalType": "string",
          "name": "link",
          "type": "string"
        }
      ],
      "name": "addAPost",
      "outputs": [],
      "stateMutability": "nonpayable",
      "type": "function"
    },
    {
      "inputs": [
        {
          "internalType": "address",
          "name": "_delegate",
          "type": "address"
        }
      ],
      "name": "addAdelegate",
      "outputs": [],
      "stateMutability": "nonpayable",
      "type": "function"
    },
    {
      "inputs": [
        {
          "components": [
            {
              "internalType": "uint8",
              "name": "index",
              "type": "uint8"
            },
            {
              "internalType": "address",
              "name": "trader",
              "type": "address"
            },
            {
              "internalType": "address",
              "name": "tokenBought",
              "type": "address"
            },
            {
              "internalType": "uint256",
              "name": "timeStamp",
              "type": "uint256"
            },
            {
              "internalType": "int256",
              "name": "buyPrice",
              "type": "int256"
            },
            {
              "internalType": "uint256",
              "name": "amount",
              "type": "uint256"
            },
            {
              "internalType": "enum TradeGuideStorage.TradeState",
              "name": "_tradeState",
              "type": "uint8"
            },
            {
              "internalType": "uint256",
              "name": "upkeepID",
              "type": "uint256"
            },
            {
              "internalType": "int256",
              "name": "sl",
              "type": "int256"
            },
            {
              "internalType": "int256",
              "name": "tp",
              "type": "int256"
            }
          ],
          "internalType": "struct TradeGuideStorage.TradeLog",
          "name": "_tradeLog",
          "type": "tuple"
        },
        {
          "internalType": "uint96",
          "name": "amount",
          "type": "uint96"
        }
      ],
      "name": "addFundsByID",
      "outputs": [],
      "stateMutability": "nonpayable",
      "type": "function"
    },
    {
      "inputs": [
        {
          "internalType": "address",
          "name": "_address",
          "type": "address"
        }
      ],
      "name": "addressToString",
      "outputs": [
        {
          "internalType": "string",
          "name": "",
          "type": "string"
        }
      ],
      "stateMutability": "pure",
      "type": "function"
    },
    {
      "inputs": [
        {
          "components": [
            {
              "internalType": "uint8",
              "name": "index",
              "type": "uint8"
            },
            {
              "internalType": "address",
              "name": "trader",
              "type": "address"
            },
            {
              "internalType": "address",
              "name": "tokenBought",
              "type": "address"
            },
            {
              "internalType": "uint256",
              "name": "timeStamp",
              "type": "uint256"
            },
            {
              "internalType": "int256",
              "name": "buyPrice",
              "type": "int256"
            },
            {
              "internalType": "uint256",
              "name": "amount",
              "type": "uint256"
            },
            {
              "internalType": "enum TradeGuideStorage.TradeState",
              "name": "_tradeState",
              "type": "uint8"
            },
            {
              "internalType": "uint256",
              "name": "upkeepID",
              "type": "uint256"
            },
            {
              "internalType": "int256",
              "name": "sl",
              "type": "int256"
            },
            {
              "internalType": "int256",
              "name": "tp",
              "type": "int256"
            }
          ],
          "internalType": "struct TradeGuideStorage.TradeLog",
          "name": "_tradeLog",
          "type": "tuple"
        }
      ],
      "name": "cancelUpkeepById",
      "outputs": [],
      "stateMutability": "nonpayable",
      "type": "function"
    },
    {
      "inputs": [],
      "name": "channel",
      "outputs": [
        {
          "internalType": "address",
          "name": "",
          "type": "address"
        }
      ],
      "stateMutability": "view",
      "type": "function"
    },
    {
      "inputs": [
        {
          "internalType": "bytes",
          "name": "checkData",
          "type": "bytes"
        }
      ],
      "name": "checkUpkeep",
      "outputs": [
        {
          "internalType": "bool",
          "name": "upkeepNeeded",
          "type": "bool"
        },
        {
          "internalType": "bytes",
          "name": "performData",
          "type": "bytes"
        }
      ],
      "stateMutability": "view",
      "type": "function"
    },
    {
      "inputs": [
        {
          "internalType": "address",
          "name": "user",
          "type": "address"
        }
      ],
      "name": "getNoSubscribers",
      "outputs": [
        {
          "internalType": "uint256",
          "name": "",
          "type": "uint256"
        }
      ],
      "stateMutability": "view",
      "type": "function"
    },
    {
      "inputs": [
        {
          "internalType": "address",
          "name": "user",
          "type": "address"
        }
      ],
      "name": "getNoTrades",
      "outputs": [
        {
          "internalType": "uint256",
          "name": "",
          "type": "uint256"
        }
      ],
      "stateMutability": "view",
      "type": "function"
    },
    {
      "inputs": [
        {
          "internalType": "address",
          "name": "user",
          "type": "address"
        }
      ],
      "name": "getPosts",
      "outputs": [
        {
          "internalType": "string[]",
          "name": "",
          "type": "string[]"
        }
      ],
      "stateMutability": "view",
      "type": "function"
    },
    {
      "inputs": [
        {
          "internalType": "address",
          "name": "_token",
          "type": "address"
        }
      ],
      "name": "getPrice",
      "outputs": [
        {
          "internalType": "uint256",
          "name": "",
          "type": "uint256"
        }
      ],
      "stateMutability": "view",
      "type": "function"
    },
    {
      "inputs": [
        {
          "internalType": "address",
          "name": "user",
          "type": "address"
        }
      ],
      "name": "getProfile",
      "outputs": [
        {
          "internalType": "string",
          "name": "",
          "type": "string"
        }
      ],
      "stateMutability": "view",
      "type": "function"
    },
    {
      "inputs": [
        {
          "internalType": "address",
          "name": "user",
          "type": "address"
        }
      ],
      "name": "getSubcribers",
      "outputs": [
        {
          "internalType": "address[]",
          "name": "",
          "type": "address[]"
        }
      ],
      "stateMutability": "view",
      "type": "function"
    },
    {
      "inputs": [
        {
          "internalType": "address",
          "name": "user",
          "type": "address"
        }
      ],
      "name": "getSubscribersFee",
      "outputs": [
        {
          "internalType": "uint256",
          "name": "",
          "type": "uint256"
        }
      ],
      "stateMutability": "view",
      "type": "function"
    },
    {
      "inputs": [],
      "name": "getTotalTrades",
      "outputs": [
        {
          "internalType": "uint256",
          "name": "",
          "type": "uint256"
        }
      ],
      "stateMutability": "view",
      "type": "function"
    },
    {
      "inputs": [],
      "name": "getTrades",
      "outputs": [
        {
          "components": [
            {
              "internalType": "uint8",
              "name": "index",
              "type": "uint8"
            },
            {
              "internalType": "address",
              "name": "trader",
              "type": "address"
            },
            {
              "internalType": "address",
              "name": "tokenBought",
              "type": "address"
            },
            {
              "internalType": "uint256",
              "name": "timeStamp",
              "type": "uint256"
            },
            {
              "internalType": "int256",
              "name": "buyPrice",
              "type": "int256"
            },
            {
              "internalType": "uint256",
              "name": "amount",
              "type": "uint256"
            },
            {
              "internalType": "enum TradeGuideStorage.TradeState",
              "name": "_tradeState",
              "type": "uint8"
            },
            {
              "internalType": "uint256",
              "name": "upkeepID",
              "type": "uint256"
            },
            {
              "internalType": "int256",
              "name": "sl",
              "type": "int256"
            },
            {
              "internalType": "int256",
              "name": "tp",
              "type": "int256"
            }
          ],
          "internalType": "struct TradeGuideStorage.TradeLog[]",
          "name": "",
          "type": "tuple[]"
        }
      ],
      "stateMutability": "view",
      "type": "function"
    },
    {
      "inputs": [
        {
          "components": [
            {
              "internalType": "uint8",
              "name": "index",
              "type": "uint8"
            },
            {
              "internalType": "address",
              "name": "trader",
              "type": "address"
            },
            {
              "internalType": "address",
              "name": "tokenBought",
              "type": "address"
            },
            {
              "internalType": "uint256",
              "name": "timeStamp",
              "type": "uint256"
            },
            {
              "internalType": "int256",
              "name": "buyPrice",
              "type": "int256"
            },
            {
              "internalType": "uint256",
              "name": "amount",
              "type": "uint256"
            },
            {
              "internalType": "enum TradeGuideStorage.TradeState",
              "name": "_tradeState",
              "type": "uint8"
            },
            {
              "internalType": "uint256",
              "name": "upkeepID",
              "type": "uint256"
            },
            {
              "internalType": "int256",
              "name": "sl",
              "type": "int256"
            },
            {
              "internalType": "int256",
              "name": "tp",
              "type": "int256"
            }
          ],
          "internalType": "struct TradeGuideStorage.TradeLog",
          "name": "_tradeLog",
          "type": "tuple"
        }
      ],
      "name": "getUpkeepInfo",
      "outputs": [
        {
          "internalType": "uint96",
          "name": "balance",
          "type": "uint96"
        }
      ],
      "stateMutability": "view",
      "type": "function"
    },
    {
      "inputs": [],
      "name": "i_link",
      "outputs": [
        {
          "internalType": "contract LinkTokenInterface",
          "name": "",
          "type": "address"
        }
      ],
      "stateMutability": "view",
      "type": "function"
    },
    {
      "inputs": [],
      "name": "i_registry",
      "outputs": [
        {
          "internalType": "contract AutomationRegistryInterface",
          "name": "",
          "type": "address"
        }
      ],
      "stateMutability": "view",
      "type": "function"
    },
    {
      "inputs": [
        {
          "internalType": "address",
          "name": "",
          "type": "address"
        }
      ],
      "name": "noOfSubscribers",
      "outputs": [
        {
          "internalType": "uint256",
          "name": "",
          "type": "uint256"
        }
      ],
      "stateMutability": "view",
      "type": "function"
    },
    {
      "inputs": [
        {
          "internalType": "address",
          "name": "",
          "type": "address"
        }
      ],
      "name": "noOfTrades",
      "outputs": [
        {
          "internalType": "uint256",
          "name": "",
          "type": "uint256"
        }
      ],
      "stateMutability": "view",
      "type": "function"
    },
    {
      "inputs": [
        {
          "internalType": "uint256",
          "name": "_number",
          "type": "uint256"
        }
      ],
      "name": "numberToString",
      "outputs": [
        {
          "internalType": "string",
          "name": "",
          "type": "string"
        }
      ],
      "stateMutability": "pure",
      "type": "function"
    },
    {
      "inputs": [],
      "name": "oracleAdress",
      "outputs": [
        {
          "internalType": "contract IPriceOracle",
          "name": "",
          "type": "address"
        }
      ],
      "stateMutability": "view",
      "type": "function"
    },
    {
      "inputs": [
        {
          "internalType": "bytes",
          "name": "performData",
          "type": "bytes"
        }
      ],
      "name": "performUpkeep",
      "outputs": [],
      "stateMutability": "nonpayable",
      "type": "function"
    },
    {
      "inputs": [],
      "name": "poolFee",
      "outputs": [
        {
          "internalType": "uint24",
          "name": "",
          "type": "uint24"
        }
      ],
      "stateMutability": "view",
      "type": "function"
    },
    {
      "inputs": [
        {
          "internalType": "address",
          "name": "",
          "type": "address"
        },
        {
          "internalType": "uint256",
          "name": "",
          "type": "uint256"
        }
      ],
      "name": "posts",
      "outputs": [
        {
          "internalType": "string",
          "name": "",
          "type": "string"
        }
      ],
      "stateMutability": "view",
      "type": "function"
    },
    {
      "inputs": [
        {
          "internalType": "uint96",
          "name": "amount",
          "type": "uint96"
        },
        {
          "internalType": "uint256",
          "name": "_amountOut",
          "type": "uint256"
        },
        {
          "components": [
            {
              "internalType": "uint8",
              "name": "index",
              "type": "uint8"
            },
            {
              "internalType": "address",
              "name": "trader",
              "type": "address"
            },
            {
              "internalType": "address",
              "name": "tokenBought",
              "type": "address"
            },
            {
              "internalType": "uint256",
              "name": "timeStamp",
              "type": "uint256"
            },
            {
              "internalType": "int256",
              "name": "buyPrice",
              "type": "int256"
            },
            {
              "internalType": "uint256",
              "name": "amount",
              "type": "uint256"
            },
            {
              "internalType": "enum TradeGuideStorage.TradeState",
              "name": "_tradeState",
              "type": "uint8"
            },
            {
              "internalType": "uint256",
              "name": "upkeepID",
              "type": "uint256"
            },
            {
              "internalType": "int256",
              "name": "sl",
              "type": "int256"
            },
            {
              "internalType": "int256",
              "name": "tp",
              "type": "int256"
            }
          ],
          "internalType": "struct TradeGuideStorage.TradeLog",
          "name": "_tradeLog",
          "type": "tuple"
        }
      ],
      "name": "registerAndPredictID",
      "outputs": [],
      "stateMutability": "nonpayable",
      "type": "function"
    },
    {
      "inputs": [],
      "name": "registrar",
      "outputs": [
        {
          "internalType": "address",
          "name": "",
          "type": "address"
        }
      ],
      "stateMutability": "view",
      "type": "function"
    },
    {
      "inputs": [
        {
          "internalType": "address[]",
          "name": "_to",
          "type": "address[]"
        },
        {
          "components": [
            {
              "internalType": "uint8",
              "name": "index",
              "type": "uint8"
            },
            {
              "internalType": "address",
              "name": "trader",
              "type": "address"
            },
            {
              "internalType": "address",
              "name": "tokenBought",
              "type": "address"
            },
            {
              "internalType": "uint256",
              "name": "timeStamp",
              "type": "uint256"
            },
            {
              "internalType": "int256",
              "name": "buyPrice",
              "type": "int256"
            },
            {
              "internalType": "uint256",
              "name": "amount",
              "type": "uint256"
            },
            {
              "internalType": "enum TradeGuideStorage.TradeState",
              "name": "_tradeState",
              "type": "uint8"
            },
            {
              "internalType": "uint256",
              "name": "upkeepID",
              "type": "uint256"
            },
            {
              "internalType": "int256",
              "name": "sl",
              "type": "int256"
            },
            {
              "internalType": "int256",
              "name": "tp",
              "type": "int256"
            }
          ],
          "internalType": "struct TradeGuideStorage.TradeLog",
          "name": "_tradeLog",
          "type": "tuple"
        }
      ],
      "name": "sendNotif",
      "outputs": [
        {
          "internalType": "bool",
          "name": "",
          "type": "bool"
        }
      ],
      "stateMutability": "nonpayable",
      "type": "function"
    },
    {
      "inputs": [
        {
          "internalType": "uint256",
          "name": "fee",
          "type": "uint256"
        }
      ],
      "name": "setSubscribersFee",
      "outputs": [],
      "stateMutability": "nonpayable",
      "type": "function"
    },
    {
      "inputs": [
        {
          "internalType": "string",
          "name": "userLink",
          "type": "string"
        }
      ],
      "name": "setUserProfile",
      "outputs": [],
      "stateMutability": "nonpayable",
      "type": "function"
    },
    {
      "inputs": [
        {
          "internalType": "address",
          "name": "_to",
          "type": "address"
        }
      ],
      "name": "subscribe",
      "outputs": [],
      "stateMutability": "nonpayable",
      "type": "function"
    },
    {
      "inputs": [
        {
          "internalType": "address",
          "name": "",
          "type": "address"
        },
        {
          "internalType": "uint256",
          "name": "",
          "type": "uint256"
        }
      ],
      "name": "subscribers",
      "outputs": [
        {
          "internalType": "address",
          "name": "",
          "type": "address"
        }
      ],
      "stateMutability": "view",
      "type": "function"
    },
    {
      "inputs": [
        {
          "internalType": "address",
          "name": "_tokenIn",
          "type": "address"
        },
        {
          "internalType": "uint256",
          "name": "amountIn",
          "type": "uint256"
        },
        {
          "internalType": "address",
          "name": "_tokenOut",
          "type": "address"
        }
      ],
      "name": "swapExactInputSingleAlone",
      "outputs": [
        {
          "internalType": "uint256",
          "name": "amountOut",
          "type": "uint256"
        }
      ],
      "stateMutability": "nonpayable",
      "type": "function"
    },
    {
      "inputs": [],
      "name": "swapRouter",
      "outputs": [
        {
          "internalType": "contract ISwapRouter",
          "name": "",
          "type": "address"
        }
      ],
      "stateMutability": "view",
      "type": "function"
    },
    {
      "inputs": [],
      "name": "totalOfTrades",
      "outputs": [
        {
          "internalType": "uint256",
          "name": "",
          "type": "uint256"
        }
      ],
      "stateMutability": "view",
      "type": "function"
    },
    {
      "inputs": [
        {
          "internalType": "int256",
          "name": "tp",
          "type": "int256"
        },
        {
          "internalType": "int256",
          "name": "sl",
          "type": "int256"
        },
        {
          "internalType": "uint256",
          "name": "amountIn",
          "type": "uint256"
        },
        {
          "internalType": "address",
          "name": "_tokenIn",
          "type": "address"
        },
        {
          "internalType": "address",
          "name": "_tokenOut",
          "type": "address"
        }
      ],
      "name": "useTPandSL",
      "outputs": [],
      "stateMutability": "nonpayable",
      "type": "function"
    },
    {
      "inputs": [
        {
          "internalType": "address",
          "name": "",
          "type": "address"
        }
      ],
      "name": "userProfile",
      "outputs": [
        {
          "internalType": "string",
          "name": "",
          "type": "string"
        }
      ],
      "stateMutability": "view",
      "type": "function"
    },
    {
      "inputs": [],
      "name": "users",
      "outputs": [
        {
          "internalType": "uint256",
          "name": "",
          "type": "uint256"
        }
      ],
      "stateMutability": "view",
      "type": "function"
    },
    {
      "stateMutability": "payable",
      "type": "receive"
    }
  ],
  "transactionHash": "0xfd848ea57eb09092e453f237d333dd3cc83b93945265bd7100f2e8658a514cec",
  "args": [
    "0xE592427A0AEce92De3Edee1F18E0157C05861564",
    "0x326C977E6efc84E512bB9C30f76E30c160eD06FB",
    "0x57A4a13b35d25EE78e084168aBaC5ad360252467",
    "0xf0E6744a59177014738e1eF920dc676fb3b8CB62",
    "0xE16Df59B887e3Caa439E0b29B42bA2e7976FD8b2",
    "0xb3971BCef2D791bc4027BbfedFb47319A4AAaaAa",
    "0x12114765eeA16473363682Cf832F5603BB8f6110"
  ],
  "numDeployments": 4,
  "solcInputHash": "84fba0477e679f93887c7e13b8ce43d3",
  "bytecode": "0x61014060405260006002819055600355600b805463ffffffff1916633659d6661790553480156200002f57600080fd5b5060405162003ff138038062003ff18339810160408190526200005291620000b2565b6001600160a01b0396871660805294861660a05292851660e05290841660c052831661012052821661010052600180546001600160a01b031916919092161790556200015d565b6001600160a01b0381168114620000af57600080fd5b50565b600080600080600080600060e0888a031215620000ce57600080fd5b8751620000db8162000099565b6020890151909750620000ee8162000099565b6040890151909650620001018162000099565b6060890151909550620001148162000099565b6080890151909450620001278162000099565b60a08901519093506200013a8162000099565b60c08901519092506200014d8162000099565b8091505092959891949750929550565b60805160a05160c05160e0516101005161012051613d876200026a6000396000818161036a015281816110e3015281816113c50152818161220e015281816123b901528181612484015261268001526000818161041a01528181610b6c0152611af90152600081816103b6015261230401526000818161048e01528181610cb601528181611531015281816115c30152818161167301528181611c1e01528181611cb00152818161274101526127d301526000818161070801528181611645015281816119de015281816122d50152818161258601526126250152600081816107d201528181611a4101528181611b7f01528181611f57015281816126fa01526128b30152613d876000f3fe60806040526004361061024a5760003560e01c80635c538df311610139578063847e0b2b116100b6578063d0ca42881161007a578063d0ca428814610821578063e43372e914610841578063e78f884f14610863578063ebd34f5014610883578063f202027514610898578063fe4fcb00146108ae57600080fd5b8063847e0b2b1461074a57806389a3027114610780578063c27a69f0146107a0578063c31c9c07146107c0578063ce891f99146107f457600080fd5b80636401c30c116100fd5780636401c30c146106885780636e04ff0d146106a85780637bbdb96e146106d65780637d253aff146106f65780637d4f225b1461072a57600080fd5b80635c538df3146105ba5780635e57966d146105da5780635f5bafcc146105fa5780635fbf9ba71461061a578063619656511461065057600080fd5b806341976e09116101c75780634b36c1251161018b5780634b36c125146104fd5780634caf9d0b1461052a5780634cb47e841461055757806352adc228146105845780635be6bf00146105a457600080fd5b806341976e091461043c57806341a7726a1461045c5780634398604e1461047c5780634585e33b146104b05780634ac17c25146104d057600080fd5b80632160f3f61161020e5780632160f3f6146103145780632a663606146103585780632b20e397146103a45780632fc04bf4146103d8578063382988d41461040857600080fd5b8063089fe6aa146102565780630f53a47014610285578063129552ec146102b2578063170dc660146102d45780631c8e8962146102f457600080fd5b3661025157005b600080fd5b34801561026257600080fd5b5061026c610bb881565b60405162ffffff90911681526020015b60405180910390f35b34801561029157600080fd5b506102a56102a0366004612db6565b6108ce565b60405161027c9190612e2b565b3480156102be57600080fd5b506102d26102cd366004612f19565b61097a565b005b3480156102e057600080fd5b506102a56102ef366004612f98565b6109b1565b34801561030057600080fd5b506102a561030f366004612db6565b610ab6565b34801561032057600080fd5b5061034a61032f366004612db6565b6001600160a01b031660009081526009602052604090205490565b60405190815260200161027c565b34801561036457600080fd5b5061038c7f000000000000000000000000000000000000000000000000000000000000000081565b6040516001600160a01b03909116815260200161027c565b3480156103b057600080fd5b5061038c7f000000000000000000000000000000000000000000000000000000000000000081565b3480156103e457600080fd5b506103f86103f3366004613095565b610b50565b604051901515815260200161027c565b34801561041457600080fd5b5061038c7f000000000000000000000000000000000000000000000000000000000000000081565b34801561044857600080fd5b5061034a610457366004612db6565b610c92565b34801561046857600080fd5b506102d2610477366004612db6565b610d28565b34801561048857600080fd5b5061038c7f000000000000000000000000000000000000000000000000000000000000000081565b3480156104bc57600080fd5b506102d26104cb366004613142565b610eca565b3480156104dc57600080fd5b5061034a6104eb366004612db6565b60066020526000908152604090205481565b34801561050957600080fd5b5061034a610518366004612db6565b60076020526000908152604090205481565b34801561053657600080fd5b5061054a610545366004612db6565b610f64565b60405161027c91906131b3565b34801561056357600080fd5b50610577610572366004612db6565b611053565b60405161027c9190613215565b34801561059057600080fd5b506102d261059f366004613262565b6110c8565b3480156105b057600080fd5b5061034a60025481565b3480156105c657600080fd5b506102a56105d536600461327f565b61114b565b3480156105e657600080fd5b506102a56105f5366004612db6565b611183565b34801561060657600080fd5b5061038c61061536600461327f565b61136e565b34801561062657600080fd5b5061034a610635366004612db6565b6001600160a01b031660009081526007602052604090205490565b34801561065c57600080fd5b5061067061066b366004613262565b6113a6565b6040516001600160601b03909116815260200161027c565b34801561069457600080fd5b506102d26106a3366004612f19565b61144f565b3480156106b457600080fd5b506106c86106c3366004613142565b61146f565b60405161027c9291906132ab565b3480156106e257600080fd5b5060015461038c906001600160a01b031681565b34801561070257600080fd5b5061038c7f000000000000000000000000000000000000000000000000000000000000000081565b34801561073657600080fd5b506102d26107453660046132c6565b61150f565b34801561075657600080fd5b5061034a610765366004612db6565b6001600160a01b031660009081526006602052604090205490565b34801561078c57600080fd5b5060005461038c906001600160a01b031681565b3480156107ac57600080fd5b506102d26107bb366004612db6565b611ada565b3480156107cc57600080fd5b5061038c7f000000000000000000000000000000000000000000000000000000000000000081565b34801561080057600080fd5b506102d261080f366004612f98565b33600090815260096020526040902055565b34801561082d57600080fd5b5061034a61083c36600461331c565b611b51565b34801561084d57600080fd5b5061085661202b565b60405161027c9190613425565b34801561086f57600080fd5b506102d261087e36600461347d565b6121e4565b34801561088f57600080fd5b5060025461034a565b3480156108a457600080fd5b5061034a60035481565b3480156108ba57600080fd5b506102d26108c93660046134bd565b612566565b6001600160a01b03811660009081526008602052604090208054606091906108f5906134f7565b80601f0160208091040260200160405190810160405280929190818152602001828054610921906134f7565b801561096e5780601f106109435761010080835404028352916020019161096e565b820191906000526020600020905b81548152906001019060200180831161095157829003601f168201915b50505050509050919050565b336000908152600560209081526040822080546001810182559083529181902083516109ad939190910191840190612cf5565b5050565b6060816109d55750506040805180820190915260018152600360fc1b602082015290565b8160005b81156109ff57806109e981613548565b91506109f89050600a83613579565b91506109d9565b6000816001600160401b03811115610a1957610a19612e3e565b6040519080825280601f01601f191660200182016040528015610a43576020820181803683370190505b5090505b8415610aae57610a5860018361358d565b9150610a65600a866135a4565b610a709060306135b8565b60f81b818381518110610a8557610a856135d0565b60200101906001600160f81b031916908160001a905350610aa7600a86613579565b9450610a47565b949350505050565b60086020526000908152604090208054610acf906134f7565b80601f0160208091040260200160405190810160405280929190818152602001828054610afb906134f7565b8015610b485780601f10610b1d57610100808354040283529160200191610b48565b820191906000526020600020905b815481529060010190602001808311610b2b57829003601f168201915b505050505081565b6000805b8351811015610c885760015484516001600160a01b037f000000000000000000000000000000000000000000000000000000000000000081169263ba3d69d792911690879085908110610ba957610ba96135d0565b6020026020010151610bbe87606001516109b1565b610bcb8860200151611183565b610bd88960400151611183565b610be58a608001516109b1565b610bf38b61010001516109b1565b610c018c61012001516109b1565b604051602001610c1696959493929190613602565b6040516020818303038152906040526040518463ffffffff1660e01b8152600401610c43939291906136e8565b600060405180830381600087803b158015610c5d57600080fd5b505af1158015610c71573d6000803e3d6000fd5b505050508080610c8090613548565b915050610b54565b5060019392505050565b60405163b3596f0760e01b81526001600160a01b03828116600483015260009182917f0000000000000000000000000000000000000000000000000000000000000000169063b3596f0790602401602060405180830381865afa158015610cfd573d6000803e3d6000fd5b505050506040513d601f19601f82011682018060405250810190610d21919061371d565b9392505050565b6001600160a01b0381811660009081526009602052604080822054915490516370a0823160e01b8152336004820152919216906370a0823190602401602060405180830381865afa158015610d81573d6000803e3d6000fd5b505050506040513d601f19601f82011682018060405250810190610da5919061371d565b1015610dc45760405163356680b760e01b815260040160405180910390fd5b600080546001600160a01b03838116808452600960205260409384902054935163a9059cbb60e01b815260048101919091526024810193909352169063a9059cbb906044016020604051808303816000875af1158015610e28573d6000803e3d6000fd5b505050506040513d601f19601f82011682018060405250810190610e4c9190613736565b506001600160a01b038116600081815260046020908152604080832080546001810182559084528284200180546001600160a01b031916331790558383526009825291829020548251938452908301527f4b90d6788928d63c1821907a6a8b95f40d26562d8fe41b105f7489db9966dfcb910160405180910390a150565b600080610ed983850185613758565b9150915060008160800151826101200151131580610f005750816080015182610100015112155b9050808015610f24575060008260c001516001811115610f2257610f2261335e565b145b15610f54576040820151600054610f47919085906001600160a01b0316336126e9565b50600160c0830152610f5d565b610f5d826110c8565b5050505050565b6001600160a01b0381166000908152600560209081526040808320805482518185028101850190935280835260609492939192909184015b82821015611048578382906000526020600020018054610fbb906134f7565b80601f0160208091040260200160405190810160405280929190818152602001828054610fe7906134f7565b80156110345780601f1061100957610100808354040283529160200191611034565b820191906000526020600020905b81548152906001019060200180831161101757829003601f168201915b505050505081526020019060010190610f9c565b505050509050919050565b6001600160a01b03811660009081526004602090815260409182902080548351818402810184019094528084526060939283018282801561096e57602002820191906000526020600020905b81546001600160a01b0316815260019091019060200180831161109f5750505050509050919050565b60e0810151604051636402401160e11b8152600481018290527f00000000000000000000000000000000000000000000000000000000000000006001600160a01b03169063c804802290602401600060405180830381600087803b15801561112f57600080fd5b505af1158015611143573d6000803e3d6000fd5b505050505050565b6005602052816000526040600020818154811061116757600080fd5b90600052602060002001600091509150508054610acf906134f7565b604080518082018252601081526f181899199a1a9b1b9c1cb0b131b232b360811b60208201528151602a80825260608281019094526001600160a01b0385169291600091602082018180368337019050509050600360fc1b816000815181106111ee576111ee6135d0565b60200101906001600160f81b031916908160001a905350600f60fb1b8160018151811061121d5761121d6135d0565b60200101906001600160f81b031916908160001a90535060005b6014811015611365578260048561124f84600c6135b8565b6020811061125f5761125f6135d0565b1a60f81b6001600160f81b031916901c60f81c60ff1681518110611285576112856135d0565b01602001516001600160f81b031916826112a0836002613786565b6112ab9060026135b8565b815181106112bb576112bb6135d0565b60200101906001600160f81b031916908160001a90535082846112df83600c6135b8565b602081106112ef576112ef6135d0565b825191901a600f16908110611306576113066135d0565b01602001516001600160f81b03191682611321836002613786565b61132c9060036135b8565b8151811061133c5761133c6135d0565b60200101906001600160f81b031916908160001a9053508061135d81613548565b915050611237565b50949350505050565b6004602052816000526040600020818154811061138a57600080fd5b6000918252602090912001546001600160a01b03169150829050565b60e08101516040516363e1d0cd60e11b81526000916001600160a01b037f0000000000000000000000000000000000000000000000000000000000000000169163c7c3a19a916113fc9160040190815260200190565b600060405180830381865afa158015611419573d6000803e3d6000fd5b505050506040513d6000823e601f3d908101601f1916820160405261144191908101906137e6565b509298975050505050505050565b33600090815260086020908152604090912082516109ad92840190612cf5565b600060608161148084860186613758565b915050600081608001518261012001511315806114a65750816080015182610100015112155b90508080156114ca575060008260c0015160018111156114c8576114c861335e565b145b935085858080601f0160208091040260200160405190810160405280939291908181526020018383808284376000920191909152509699929850919650505050505050565b60405163b3596f0760e01b81526001600160a01b0382811660048301526000917f00000000000000000000000000000000000000000000000000000000000000009091169063b3596f0790602401602060405180830381865afa15801561157a573d6000803e3d6000fd5b505050506040513d601f19601f8201168201806040525081019061159e919061371d565b60405163b3596f0760e01b81526001600160a01b0385811660048301529192506000917f0000000000000000000000000000000000000000000000000000000000000000169063b3596f0790602401602060405180830381865afa15801561160a573d6000803e3d6000fd5b505050506040513d601f19601f8201168201806040525081019061162e919061371d565b60405163b3596f0760e01b81526001600160a01b037f0000000000000000000000000000000000000000000000000000000000000000811660048301529192506000917f0000000000000000000000000000000000000000000000000000000000000000169063b3596f0790602401602060405180830381865afa1580156116ba573d6000803e3d6000fd5b505050506040513d601f19601f820116820180604052508101906116de919061371d565b90506000600a6116ee84846138d4565b6116f9906005613902565b61170391906138d4565b9050600061171182896135b8565b9050848a1215611734576040516359570a0160e11b815260040160405180910390fd5b84891315611755576040516359570a0160e11b815260040160405180910390fd5b6040516370a0823160e01b815233600482015281906001600160a01b038916906370a0823190602401602060405180830381865afa15801561179b573d6000803e3d6000fd5b505050506040513d601f19601f820116820180604052508101906117bf919061371d565b10156117de5760405163356680b760e01b815260040160405180910390fd5b6000600a600060025460016117f391906135b8565b81526020808201929092526040908101600020815161014081018352815460ff80821683526101009091046001600160a01b0390811695830195909552600180840154909516938201939093526002820154606082015260038201546080820152600482015460a082015260058201549093919260c085019291169081111561187e5761187e61335e565b600181111561188f5761188f61335e565b81526020016006820154815260200160078201548152602001600882015481525050905060025460016118c291906135b8565b60ff1681523360208201526001600160a01b03871660408201524260608201526080810186905260a08101899052600060c082018190525061010081018a905261012081018b90523360009081526004602090815260408083208054825181850281018501909352808352919290919083018282801561196b57602002820191906000526020600020905b81546001600160a01b0316815260019091019060200180831161194d575b50505050509050600081511115611988576119868183610b50565b505b61199d6001600160a01b038a16333086612978565b60006119ab8a8c8b306126e9565b90506000856119ba888a6138d4565b6119c49190613902565b60408051610100810182526001600160a01b03808f1682527f000000000000000000000000000000000000000000000000000000000000000081166020830152610bb88284015230606083015242608083015260a082018a905260c08201849052600060e08301819052925163414bf38960e01b815293945090927f00000000000000000000000000000000000000000000000000000000000000009091169063414bf38990611a78908590600401613987565b6020604051808303816000875af1158015611a97573d6000803e3d6000fd5b505050506040513d601f19601f82011682018060405250810190611abb919061371d565b9050611ac88185886121e4565b50505050505050505050505050505050565b60405163e71bdf4160e01b81526001600160a01b0382811660048301527f0000000000000000000000000000000000000000000000000000000000000000169063e71bdf4190602401600060405180830381600087803b158015611b3d57600080fd5b505af1158015610f5d573d6000803e3d6000fd5b6000611b686001600160a01b038516333086612978565b60405163095ea7b360e01b81526001600160a01b037f0000000000000000000000000000000000000000000000000000000000000000811660048301526024820185905285169063095ea7b3906044016020604051808303816000875af1158015611bd7573d6000803e3d6000fd5b505050506040513d601f19601f82011682018060405250810190611bfb9190613736565b5060405163b3596f0760e01b81526001600160a01b0383811660048301526000917f00000000000000000000000000000000000000000000000000000000000000009091169063b3596f0790602401602060405180830381865afa158015611c67573d6000803e3d6000fd5b505050506040513d601f19601f82011682018060405250810190611c8b919061371d565b60405163b3596f0760e01b81526001600160a01b0387811660048301529192506000917f0000000000000000000000000000000000000000000000000000000000000000169063b3596f0790602401602060405180830381865afa158015611cf7573d6000803e3d6000fd5b505050506040513d601f19601f82011682018060405250810190611d1b919061371d565b9050600085611d2a8484613579565b611d349190613786565b90506000806000600a60006002546001611d4e91906135b8565b815260200190815260200160002090506002546001611d6d91906135b8565b815460ff919091166001600160a81b031990911617610100339081029190911782556001820180546001600160a01b0319166001600160a01b038b1617905542600283015560048083018b90556003830188905560058301805460ff19169055600783018590556008830184905560009182526020908152604080832080548251818502810185019093528083529192909190830182828015611e3957602002820191906000526020600020905b81546001600160a01b03168152600190910190602001808311611e1b575b50505050509050600081511115611eff576040805161014081018252835460ff80821683526001600160a01b0361010090920482166020840152600180870154909216938301939093526002850154606083015260038501546080830152600485015460a08301526005850154611efd93859392879260c08501921690811115611ec557611ec561335e565b6001811115611ed657611ed661335e565b81526020016006820154815260200160078201548152602001600882015481525050610b50565b505b60408051610100810182526001600160a01b03808e1682528b81166020830152610bb88284015233606083015242608083015260a082018d905260c08201889052600060e0830152915163414bf38960e01b815290917f0000000000000000000000000000000000000000000000000000000000000000169063414bf38990611f8c908490600401613987565b6020604051808303816000875af1158015611fab573d6000803e3d6000fd5b505050506040513d601f19601f82011682018060405250810190611fcf919061371d565b60058401805460ff191660019081179091553360009081526007602052604081208054939c5091926120029084906135b8565b90915550506002805490600061201783613548565b919050555050505050505050509392505050565b6002546060906000816001600160401b0381111561204b5761204b612e3e565b6040519080825280602002602001820160405280156120d257816020015b6120bf6040805161014081018252600080825260208201819052918101829052606081018290526080810182905260a081018290529060c082019081526020016000815260200160008152602001600081525090565b8152602001906001900390816120695790505b50905060005b828110156121dd57600a60006120ef8360016135b8565b81526020808201929092526040908101600020815161014081018352815460ff80821683526101009091046001600160a01b0390811695830195909552600180840154909516938201939093526002820154606082015260038201546080820152600482015460a082015260058201549093919260c085019291169081111561217a5761217a61335e565b600181111561218b5761218b61335e565b815260200160068201548152602001600782015481526020016008820154815250508282815181106121bf576121bf6135d0565b602002602001018190525080806121d590613548565b9150506120d8565b5092915050565b600082826040516020016121f99291906139f0565b604051602081830303815290604052905060007f00000000000000000000000000000000000000000000000000000000000000006001600160a01b0316631865c57d6040518163ffffffff1660e01b8152600401600060405180830381865afa15801561226a573d6000803e3d6000fd5b505050506040513d6000823e601f3d908101601f191682016040526122929190810190613a99565b5050805160405191925063ffffffff16906000906122c290309061270f90339088908c9087908690602001613c10565b60405160208183030381529060405290507f00000000000000000000000000000000000000000000000000000000000000006001600160a01b0316634000aea07f000000000000000000000000000000000000000000000000000000000000000089600b60009054906101000a900460e01b85604051602001612346929190613cd1565b6040516020818303038152906040526040518463ffffffff1660e01b815260040161237393929190613d02565b6020604051808303816000875af1158015612392573d6000803e3d6000fd5b505050506040513d601f19601f820116820180604052508101906123b69190613736565b507f00000000000000000000000000000000000000000000000000000000000000006001600160a01b0316631865c57d6040518163ffffffff1660e01b8152600401600060405180830381865afa158015612415573d6000803e3d6000fd5b505050506040513d6000823e601f3d908101601f1916820160405261243d9190810190613a99565b5050805190935063ffffffff166124558360016135b8565b81141561251757600061246960014361358d565b60408051914060208301526bffffffffffffffffffffffff197f000000000000000000000000000000000000000000000000000000000000000060601b16908201526001600160e01b031960e086901b16605482015260580160408051601f19818403018152918152815160209092019190912060e08901819052905190915081907f63410b84334e1011f4c6e94909882bd236426deb3c6a08c13ec54cedad72d43c90600090a25061255c565b60405162461bcd60e51b8152602060048201526015602482015274185d5d1bcb585c1c1c9bdd9948191a5cd8589b1959605a1b60448201526064015b60405180910390fd5b5050505050505050565b6040516370a0823160e01b81523360048201526001600160601b038216907f00000000000000000000000000000000000000000000000000000000000000006001600160a01b0316906370a0823190602401602060405180830381865afa1580156125d5573d6000803e3d6000fd5b505050506040513d601f19601f820116820180604052508101906125f9919061371d565b10156126185760405163356680b760e01b815260040160405180910390fd5b6126566001600160a01b037f00000000000000000000000000000000000000000000000000000000000000001633306001600160601b038516612978565b60e082015160405163948108f760e01b8152600481018290526001600160601b03831660248201527f00000000000000000000000000000000000000000000000000000000000000006001600160a01b03169063948108f790604401600060405180830381600087803b1580156126cc57600080fd5b505af11580156126e0573d6000803e3d6000fd5b50505050505050565b600061271f6001600160a01b0386167f0000000000000000000000000000000000000000000000000000000000000000866129e9565b60405163b3596f0760e01b81526001600160a01b0384811660048301526000917f00000000000000000000000000000000000000000000000000000000000000009091169063b3596f0790602401602060405180830381865afa15801561278a573d6000803e3d6000fd5b505050506040513d601f19601f820116820180604052508101906127ae919061371d565b60405163b3596f0760e01b81526001600160a01b0388811660048301529192506000917f0000000000000000000000000000000000000000000000000000000000000000169063b3596f0790602401602060405180830381865afa15801561281a573d6000803e3d6000fd5b505050506040513d601f19601f8201168201806040525081019061283e919061371d565b905060008661284d8484613579565b6128579190613786565b60408051610100810182526001600160a01b03808c1682528981166020830152610bb882840152888116606083015242608083015260a082018b905260c08201849052600060e0830152915163414bf38960e01b8152929350917f00000000000000000000000000000000000000000000000000000000000000009091169063414bf389906128ea908490600401613987565b6020604051808303816000875af1158015612909573d6000803e3d6000fd5b505050506040513d601f19601f8201168201806040525081019061292d919061371d565b33600090815260076020526040812080549297506001929091906129529084906135b8565b90915550506002805490600061296783613548565b919050555050505050949350505050565b6040516001600160a01b03808516602483015283166044820152606481018290526129e39085906323b872dd60e01b906084015b60408051601f198184030181529190526020810180516001600160e01b03166001600160e01b031990931692909217909152612b03565b50505050565b801580612a635750604051636eb1769f60e11b81523060048201526001600160a01b03838116602483015284169063dd62ed3e90604401602060405180830381865afa158015612a3d573d6000803e3d6000fd5b505050506040513d601f19601f82011682018060405250810190612a61919061371d565b155b612ace5760405162461bcd60e51b815260206004820152603660248201527f5361666545524332303a20617070726f76652066726f6d206e6f6e2d7a65726f60448201527520746f206e6f6e2d7a65726f20616c6c6f77616e636560501b6064820152608401612553565b6040516001600160a01b038316602482015260448101829052612afe90849063095ea7b360e01b906064016129ac565b505050565b6000612b58826040518060400160405280602081526020017f5361666545524332303a206c6f772d6c6576656c2063616c6c206661696c6564815250856001600160a01b0316612bd59092919063ffffffff16565b805190915015612afe5780806020019051810190612b769190613736565b612afe5760405162461bcd60e51b815260206004820152602a60248201527f5361666545524332303a204552433230206f7065726174696f6e20646964206e6044820152691bdd081cdd58d8d9595960b21b6064820152608401612553565b6060610aae848460008585600080866001600160a01b03168587604051612bfc9190613d35565b60006040518083038185875af1925050503d8060008114612c39576040519150601f19603f3d011682016040523d82523d6000602084013e612c3e565b606091505b5091509150612c4f87838387612c5a565b979650505050505050565b60608315612cc6578251612cbf576001600160a01b0385163b612cbf5760405162461bcd60e51b815260206004820152601d60248201527f416464726573733a2063616c6c20746f206e6f6e2d636f6e74726163740000006044820152606401612553565b5081610aae565b610aae8383815115612cdb5781518083602001fd5b8060405162461bcd60e51b81526004016125539190612e2b565b828054612d01906134f7565b90600052602060002090601f016020900481019282612d235760008555612d69565b82601f10612d3c57805160ff1916838001178555612d69565b82800160010185558215612d69579182015b82811115612d69578251825591602001919060010190612d4e565b50612d75929150612d79565b5090565b5b80821115612d755760008155600101612d7a565b6001600160a01b0381168114612da357600080fd5b50565b8035612db181612d8e565b919050565b600060208284031215612dc857600080fd5b8135610d2181612d8e565b60005b83811015612dee578181015183820152602001612dd6565b838111156129e35750506000910152565b60008151808452612e17816020860160208601612dd3565b601f01601f19169290920160200192915050565b602081526000610d216020830184612dff565b634e487b7160e01b600052604160045260246000fd5b60405161014081016001600160401b0381118282101715612e7757612e77612e3e565b60405290565b604051608081016001600160401b0381118282101715612e7757612e77612e3e565b60405161018081016001600160401b0381118282101715612e7757612e77612e3e565b604051601f8201601f191681016001600160401b0381118282101715612eea57612eea612e3e565b604052919050565b60006001600160401b03821115612f0b57612f0b612e3e565b50601f01601f191660200190565b600060208284031215612f2b57600080fd5b81356001600160401b03811115612f4157600080fd5b8201601f81018413612f5257600080fd5b8035612f65612f6082612ef2565b612ec2565b818152856020838501011115612f7a57600080fd5b81602084016020830137600091810160200191909152949350505050565b600060208284031215612faa57600080fd5b5035919050565b60006001600160401b03821115612fca57612fca612e3e565b5060051b60200190565b803560ff81168114612db157600080fd5b803560028110612db157600080fd5b6000610140828403121561300757600080fd5b61300f612e54565b905061301a82612fd4565b815261302860208301612da6565b602082015261303960408301612da6565b6040820152606082013560608201526080820135608082015260a082013560a082015261306860c08301612fe5565b60c082015260e082013560e082015261010080830135818301525061012080830135818301525092915050565b60008061016083850312156130a957600080fd5b82356001600160401b038111156130bf57600080fd5b8301601f810185136130d057600080fd5b803560206130e0612f6083612fb1565b82815260059290921b830181019181810190888411156130ff57600080fd5b938201935b8385101561312657843561311781612d8e565b82529382019390820190613104565b9550613136905087878301612ff4565b93505050509250929050565b6000806020838503121561315557600080fd5b82356001600160401b038082111561316c57600080fd5b818501915085601f83011261318057600080fd5b81358181111561318f57600080fd5b8660208285010111156131a157600080fd5b60209290920196919550909350505050565b6000602080830181845280855180835260408601915060408160051b870101925083870160005b8281101561320857603f198886030184526131f6858351612dff565b945092850192908501906001016131da565b5092979650505050505050565b6020808252825182820181905260009190848201906040850190845b818110156132565783516001600160a01b031683529284019291840191600101613231565b50909695505050505050565b6000610140828403121561327557600080fd5b610d218383612ff4565b6000806040838503121561329257600080fd5b823561329d81612d8e565b946020939093013593505050565b8215158152604060208201526000610aae6040830184612dff565b600080600080600060a086880312156132de57600080fd5b85359450602086013593506040860135925060608601356132fe81612d8e565b9150608086013561330e81612d8e565b809150509295509295909350565b60008060006060848603121561333157600080fd5b833561333c81612d8e565b925060208401359150604084013561335381612d8e565b809150509250925092565b634e487b7160e01b600052602160045260246000fd5b6002811061339257634e487b7160e01b600052602160045260246000fd5b9052565b805160ff16825260208101516133b760208401826001600160a01b03169052565b5060408101516133d260408401826001600160a01b03169052565b50606081015160608301526080810151608083015260a081015160a083015260c081015161340360c0840182613374565b5060e08181015190830152610100808201519083015261012090810151910152565b6020808252825182820181905260009190848201906040850190845b8181101561325657613454838551613396565b928401926101409290920191600101613441565b6001600160601b0381168114612da357600080fd5b6000806000610180848603121561349357600080fd5b833561349e81613468565b9250602084013591506134b48560408601612ff4565b90509250925092565b60008061016083850312156134d157600080fd5b6134db8484612ff4565b91506101408301356134ec81613468565b809150509250929050565b600181811c9082168061350b57607f821691505b6020821081141561352c57634e487b7160e01b600052602260045260246000fd5b50919050565b634e487b7160e01b600052601160045260246000fd5b600060001982141561355c5761355c613532565b5060010190565b634e487b7160e01b600052601260045260246000fd5b60008261358857613588613563565b500490565b60008282101561359f5761359f613532565b500390565b6000826135b3576135b3613563565b500690565b600082198211156135cb576135cb613532565b500190565b634e487b7160e01b600052603260045260246000fd5b600081516135f8818560208601612dd3565b9290920192915050565b600360fc1b81526000602b60f81b806001840152603360f81b6002840152806003840152506914ddd85c08105b195c9d60b21b6004830152875161364d81600e850160208c01612dd3565b601d60f91b600e91840191820152875161366e81600f840160208c01612dd3565b65189bdd59da1d60d21b600f92909101918201528651613695816015840160208b01612dd3565b6136da6136d46136ce6136be6136b860158688010161185d60f21b815260020190565b8b6135e6565b630eed2e8d60e31b815260040190565b886135e6565b866135e6565b9a9950505050505050505050565b6001600160a01b0384811682528316602082015260606040820181905260009061371490830184612dff565b95945050505050565b60006020828403121561372f57600080fd5b5051919050565b60006020828403121561374857600080fd5b81518015158114610d2157600080fd5b600080610160838503121561376c57600080fd5b8235915061377d8460208501612ff4565b90509250929050565b60008160001904831182151516156137a0576137a0613532565b500290565b8051612db181612d8e565b805163ffffffff81168114612db157600080fd5b8051612db181613468565b80516001600160401b0381168114612db157600080fd5b600080600080600080600080610100898b03121561380357600080fd5b885161380e81612d8e565b975061381c60208a016137b0565b965060408901516001600160401b0381111561383757600080fd5b8901601f81018b1361384857600080fd5b8051613856612f6082612ef2565b8181528c602083850101111561386b57600080fd5b61387c826020830160208601612dd3565b975061388d91505060608a016137c4565b945061389b60808a016137a5565b93506138a960a08a016137a5565b92506138b760c08a016137cf565b91506138c560e08a016137c4565b90509295985092959890939650565b6000826138e3576138e3613563565b600160ff1b8214600019841416156138fd576138fd613532565b500590565b60006001600160ff1b038184138284138082168684048611161561392857613928613532565b600160ff1b600087128281168783058912161561394757613947613532565b6000871292508782058712848416161561396357613963613532565b8785058712818416161561397957613979613532565b505050929093029392505050565b81516001600160a01b03908116825260208084015182169083015260408084015162ffffff16908301526060808401518216908301526080808401519083015260a0838101519083015260c0808401519083015260e09283015116918101919091526101000190565b8281526101608101610d216020830184613396565b805162ffffff81168114612db157600080fd5b805161ffff81168114612db157600080fd5b600082601f830112613a3b57600080fd5b81516020613a4b612f6083612fb1565b82815260059290921b84018101918181019086841115613a6a57600080fd5b8286015b84811015613a8e578051613a8181612d8e565b8352918301918301613a6e565b509695505050505050565b6000806000838503610220811215613ab057600080fd5b6080811215613abe57600080fd5b613ac6612e7d565b613acf866137b0565b81526020860151613adf81613468565b602082015260408681015190820152606080870151908201529350610180607f198201811315613b0e57600080fd5b613b16612e9f565b9150613b24608087016137b0565b8252613b3260a087016137b0565b6020830152613b4360c08701613a05565b6040830152613b5460e087016137b0565b6060830152610100613b67818801613a05565b6080840152610120613b7a818901613a18565b60a0850152610140613b8d818a016137c4565b60c0860152610160613ba0818b016137b0565b60e0870152848a0151848701526101a08a015183870152613bc46101c08b016137a5565b82870152613bd56101e08b016137a5565b90860152505050506102008501519092506001600160401b03811115613bfa57600080fd5b613c0686828701613a2a565b9150509250925092565b6101208082526013908201527254726164654775696465204175746f6d61746560681b6101408201526101606020820181905260029082015261060f60f31b6101808201526001600160a01b038816604082015261ffff8716606082015260006101a06001600160a01b03881660808401528060a0840152613c9481840188612dff565b915050613cac60c08301866001600160601b03169052565b60ff841660e08301526001600160a01b03831661010083015298975050505050505050565b6001600160e01b0319831681528151600090613cf4816004850160208701612dd3565b919091016004019392505050565b6001600160a01b03841681526001600160601b038316602082015260606040820181905260009061371490830184612dff565b60008251613d47818460208701612dd3565b919091019291505056fea2646970667358221220acd0f6d58d025e77e53eaf2e1e851269f563ae161e685a4f2d257c40c252d68864736f6c634300080a0033"
}