{
  "address": "0x9D4de7eC9F0766Beb801993463508e0B5F2802a4",
  "abi": [
    {
      "inputs": [
        {
          "internalType": "contract ISwapRouter",
          "name": "_swapRouter",
          "type": "address"
        },
        {
          "internalType": "contract LinkTokenInterface",
          "name": "_link",
          "type": "address"
        },
        {
          "internalType": "address",
          "name": "_registrar",
          "type": "address"
        },
        {
          "internalType": "contract IPriceOracle",
          "name": "_oracleAddress",
          "type": "address"
        },
        {
          "internalType": "contract AutomationRegistryInterface",
          "name": "_registry",
          "type": "address"
        },
        {
          "internalType": "contract IEPNSCommInterface",
          "name": "epnsComms",
          "type": "address"
        },
        {
          "internalType": "address",
          "name": "_channel",
          "type": "address"
        }
      ],
      "stateMutability": "nonpayable",
      "type": "constructor"
    },
    {
      "inputs": [],
      "name": "InsufficientFunds",
      "type": "error"
    },
    {
      "inputs": [],
      "name": "InvalidTPOrSL",
      "type": "error"
    },
    {
      "anonymous": false,
      "inputs": [
        {
          "indexed": false,
          "internalType": "address",
          "name": "to",
          "type": "address"
        },
        {
          "indexed": false,
          "internalType": "uint256",
          "name": "amount",
          "type": "uint256"
        }
      ],
      "name": "Subscribed",
      "type": "event"
    },
    {
      "anonymous": false,
      "inputs": [
        {
          "indexed": false,
          "internalType": "address",
          "name": "_tokenIn",
          "type": "address"
        },
        {
          "indexed": false,
          "internalType": "uint256",
          "name": "_price",
          "type": "uint256"
        }
      ],
      "name": "Swapped",
      "type": "event"
    },
    {
      "anonymous": false,
      "inputs": [
        {
          "indexed": true,
          "internalType": "uint256",
          "name": "upkeedId",
          "type": "uint256"
        }
      ],
      "name": "UpkeepID",
      "type": "event"
    },
    {
      "inputs": [],
      "name": "USDC",
      "outputs": [
        {
          "internalType": "address",
          "name": "",
          "type": "address"
        }
      ],
      "stateMutability": "view",
      "type": "function"
    },
    {
      "inputs": [],
      "name": "_epnsComms",
      "outputs": [
        {
          "internalType": "contract IEPNSCommInterface",
          "name": "",
          "type": "address"
        }
      ],
      "stateMutability": "view",
      "type": "function"
    },
    {
      "inputs": [
        {
          "internalType": "string",
          "name": "link",
          "type": "string"
        }
      ],
      "name": "addAPost",
      "outputs": [],
      "stateMutability": "nonpayable",
      "type": "function"
    },
    {
      "inputs": [
        {
          "internalType": "address",
          "name": "_delegate",
          "type": "address"
        }
      ],
      "name": "addAdelegate",
      "outputs": [],
      "stateMutability": "nonpayable",
      "type": "function"
    },
    {
      "inputs": [
        {
          "components": [
            {
              "internalType": "uint8",
              "name": "index",
              "type": "uint8"
            },
            {
              "internalType": "address",
              "name": "trader",
              "type": "address"
            },
            {
              "internalType": "address",
              "name": "tokenBought",
              "type": "address"
            },
            {
              "internalType": "uint256",
              "name": "timeStamp",
              "type": "uint256"
            },
            {
              "internalType": "int256",
              "name": "buyPrice",
              "type": "int256"
            },
            {
              "internalType": "uint256",
              "name": "amount",
              "type": "uint256"
            },
            {
              "internalType": "enum TradeGuideStorage.TradeState",
              "name": "_tradeState",
              "type": "uint8"
            },
            {
              "internalType": "uint256",
              "name": "upkeepID",
              "type": "uint256"
            },
            {
              "internalType": "int256",
              "name": "sl",
              "type": "int256"
            },
            {
              "internalType": "int256",
              "name": "tp",
              "type": "int256"
            }
          ],
          "internalType": "struct TradeGuideStorage.TradeLog",
          "name": "_tradeLog",
          "type": "tuple"
        },
        {
          "internalType": "uint96",
          "name": "amount",
          "type": "uint96"
        }
      ],
      "name": "addFundsByID",
      "outputs": [],
      "stateMutability": "nonpayable",
      "type": "function"
    },
    {
      "inputs": [
        {
          "internalType": "address",
          "name": "_address",
          "type": "address"
        }
      ],
      "name": "addressToString",
      "outputs": [
        {
          "internalType": "string",
          "name": "",
          "type": "string"
        }
      ],
      "stateMutability": "pure",
      "type": "function"
    },
    {
      "inputs": [
        {
          "components": [
            {
              "internalType": "uint8",
              "name": "index",
              "type": "uint8"
            },
            {
              "internalType": "address",
              "name": "trader",
              "type": "address"
            },
            {
              "internalType": "address",
              "name": "tokenBought",
              "type": "address"
            },
            {
              "internalType": "uint256",
              "name": "timeStamp",
              "type": "uint256"
            },
            {
              "internalType": "int256",
              "name": "buyPrice",
              "type": "int256"
            },
            {
              "internalType": "uint256",
              "name": "amount",
              "type": "uint256"
            },
            {
              "internalType": "enum TradeGuideStorage.TradeState",
              "name": "_tradeState",
              "type": "uint8"
            },
            {
              "internalType": "uint256",
              "name": "upkeepID",
              "type": "uint256"
            },
            {
              "internalType": "int256",
              "name": "sl",
              "type": "int256"
            },
            {
              "internalType": "int256",
              "name": "tp",
              "type": "int256"
            }
          ],
          "internalType": "struct TradeGuideStorage.TradeLog",
          "name": "_tradeLog",
          "type": "tuple"
        }
      ],
      "name": "cancelUpkeepById",
      "outputs": [],
      "stateMutability": "nonpayable",
      "type": "function"
    },
    {
      "inputs": [],
      "name": "channel",
      "outputs": [
        {
          "internalType": "address",
          "name": "",
          "type": "address"
        }
      ],
      "stateMutability": "view",
      "type": "function"
    },
    {
      "inputs": [
        {
          "internalType": "bytes",
          "name": "checkData",
          "type": "bytes"
        }
      ],
      "name": "checkUpkeep",
      "outputs": [
        {
          "internalType": "bool",
          "name": "upkeepNeeded",
          "type": "bool"
        },
        {
          "internalType": "bytes",
          "name": "performData",
          "type": "bytes"
        }
      ],
      "stateMutability": "view",
      "type": "function"
    },
    {
      "inputs": [
        {
          "internalType": "address",
          "name": "user",
          "type": "address"
        }
      ],
      "name": "getNoSubscribers",
      "outputs": [
        {
          "internalType": "uint256",
          "name": "",
          "type": "uint256"
        }
      ],
      "stateMutability": "view",
      "type": "function"
    },
    {
      "inputs": [
        {
          "internalType": "address",
          "name": "user",
          "type": "address"
        }
      ],
      "name": "getNoTrades",
      "outputs": [
        {
          "internalType": "uint256",
          "name": "",
          "type": "uint256"
        }
      ],
      "stateMutability": "view",
      "type": "function"
    },
    {
      "inputs": [
        {
          "internalType": "address",
          "name": "user",
          "type": "address"
        }
      ],
      "name": "getPosts",
      "outputs": [
        {
          "internalType": "string[]",
          "name": "",
          "type": "string[]"
        }
      ],
      "stateMutability": "view",
      "type": "function"
    },
    {
      "inputs": [
        {
          "internalType": "address",
          "name": "_token",
          "type": "address"
        }
      ],
      "name": "getPrice",
      "outputs": [
        {
          "internalType": "uint256",
          "name": "",
          "type": "uint256"
        }
      ],
      "stateMutability": "view",
      "type": "function"
    },
    {
      "inputs": [
        {
          "internalType": "address",
          "name": "user",
          "type": "address"
        }
      ],
      "name": "getProfile",
      "outputs": [
        {
          "internalType": "string",
          "name": "",
          "type": "string"
        }
      ],
      "stateMutability": "view",
      "type": "function"
    },
    {
      "inputs": [
        {
          "internalType": "address",
          "name": "user",
          "type": "address"
        }
      ],
      "name": "getSubcribers",
      "outputs": [
        {
          "internalType": "address[]",
          "name": "",
          "type": "address[]"
        }
      ],
      "stateMutability": "view",
      "type": "function"
    },
    {
      "inputs": [
        {
          "internalType": "address",
          "name": "user",
          "type": "address"
        }
      ],
      "name": "getSubscribersFee",
      "outputs": [
        {
          "internalType": "uint256",
          "name": "",
          "type": "uint256"
        }
      ],
      "stateMutability": "view",
      "type": "function"
    },
    {
      "inputs": [],
      "name": "getTotalTrades",
      "outputs": [
        {
          "internalType": "uint256",
          "name": "",
          "type": "uint256"
        }
      ],
      "stateMutability": "view",
      "type": "function"
    },
    {
      "inputs": [],
      "name": "getTrades",
      "outputs": [
        {
          "components": [
            {
              "internalType": "uint8",
              "name": "index",
              "type": "uint8"
            },
            {
              "internalType": "address",
              "name": "trader",
              "type": "address"
            },
            {
              "internalType": "address",
              "name": "tokenBought",
              "type": "address"
            },
            {
              "internalType": "uint256",
              "name": "timeStamp",
              "type": "uint256"
            },
            {
              "internalType": "int256",
              "name": "buyPrice",
              "type": "int256"
            },
            {
              "internalType": "uint256",
              "name": "amount",
              "type": "uint256"
            },
            {
              "internalType": "enum TradeGuideStorage.TradeState",
              "name": "_tradeState",
              "type": "uint8"
            },
            {
              "internalType": "uint256",
              "name": "upkeepID",
              "type": "uint256"
            },
            {
              "internalType": "int256",
              "name": "sl",
              "type": "int256"
            },
            {
              "internalType": "int256",
              "name": "tp",
              "type": "int256"
            }
          ],
          "internalType": "struct TradeGuideStorage.TradeLog[]",
          "name": "",
          "type": "tuple[]"
        }
      ],
      "stateMutability": "view",
      "type": "function"
    },
    {
      "inputs": [
        {
          "components": [
            {
              "internalType": "uint8",
              "name": "index",
              "type": "uint8"
            },
            {
              "internalType": "address",
              "name": "trader",
              "type": "address"
            },
            {
              "internalType": "address",
              "name": "tokenBought",
              "type": "address"
            },
            {
              "internalType": "uint256",
              "name": "timeStamp",
              "type": "uint256"
            },
            {
              "internalType": "int256",
              "name": "buyPrice",
              "type": "int256"
            },
            {
              "internalType": "uint256",
              "name": "amount",
              "type": "uint256"
            },
            {
              "internalType": "enum TradeGuideStorage.TradeState",
              "name": "_tradeState",
              "type": "uint8"
            },
            {
              "internalType": "uint256",
              "name": "upkeepID",
              "type": "uint256"
            },
            {
              "internalType": "int256",
              "name": "sl",
              "type": "int256"
            },
            {
              "internalType": "int256",
              "name": "tp",
              "type": "int256"
            }
          ],
          "internalType": "struct TradeGuideStorage.TradeLog",
          "name": "_tradeLog",
          "type": "tuple"
        }
      ],
      "name": "getUpkeepInfo",
      "outputs": [
        {
          "internalType": "address",
          "name": "target",
          "type": "address"
        },
        {
          "internalType": "uint32",
          "name": "executeGas",
          "type": "uint32"
        },
        {
          "internalType": "bytes",
          "name": "checkData",
          "type": "bytes"
        },
        {
          "internalType": "uint96",
          "name": "balance",
          "type": "uint96"
        },
        {
          "internalType": "address",
          "name": "admin",
          "type": "address"
        },
        {
          "internalType": "uint96",
          "name": "amountSpent",
          "type": "uint96"
        }
      ],
      "stateMutability": "view",
      "type": "function"
    },
    {
      "inputs": [],
      "name": "i_link",
      "outputs": [
        {
          "internalType": "contract LinkTokenInterface",
          "name": "",
          "type": "address"
        }
      ],
      "stateMutability": "view",
      "type": "function"
    },
    {
      "inputs": [],
      "name": "i_registry",
      "outputs": [
        {
          "internalType": "contract AutomationRegistryInterface",
          "name": "",
          "type": "address"
        }
      ],
      "stateMutability": "view",
      "type": "function"
    },
    {
      "inputs": [
        {
          "internalType": "address",
          "name": "",
          "type": "address"
        }
      ],
      "name": "noOfSubscribers",
      "outputs": [
        {
          "internalType": "uint256",
          "name": "",
          "type": "uint256"
        }
      ],
      "stateMutability": "view",
      "type": "function"
    },
    {
      "inputs": [
        {
          "internalType": "address",
          "name": "",
          "type": "address"
        }
      ],
      "name": "noOfTrades",
      "outputs": [
        {
          "internalType": "uint256",
          "name": "",
          "type": "uint256"
        }
      ],
      "stateMutability": "view",
      "type": "function"
    },
    {
      "inputs": [
        {
          "internalType": "uint256",
          "name": "_number",
          "type": "uint256"
        }
      ],
      "name": "numberToString",
      "outputs": [
        {
          "internalType": "string",
          "name": "",
          "type": "string"
        }
      ],
      "stateMutability": "pure",
      "type": "function"
    },
    {
      "inputs": [],
      "name": "oracleAdress",
      "outputs": [
        {
          "internalType": "contract IPriceOracle",
          "name": "",
          "type": "address"
        }
      ],
      "stateMutability": "view",
      "type": "function"
    },
    {
      "inputs": [
        {
          "internalType": "bytes",
          "name": "performData",
          "type": "bytes"
        }
      ],
      "name": "performUpkeep",
      "outputs": [],
      "stateMutability": "nonpayable",
      "type": "function"
    },
    {
      "inputs": [],
      "name": "poolFee",
      "outputs": [
        {
          "internalType": "uint24",
          "name": "",
          "type": "uint24"
        }
      ],
      "stateMutability": "view",
      "type": "function"
    },
    {
      "inputs": [
        {
          "internalType": "address",
          "name": "",
          "type": "address"
        },
        {
          "internalType": "uint256",
          "name": "",
          "type": "uint256"
        }
      ],
      "name": "posts",
      "outputs": [
        {
          "internalType": "string",
          "name": "",
          "type": "string"
        }
      ],
      "stateMutability": "view",
      "type": "function"
    },
    {
      "inputs": [
        {
          "internalType": "uint96",
          "name": "amount",
          "type": "uint96"
        },
        {
          "internalType": "uint256",
          "name": "_amountOut",
          "type": "uint256"
        },
        {
          "components": [
            {
              "internalType": "uint8",
              "name": "index",
              "type": "uint8"
            },
            {
              "internalType": "address",
              "name": "trader",
              "type": "address"
            },
            {
              "internalType": "address",
              "name": "tokenBought",
              "type": "address"
            },
            {
              "internalType": "uint256",
              "name": "timeStamp",
              "type": "uint256"
            },
            {
              "internalType": "int256",
              "name": "buyPrice",
              "type": "int256"
            },
            {
              "internalType": "uint256",
              "name": "amount",
              "type": "uint256"
            },
            {
              "internalType": "enum TradeGuideStorage.TradeState",
              "name": "_tradeState",
              "type": "uint8"
            },
            {
              "internalType": "uint256",
              "name": "upkeepID",
              "type": "uint256"
            },
            {
              "internalType": "int256",
              "name": "sl",
              "type": "int256"
            },
            {
              "internalType": "int256",
              "name": "tp",
              "type": "int256"
            }
          ],
          "internalType": "struct TradeGuideStorage.TradeLog",
          "name": "_tradeLog",
          "type": "tuple"
        }
      ],
      "name": "registerAndPredictID",
      "outputs": [],
      "stateMutability": "nonpayable",
      "type": "function"
    },
    {
      "inputs": [],
      "name": "registrar",
      "outputs": [
        {
          "internalType": "address",
          "name": "",
          "type": "address"
        }
      ],
      "stateMutability": "view",
      "type": "function"
    },
    {
      "inputs": [
        {
          "internalType": "address[]",
          "name": "_to",
          "type": "address[]"
        },
        {
          "components": [
            {
              "internalType": "uint8",
              "name": "index",
              "type": "uint8"
            },
            {
              "internalType": "address",
              "name": "trader",
              "type": "address"
            },
            {
              "internalType": "address",
              "name": "tokenBought",
              "type": "address"
            },
            {
              "internalType": "uint256",
              "name": "timeStamp",
              "type": "uint256"
            },
            {
              "internalType": "int256",
              "name": "buyPrice",
              "type": "int256"
            },
            {
              "internalType": "uint256",
              "name": "amount",
              "type": "uint256"
            },
            {
              "internalType": "enum TradeGuideStorage.TradeState",
              "name": "_tradeState",
              "type": "uint8"
            },
            {
              "internalType": "uint256",
              "name": "upkeepID",
              "type": "uint256"
            },
            {
              "internalType": "int256",
              "name": "sl",
              "type": "int256"
            },
            {
              "internalType": "int256",
              "name": "tp",
              "type": "int256"
            }
          ],
          "internalType": "struct TradeGuideStorage.TradeLog",
          "name": "_tradeLog",
          "type": "tuple"
        }
      ],
      "name": "sendNotif",
      "outputs": [
        {
          "internalType": "bool",
          "name": "",
          "type": "bool"
        }
      ],
      "stateMutability": "nonpayable",
      "type": "function"
    },
    {
      "inputs": [
        {
          "internalType": "uint256",
          "name": "fee",
          "type": "uint256"
        }
      ],
      "name": "setSubscribersFee",
      "outputs": [],
      "stateMutability": "nonpayable",
      "type": "function"
    },
    {
      "inputs": [
        {
          "internalType": "string",
          "name": "userLink",
          "type": "string"
        }
      ],
      "name": "setUserProfile",
      "outputs": [],
      "stateMutability": "nonpayable",
      "type": "function"
    },
    {
      "inputs": [
        {
          "internalType": "address",
          "name": "_to",
          "type": "address"
        }
      ],
      "name": "subscribe",
      "outputs": [],
      "stateMutability": "nonpayable",
      "type": "function"
    },
    {
      "inputs": [
        {
          "internalType": "address",
          "name": "",
          "type": "address"
        },
        {
          "internalType": "uint256",
          "name": "",
          "type": "uint256"
        }
      ],
      "name": "subscribers",
      "outputs": [
        {
          "internalType": "address",
          "name": "",
          "type": "address"
        }
      ],
      "stateMutability": "view",
      "type": "function"
    },
    {
      "inputs": [
        {
          "internalType": "address",
          "name": "_tokenIn",
          "type": "address"
        },
        {
          "internalType": "uint256",
          "name": "amountIn",
          "type": "uint256"
        },
        {
          "internalType": "address",
          "name": "_tokenOut",
          "type": "address"
        }
      ],
      "name": "swapExactInputSingleAlone",
      "outputs": [
        {
          "internalType": "uint256",
          "name": "amountOut",
          "type": "uint256"
        }
      ],
      "stateMutability": "nonpayable",
      "type": "function"
    },
    {
      "inputs": [],
      "name": "swapRouter",
      "outputs": [
        {
          "internalType": "contract ISwapRouter",
          "name": "",
          "type": "address"
        }
      ],
      "stateMutability": "view",
      "type": "function"
    },
    {
      "inputs": [],
      "name": "totalOfTrades",
      "outputs": [
        {
          "internalType": "uint256",
          "name": "",
          "type": "uint256"
        }
      ],
      "stateMutability": "view",
      "type": "function"
    },
    {
      "inputs": [
        {
          "internalType": "int256",
          "name": "tp",
          "type": "int256"
        },
        {
          "internalType": "int256",
          "name": "sl",
          "type": "int256"
        },
        {
          "internalType": "uint256",
          "name": "amountIn",
          "type": "uint256"
        },
        {
          "internalType": "address",
          "name": "_tokenIn",
          "type": "address"
        },
        {
          "internalType": "address",
          "name": "_tokenOut",
          "type": "address"
        }
      ],
      "name": "useTPandSL",
      "outputs": [],
      "stateMutability": "nonpayable",
      "type": "function"
    },
    {
      "inputs": [
        {
          "internalType": "address",
          "name": "",
          "type": "address"
        }
      ],
      "name": "userProfile",
      "outputs": [
        {
          "internalType": "string",
          "name": "",
          "type": "string"
        }
      ],
      "stateMutability": "view",
      "type": "function"
    },
    {
      "inputs": [],
      "name": "users",
      "outputs": [
        {
          "internalType": "uint256",
          "name": "",
          "type": "uint256"
        }
      ],
      "stateMutability": "view",
      "type": "function"
    },
    {
      "stateMutability": "payable",
      "type": "receive"
    }
  ],
  "transactionHash": "0x0d7a38a5198b1185e3757cdc7936f4c2c45c52863490b4c576d289648d71ee98",
  "args": [
    "0xE592427A0AEce92De3Edee1F18E0157C05861564",
    "0x326C977E6efc84E512bB9C30f76E30c160eD06FB",
    "0x57A4a13b35d25EE78e084168aBaC5ad360252467",
    "0xf0E6744a59177014738e1eF920dc676fb3b8CB62",
    "0xE16Df59B887e3Caa439E0b29B42bA2e7976FD8b2",
    "0xb3971BCef2D791bc4027BbfedFb47319A4AAaaAa",
    "0x12114765eeA16473363682Cf832F5603BB8f6110"
  ],
  "numDeployments": 3,
  "solcInputHash": "c349866907bba4981149893c356c000a",
  "bytecode": "0x61014060405260006002819055600355600b805463ffffffff1916633659d6661790553480156200002f57600080fd5b5060405162004054380380620040548339810160408190526200005291620000b2565b6001600160a01b0396871660805294861660a05292851660e05290841660c052831661012052821661010052600180546001600160a01b031916919092161790556200015d565b6001600160a01b0381168114620000af57600080fd5b50565b600080600080600080600060e0888a031215620000ce57600080fd5b8751620000db8162000099565b6020890151909750620000ee8162000099565b6040890151909650620001018162000099565b6060890151909550620001148162000099565b6080890151909450620001278162000099565b60a08901519093506200013a8162000099565b60c08901519092506200014d8162000099565b8091505092959891949750929550565b60805160a05160c05160e0516101005161012051613dea6200026a6000396000818161036a015281816110dd015281816113ac01528181612219015281816123c40152818161248f015261268b01526000818161041a01528181610b660152611b040152600081816103b6015261230f01526000818161048e01528181610cb00152818161153c015281816115ce0152818161167e01528181611c2901528181611cbb0152818161274c01526127de01526000818161070201528181611650015281816119e9015281816122e00152818161259101526126300152600081816107cc01528181611a4c01528181611b8a01528181611f620152818161270501526128be0152613dea6000f3fe60806040526004361061024a5760003560e01c80635c538df311610139578063847e0b2b116100b6578063d0ca42881161007a578063d0ca42881461081b578063e43372e91461083b578063e78f884f1461085d578063ebd34f501461087d578063f202027514610892578063fe4fcb00146108a857600080fd5b8063847e0b2b1461074457806389a302711461077a578063c27a69f01461079a578063c31c9c07146107ba578063ce891f99146107ee57600080fd5b80636401c30c116100fd5780636401c30c146106825780636e04ff0d146106a25780637bbdb96e146106d05780637d253aff146106f05780637d4f225b1461072457600080fd5b80635c538df3146105ba5780635e57966d146105da5780635f5bafcc146105fa5780635fbf9ba71461061a578063619656511461065057600080fd5b806341976e09116101c75780634b36c1251161018b5780634b36c125146104fd5780634caf9d0b1461052a5780634cb47e841461055757806352adc228146105845780635be6bf00146105a457600080fd5b806341976e091461043c57806341a7726a1461045c5780634398604e1461047c5780634585e33b146104b05780634ac17c25146104d057600080fd5b80632160f3f61161020e5780632160f3f6146103145780632a663606146103585780632b20e397146103a45780632fc04bf4146103d8578063382988d41461040857600080fd5b8063089fe6aa146102565780630f53a47014610285578063129552ec146102b2578063170dc660146102d45780631c8e8962146102f457600080fd5b3661025157005b600080fd5b34801561026257600080fd5b5061026c610bb881565b60405162ffffff90911681526020015b60405180910390f35b34801561029157600080fd5b506102a56102a0366004612dc1565b6108c8565b60405161027c9190612e36565b3480156102be57600080fd5b506102d26102cd366004612f24565b610974565b005b3480156102e057600080fd5b506102a56102ef366004612fa3565b6109ab565b34801561030057600080fd5b506102a561030f366004612dc1565b610ab0565b34801561032057600080fd5b5061034a61032f366004612dc1565b6001600160a01b031660009081526009602052604090205490565b60405190815260200161027c565b34801561036457600080fd5b5061038c7f000000000000000000000000000000000000000000000000000000000000000081565b6040516001600160a01b03909116815260200161027c565b3480156103b057600080fd5b5061038c7f000000000000000000000000000000000000000000000000000000000000000081565b3480156103e457600080fd5b506103f86103f33660046130a0565b610b4a565b604051901515815260200161027c565b34801561041457600080fd5b5061038c7f000000000000000000000000000000000000000000000000000000000000000081565b34801561044857600080fd5b5061034a610457366004612dc1565b610c8c565b34801561046857600080fd5b506102d2610477366004612dc1565b610d22565b34801561048857600080fd5b5061038c7f000000000000000000000000000000000000000000000000000000000000000081565b3480156104bc57600080fd5b506102d26104cb36600461314d565b610ec4565b3480156104dc57600080fd5b5061034a6104eb366004612dc1565b60066020526000908152604090205481565b34801561050957600080fd5b5061034a610518366004612dc1565b60076020526000908152604090205481565b34801561053657600080fd5b5061054a610545366004612dc1565b610f5e565b60405161027c91906131be565b34801561056357600080fd5b50610577610572366004612dc1565b61104d565b60405161027c9190613220565b34801561059057600080fd5b506102d261059f36600461326d565b6110c2565b3480156105b057600080fd5b5061034a60025481565b3480156105c657600080fd5b506102a56105d536600461328a565b611145565b3480156105e657600080fd5b506102a56105f5366004612dc1565b61117d565b34801561060657600080fd5b5061038c61061536600461328a565b611368565b34801561062657600080fd5b5061034a610635366004612dc1565b6001600160a01b031660009081526007602052604090205490565b34801561065c57600080fd5b5061067061066b36600461326d565b6113a0565b60405161027c969594939291906132b6565b34801561068e57600080fd5b506102d261069d366004612f24565b61145a565b3480156106ae57600080fd5b506106c26106bd36600461314d565b61147a565b60405161027c92919061330e565b3480156106dc57600080fd5b5060015461038c906001600160a01b031681565b3480156106fc57600080fd5b5061038c7f000000000000000000000000000000000000000000000000000000000000000081565b34801561073057600080fd5b506102d261073f366004613329565b61151a565b34801561075057600080fd5b5061034a61075f366004612dc1565b6001600160a01b031660009081526006602052604090205490565b34801561078657600080fd5b5060005461038c906001600160a01b031681565b3480156107a657600080fd5b506102d26107b5366004612dc1565b611ae5565b3480156107c657600080fd5b5061038c7f000000000000000000000000000000000000000000000000000000000000000081565b3480156107fa57600080fd5b506102d2610809366004612fa3565b33600090815260096020526040902055565b34801561082757600080fd5b5061034a61083636600461337f565b611b5c565b34801561084757600080fd5b50610850612036565b60405161027c9190613488565b34801561086957600080fd5b506102d26108783660046134e0565b6121ef565b34801561088957600080fd5b5060025461034a565b34801561089e57600080fd5b5061034a60035481565b3480156108b457600080fd5b506102d26108c3366004613520565b612571565b6001600160a01b03811660009081526008602052604090208054606091906108ef9061355a565b80601f016020809104026020016040519081016040528092919081815260200182805461091b9061355a565b80156109685780601f1061093d57610100808354040283529160200191610968565b820191906000526020600020905b81548152906001019060200180831161094b57829003601f168201915b50505050509050919050565b336000908152600560209081526040822080546001810182559083529181902083516109a7939190910191840190612d00565b5050565b6060816109cf5750506040805180820190915260018152600360fc1b602082015290565b8160005b81156109f957806109e3816135ab565b91506109f29050600a836135dc565b91506109d3565b6000816001600160401b03811115610a1357610a13612e49565b6040519080825280601f01601f191660200182016040528015610a3d576020820181803683370190505b5090505b8415610aa857610a526001836135f0565b9150610a5f600a86613607565b610a6a90603061361b565b60f81b818381518110610a7f57610a7f613633565b60200101906001600160f81b031916908160001a905350610aa1600a866135dc565b9450610a41565b949350505050565b60086020526000908152604090208054610ac99061355a565b80601f0160208091040260200160405190810160405280929190818152602001828054610af59061355a565b8015610b425780601f10610b1757610100808354040283529160200191610b42565b820191906000526020600020905b815481529060010190602001808311610b2557829003601f168201915b505050505081565b6000805b8351811015610c825760015484516001600160a01b037f000000000000000000000000000000000000000000000000000000000000000081169263ba3d69d792911690879085908110610ba357610ba3613633565b6020026020010151610bb887606001516109ab565b610bc5886020015161117d565b610bd2896040015161117d565b610bdf8a608001516109ab565b610bed8b61010001516109ab565b610bfb8c61012001516109ab565b604051602001610c1096959493929190613665565b6040516020818303038152906040526040518463ffffffff1660e01b8152600401610c3d9392919061374b565b600060405180830381600087803b158015610c5757600080fd5b505af1158015610c6b573d6000803e3d6000fd5b505050508080610c7a906135ab565b915050610b4e565b5060019392505050565b60405163b3596f0760e01b81526001600160a01b03828116600483015260009182917f0000000000000000000000000000000000000000000000000000000000000000169063b3596f0790602401602060405180830381865afa158015610cf7573d6000803e3d6000fd5b505050506040513d601f19601f82011682018060405250810190610d1b9190613780565b9392505050565b6001600160a01b0381811660009081526009602052604080822054915490516370a0823160e01b8152336004820152919216906370a0823190602401602060405180830381865afa158015610d7b573d6000803e3d6000fd5b505050506040513d601f19601f82011682018060405250810190610d9f9190613780565b1015610dbe5760405163356680b760e01b815260040160405180910390fd5b600080546001600160a01b03838116808452600960205260409384902054935163a9059cbb60e01b815260048101919091526024810193909352169063a9059cbb906044016020604051808303816000875af1158015610e22573d6000803e3d6000fd5b505050506040513d601f19601f82011682018060405250810190610e469190613799565b506001600160a01b038116600081815260046020908152604080832080546001810182559084528284200180546001600160a01b031916331790558383526009825291829020548251938452908301527f4b90d6788928d63c1821907a6a8b95f40d26562d8fe41b105f7489db9966dfcb910160405180910390a150565b600080610ed3838501856137bb565b9150915060008160800151826101200151131580610efa5750816080015182610100015112155b9050808015610f1e575060008260c001516001811115610f1c57610f1c6133c1565b145b15610f4e576040820151600054610f41919085906001600160a01b0316336126f4565b50600160c0830152610f57565b610f57826110c2565b5050505050565b6001600160a01b0381166000908152600560209081526040808320805482518185028101850190935280835260609492939192909184015b82821015611042578382906000526020600020018054610fb59061355a565b80601f0160208091040260200160405190810160405280929190818152602001828054610fe19061355a565b801561102e5780601f106110035761010080835404028352916020019161102e565b820191906000526020600020905b81548152906001019060200180831161101157829003601f168201915b505050505081526020019060010190610f96565b505050509050919050565b6001600160a01b03811660009081526004602090815260409182902080548351818402810184019094528084526060939283018282801561096857602002820191906000526020600020905b81546001600160a01b031681526001909101906020018083116110995750505050509050919050565b60e0810151604051636402401160e11b8152600481018290527f00000000000000000000000000000000000000000000000000000000000000006001600160a01b03169063c804802290602401600060405180830381600087803b15801561112957600080fd5b505af115801561113d573d6000803e3d6000fd5b505050505050565b6005602052816000526040600020818154811061116157600080fd5b90600052602060002001600091509150508054610ac99061355a565b604080518082018252601081526f181899199a1a9b1b9c1cb0b131b232b360811b60208201528151602a80825260608281019094526001600160a01b0385169291600091602082018180368337019050509050600360fc1b816000815181106111e8576111e8613633565b60200101906001600160f81b031916908160001a905350600f60fb1b8160018151811061121757611217613633565b60200101906001600160f81b031916908160001a90535060005b601481101561135f578260048561124984600c61361b565b6020811061125957611259613633565b1a60f81b6001600160f81b031916901c60f81c60ff168151811061127f5761127f613633565b01602001516001600160f81b0319168261129a8360026137e9565b6112a590600261361b565b815181106112b5576112b5613633565b60200101906001600160f81b031916908160001a90535082846112d983600c61361b565b602081106112e9576112e9613633565b825191901a600f1690811061130057611300613633565b01602001516001600160f81b0319168261131b8360026137e9565b61132690600361361b565b8151811061133657611336613633565b60200101906001600160f81b031916908160001a90535080611357816135ab565b915050611231565b50949350505050565b6004602052816000526040600020818154811061138457600080fd5b6000918252602090912001546001600160a01b03169150829050565b600080606060008060007f00000000000000000000000000000000000000000000000000000000000000006001600160a01b031663c7c3a19a8860e001516040518263ffffffff1660e01b81526004016113fc91815260200190565b600060405180830381865afa158015611419573d6000803e3d6000fd5b505050506040513d6000823e601f3d908101601f191682016040526114419190810190613849565b969e959d50939b50919950909750929550909350505050565b33600090815260086020908152604090912082516109a792840190612d00565b600060608161148b848601866137bb565b915050600081608001518261012001511315806114b15750816080015182610100015112155b90508080156114d5575060008260c0015160018111156114d3576114d36133c1565b145b935085858080601f0160208091040260200160405190810160405280939291908181526020018383808284376000920191909152509699929850919650505050505050565b60405163b3596f0760e01b81526001600160a01b0382811660048301526000917f00000000000000000000000000000000000000000000000000000000000000009091169063b3596f0790602401602060405180830381865afa158015611585573d6000803e3d6000fd5b505050506040513d601f19601f820116820180604052508101906115a99190613780565b60405163b3596f0760e01b81526001600160a01b0385811660048301529192506000917f0000000000000000000000000000000000000000000000000000000000000000169063b3596f0790602401602060405180830381865afa158015611615573d6000803e3d6000fd5b505050506040513d601f19601f820116820180604052508101906116399190613780565b60405163b3596f0760e01b81526001600160a01b037f0000000000000000000000000000000000000000000000000000000000000000811660048301529192506000917f0000000000000000000000000000000000000000000000000000000000000000169063b3596f0790602401602060405180830381865afa1580156116c5573d6000803e3d6000fd5b505050506040513d601f19601f820116820180604052508101906116e99190613780565b90506000600a6116f98484613937565b611704906005613965565b61170e9190613937565b9050600061171c828961361b565b9050848a121561173f576040516359570a0160e11b815260040160405180910390fd5b84891315611760576040516359570a0160e11b815260040160405180910390fd5b6040516370a0823160e01b815233600482015281906001600160a01b038916906370a0823190602401602060405180830381865afa1580156117a6573d6000803e3d6000fd5b505050506040513d601f19601f820116820180604052508101906117ca9190613780565b10156117e95760405163356680b760e01b815260040160405180910390fd5b6000600a600060025460016117fe919061361b565b81526020808201929092526040908101600020815161014081018352815460ff80821683526101009091046001600160a01b0390811695830195909552600180840154909516938201939093526002820154606082015260038201546080820152600482015460a082015260058201549093919260c0850192911690811115611889576118896133c1565b600181111561189a5761189a6133c1565b81526020016006820154815260200160078201548152602001600882015481525050905060025460016118cd919061361b565b60ff1681523360208201526001600160a01b03871660408201524260608201526080810186905260a08101899052600060c082018190525061010081018a905261012081018b90523360009081526004602090815260408083208054825181850281018501909352808352919290919083018282801561197657602002820191906000526020600020905b81546001600160a01b03168152600190910190602001808311611958575b50505050509050600081511115611993576119918183610b4a565b505b6119a86001600160a01b038a16333086612983565b60006119b68a8c8b306126f4565b90506000856119c5888a613937565b6119cf9190613965565b60408051610100810182526001600160a01b03808f1682527f000000000000000000000000000000000000000000000000000000000000000081166020830152610bb88284015230606083015242608083015260a082018a905260c08201849052600060e08301819052925163414bf38960e01b815293945090927f00000000000000000000000000000000000000000000000000000000000000009091169063414bf38990611a839085906004016139ea565b6020604051808303816000875af1158015611aa2573d6000803e3d6000fd5b505050506040513d601f19601f82011682018060405250810190611ac69190613780565b9050611ad38185886121ef565b50505050505050505050505050505050565b60405163e71bdf4160e01b81526001600160a01b0382811660048301527f0000000000000000000000000000000000000000000000000000000000000000169063e71bdf4190602401600060405180830381600087803b158015611b4857600080fd5b505af1158015610f57573d6000803e3d6000fd5b6000611b736001600160a01b038516333086612983565b60405163095ea7b360e01b81526001600160a01b037f0000000000000000000000000000000000000000000000000000000000000000811660048301526024820185905285169063095ea7b3906044016020604051808303816000875af1158015611be2573d6000803e3d6000fd5b505050506040513d601f19601f82011682018060405250810190611c069190613799565b5060405163b3596f0760e01b81526001600160a01b0383811660048301526000917f00000000000000000000000000000000000000000000000000000000000000009091169063b3596f0790602401602060405180830381865afa158015611c72573d6000803e3d6000fd5b505050506040513d601f19601f82011682018060405250810190611c969190613780565b60405163b3596f0760e01b81526001600160a01b0387811660048301529192506000917f0000000000000000000000000000000000000000000000000000000000000000169063b3596f0790602401602060405180830381865afa158015611d02573d6000803e3d6000fd5b505050506040513d601f19601f82011682018060405250810190611d269190613780565b9050600085611d3584846135dc565b611d3f91906137e9565b90506000806000600a60006002546001611d59919061361b565b815260200190815260200160002090506002546001611d78919061361b565b815460ff919091166001600160a81b031990911617610100339081029190911782556001820180546001600160a01b0319166001600160a01b038b1617905542600283015560048083018b90556003830188905560058301805460ff19169055600783018590556008830184905560009182526020908152604080832080548251818502810185019093528083529192909190830182828015611e4457602002820191906000526020600020905b81546001600160a01b03168152600190910190602001808311611e26575b50505050509050600081511115611f0a576040805161014081018252835460ff80821683526001600160a01b0361010090920482166020840152600180870154909216938301939093526002850154606083015260038501546080830152600485015460a08301526005850154611f0893859392879260c08501921690811115611ed057611ed06133c1565b6001811115611ee157611ee16133c1565b81526020016006820154815260200160078201548152602001600882015481525050610b4a565b505b60408051610100810182526001600160a01b03808e1682528b81166020830152610bb88284015233606083015242608083015260a082018d905260c08201889052600060e0830152915163414bf38960e01b815290917f0000000000000000000000000000000000000000000000000000000000000000169063414bf38990611f979084906004016139ea565b6020604051808303816000875af1158015611fb6573d6000803e3d6000fd5b505050506040513d601f19601f82011682018060405250810190611fda9190613780565b60058401805460ff191660019081179091553360009081526007602052604081208054939c50919261200d90849061361b565b909155505060028054906000612022836135ab565b919050555050505050505050509392505050565b6002546060906000816001600160401b0381111561205657612056612e49565b6040519080825280602002602001820160405280156120dd57816020015b6120ca6040805161014081018252600080825260208201819052918101829052606081018290526080810182905260a081018290529060c082019081526020016000815260200160008152602001600081525090565b8152602001906001900390816120745790505b50905060005b828110156121e857600a60006120fa83600161361b565b81526020808201929092526040908101600020815161014081018352815460ff80821683526101009091046001600160a01b0390811695830195909552600180840154909516938201939093526002820154606082015260038201546080820152600482015460a082015260058201549093919260c0850192911690811115612185576121856133c1565b6001811115612196576121966133c1565b815260200160068201548152602001600782015481526020016008820154815250508282815181106121ca576121ca613633565b602002602001018190525080806121e0906135ab565b9150506120e3565b5092915050565b60008282604051602001612204929190613a53565b604051602081830303815290604052905060007f00000000000000000000000000000000000000000000000000000000000000006001600160a01b0316631865c57d6040518163ffffffff1660e01b8152600401600060405180830381865afa158015612275573d6000803e3d6000fd5b505050506040513d6000823e601f3d908101601f1916820160405261229d9190810190613afc565b5050805160405191925063ffffffff16906000906122cd90309061270f90339088908c9087908690602001613c73565b60405160208183030381529060405290507f00000000000000000000000000000000000000000000000000000000000000006001600160a01b0316634000aea07f000000000000000000000000000000000000000000000000000000000000000089600b60009054906101000a900460e01b85604051602001612351929190613d34565b6040516020818303038152906040526040518463ffffffff1660e01b815260040161237e93929190613d65565b6020604051808303816000875af115801561239d573d6000803e3d6000fd5b505050506040513d601f19601f820116820180604052508101906123c19190613799565b507f00000000000000000000000000000000000000000000000000000000000000006001600160a01b0316631865c57d6040518163ffffffff1660e01b8152600401600060405180830381865afa158015612420573d6000803e3d6000fd5b505050506040513d6000823e601f3d908101601f191682016040526124489190810190613afc565b5050805190935063ffffffff1661246083600161361b565b8114156125225760006124746001436135f0565b60408051914060208301526bffffffffffffffffffffffff197f000000000000000000000000000000000000000000000000000000000000000060601b16908201526001600160e01b031960e086901b16605482015260580160408051601f19818403018152918152815160209092019190912060e08901819052905190915081907f63410b84334e1011f4c6e94909882bd236426deb3c6a08c13ec54cedad72d43c90600090a250612567565b60405162461bcd60e51b8152602060048201526015602482015274185d5d1bcb585c1c1c9bdd9948191a5cd8589b1959605a1b60448201526064015b60405180910390fd5b5050505050505050565b6040516370a0823160e01b81523360048201526001600160601b038216907f00000000000000000000000000000000000000000000000000000000000000006001600160a01b0316906370a0823190602401602060405180830381865afa1580156125e0573d6000803e3d6000fd5b505050506040513d601f19601f820116820180604052508101906126049190613780565b10156126235760405163356680b760e01b815260040160405180910390fd5b6126616001600160a01b037f00000000000000000000000000000000000000000000000000000000000000001633306001600160601b038516612983565b60e082015160405163948108f760e01b8152600481018290526001600160601b03831660248201527f00000000000000000000000000000000000000000000000000000000000000006001600160a01b03169063948108f790604401600060405180830381600087803b1580156126d757600080fd5b505af11580156126eb573d6000803e3d6000fd5b50505050505050565b600061272a6001600160a01b0386167f0000000000000000000000000000000000000000000000000000000000000000866129f4565b60405163b3596f0760e01b81526001600160a01b0384811660048301526000917f00000000000000000000000000000000000000000000000000000000000000009091169063b3596f0790602401602060405180830381865afa158015612795573d6000803e3d6000fd5b505050506040513d601f19601f820116820180604052508101906127b99190613780565b60405163b3596f0760e01b81526001600160a01b0388811660048301529192506000917f0000000000000000000000000000000000000000000000000000000000000000169063b3596f0790602401602060405180830381865afa158015612825573d6000803e3d6000fd5b505050506040513d601f19601f820116820180604052508101906128499190613780565b905060008661285884846135dc565b61286291906137e9565b60408051610100810182526001600160a01b03808c1682528981166020830152610bb882840152888116606083015242608083015260a082018b905260c08201849052600060e0830152915163414bf38960e01b8152929350917f00000000000000000000000000000000000000000000000000000000000000009091169063414bf389906128f59084906004016139ea565b6020604051808303816000875af1158015612914573d6000803e3d6000fd5b505050506040513d601f19601f820116820180604052508101906129389190613780565b336000908152600760205260408120805492975060019290919061295d90849061361b565b909155505060028054906000612972836135ab565b919050555050505050949350505050565b6040516001600160a01b03808516602483015283166044820152606481018290526129ee9085906323b872dd60e01b906084015b60408051601f198184030181529190526020810180516001600160e01b03166001600160e01b031990931692909217909152612b0e565b50505050565b801580612a6e5750604051636eb1769f60e11b81523060048201526001600160a01b03838116602483015284169063dd62ed3e90604401602060405180830381865afa158015612a48573d6000803e3d6000fd5b505050506040513d601f19601f82011682018060405250810190612a6c9190613780565b155b612ad95760405162461bcd60e51b815260206004820152603660248201527f5361666545524332303a20617070726f76652066726f6d206e6f6e2d7a65726f60448201527520746f206e6f6e2d7a65726f20616c6c6f77616e636560501b606482015260840161255e565b6040516001600160a01b038316602482015260448101829052612b0990849063095ea7b360e01b906064016129b7565b505050565b6000612b63826040518060400160405280602081526020017f5361666545524332303a206c6f772d6c6576656c2063616c6c206661696c6564815250856001600160a01b0316612be09092919063ffffffff16565b805190915015612b095780806020019051810190612b819190613799565b612b095760405162461bcd60e51b815260206004820152602a60248201527f5361666545524332303a204552433230206f7065726174696f6e20646964206e6044820152691bdd081cdd58d8d9595960b21b606482015260840161255e565b6060610aa8848460008585600080866001600160a01b03168587604051612c079190613d98565b60006040518083038185875af1925050503d8060008114612c44576040519150601f19603f3d011682016040523d82523d6000602084013e612c49565b606091505b5091509150612c5a87838387612c65565b979650505050505050565b60608315612cd1578251612cca576001600160a01b0385163b612cca5760405162461bcd60e51b815260206004820152601d60248201527f416464726573733a2063616c6c20746f206e6f6e2d636f6e7472616374000000604482015260640161255e565b5081610aa8565b610aa88383815115612ce65781518083602001fd5b8060405162461bcd60e51b815260040161255e9190612e36565b828054612d0c9061355a565b90600052602060002090601f016020900481019282612d2e5760008555612d74565b82601f10612d4757805160ff1916838001178555612d74565b82800160010185558215612d74579182015b82811115612d74578251825591602001919060010190612d59565b50612d80929150612d84565b5090565b5b80821115612d805760008155600101612d85565b6001600160a01b0381168114612dae57600080fd5b50565b8035612dbc81612d99565b919050565b600060208284031215612dd357600080fd5b8135610d1b81612d99565b60005b83811015612df9578181015183820152602001612de1565b838111156129ee5750506000910152565b60008151808452612e22816020860160208601612dde565b601f01601f19169290920160200192915050565b602081526000610d1b6020830184612e0a565b634e487b7160e01b600052604160045260246000fd5b60405161014081016001600160401b0381118282101715612e8257612e82612e49565b60405290565b604051608081016001600160401b0381118282101715612e8257612e82612e49565b60405161018081016001600160401b0381118282101715612e8257612e82612e49565b604051601f8201601f191681016001600160401b0381118282101715612ef557612ef5612e49565b604052919050565b60006001600160401b03821115612f1657612f16612e49565b50601f01601f191660200190565b600060208284031215612f3657600080fd5b81356001600160401b03811115612f4c57600080fd5b8201601f81018413612f5d57600080fd5b8035612f70612f6b82612efd565b612ecd565b818152856020838501011115612f8557600080fd5b81602084016020830137600091810160200191909152949350505050565b600060208284031215612fb557600080fd5b5035919050565b60006001600160401b03821115612fd557612fd5612e49565b5060051b60200190565b803560ff81168114612dbc57600080fd5b803560028110612dbc57600080fd5b6000610140828403121561301257600080fd5b61301a612e5f565b905061302582612fdf565b815261303360208301612db1565b602082015261304460408301612db1565b6040820152606082013560608201526080820135608082015260a082013560a082015261307360c08301612ff0565b60c082015260e082013560e082015261010080830135818301525061012080830135818301525092915050565b60008061016083850312156130b457600080fd5b82356001600160401b038111156130ca57600080fd5b8301601f810185136130db57600080fd5b803560206130eb612f6b83612fbc565b82815260059290921b8301810191818101908884111561310a57600080fd5b938201935b8385101561313157843561312281612d99565b8252938201939082019061310f565b9550613141905087878301612fff565b93505050509250929050565b6000806020838503121561316057600080fd5b82356001600160401b038082111561317757600080fd5b818501915085601f83011261318b57600080fd5b81358181111561319a57600080fd5b8660208285010111156131ac57600080fd5b60209290920196919550909350505050565b6000602080830181845280855180835260408601915060408160051b870101925083870160005b8281101561321357603f19888603018452613201858351612e0a565b945092850192908501906001016131e5565b5092979650505050505050565b6020808252825182820181905260009190848201906040850190845b818110156132615783516001600160a01b03168352928401929184019160010161323c565b50909695505050505050565b6000610140828403121561328057600080fd5b610d1b8383612fff565b6000806040838503121561329d57600080fd5b82356132a881612d99565b946020939093013593505050565b600060018060a01b03808916835263ffffffff8816602084015260c060408401526132e460c0840188612e0a565b6001600160601b0396871660608501529416608083015250921660a0909201919091529392505050565b8215158152604060208201526000610aa86040830184612e0a565b600080600080600060a0868803121561334157600080fd5b853594506020860135935060408601359250606086013561336181612d99565b9150608086013561337181612d99565b809150509295509295909350565b60008060006060848603121561339457600080fd5b833561339f81612d99565b92506020840135915060408401356133b681612d99565b809150509250925092565b634e487b7160e01b600052602160045260246000fd5b600281106133f557634e487b7160e01b600052602160045260246000fd5b9052565b805160ff168252602081015161341a60208401826001600160a01b03169052565b50604081015161343560408401826001600160a01b03169052565b50606081015160608301526080810151608083015260a081015160a083015260c081015161346660c08401826133d7565b5060e08181015190830152610100808201519083015261012090810151910152565b6020808252825182820181905260009190848201906040850190845b81811015613261576134b78385516133f9565b9284019261014092909201916001016134a4565b6001600160601b0381168114612dae57600080fd5b600080600061018084860312156134f657600080fd5b8335613501816134cb565b9250602084013591506135178560408601612fff565b90509250925092565b600080610160838503121561353457600080fd5b61353e8484612fff565b915061014083013561354f816134cb565b809150509250929050565b600181811c9082168061356e57607f821691505b6020821081141561358f57634e487b7160e01b600052602260045260246000fd5b50919050565b634e487b7160e01b600052601160045260246000fd5b60006000198214156135bf576135bf613595565b5060010190565b634e487b7160e01b600052601260045260246000fd5b6000826135eb576135eb6135c6565b500490565b60008282101561360257613602613595565b500390565b600082613616576136166135c6565b500690565b6000821982111561362e5761362e613595565b500190565b634e487b7160e01b600052603260045260246000fd5b6000815161365b818560208601612dde565b9290920192915050565b600360fc1b81526000602b60f81b806001840152603360f81b6002840152806003840152506914ddd85c08105b195c9d60b21b600483015287516136b081600e850160208c01612dde565b601d60f91b600e9184019182015287516136d181600f840160208c01612dde565b65189bdd59da1d60d21b600f929091019182015286516136f8816015840160208b01612dde565b61373d61373761373161372161371b60158688010161185d60f21b815260020190565b8b613649565b630eed2e8d60e31b815260040190565b88613649565b86613649565b9a9950505050505050505050565b6001600160a01b0384811682528316602082015260606040820181905260009061377790830184612e0a565b95945050505050565b60006020828403121561379257600080fd5b5051919050565b6000602082840312156137ab57600080fd5b81518015158114610d1b57600080fd5b60008061016083850312156137cf57600080fd5b823591506137e08460208501612fff565b90509250929050565b600081600019048311821515161561380357613803613595565b500290565b8051612dbc81612d99565b805163ffffffff81168114612dbc57600080fd5b8051612dbc816134cb565b80516001600160401b0381168114612dbc57600080fd5b600080600080600080600080610100898b03121561386657600080fd5b885161387181612d99565b975061387f60208a01613813565b965060408901516001600160401b0381111561389a57600080fd5b8901601f81018b136138ab57600080fd5b80516138b9612f6b82612efd565b8181528c60208385010111156138ce57600080fd5b6138df826020830160208601612dde565b97506138f091505060608a01613827565b94506138fe60808a01613808565b935061390c60a08a01613808565b925061391a60c08a01613832565b915061392860e08a01613827565b90509295985092959890939650565b600082613946576139466135c6565b600160ff1b82146000198414161561396057613960613595565b500590565b60006001600160ff1b038184138284138082168684048611161561398b5761398b613595565b600160ff1b60008712828116878305891216156139aa576139aa613595565b600087129250878205871284841616156139c6576139c6613595565b878505871281841616156139dc576139dc613595565b505050929093029392505050565b81516001600160a01b03908116825260208084015182169083015260408084015162ffffff16908301526060808401518216908301526080808401519083015260a0838101519083015260c0808401519083015260e09283015116918101919091526101000190565b8281526101608101610d1b60208301846133f9565b805162ffffff81168114612dbc57600080fd5b805161ffff81168114612dbc57600080fd5b600082601f830112613a9e57600080fd5b81516020613aae612f6b83612fbc565b82815260059290921b84018101918181019086841115613acd57600080fd5b8286015b84811015613af1578051613ae481612d99565b8352918301918301613ad1565b509695505050505050565b6000806000838503610220811215613b1357600080fd5b6080811215613b2157600080fd5b613b29612e88565b613b3286613813565b81526020860151613b42816134cb565b602082015260408681015190820152606080870151908201529350610180607f198201811315613b7157600080fd5b613b79612eaa565b9150613b8760808701613813565b8252613b9560a08701613813565b6020830152613ba660c08701613a68565b6040830152613bb760e08701613813565b6060830152610100613bca818801613a68565b6080840152610120613bdd818901613a7b565b60a0850152610140613bf0818a01613827565b60c0860152610160613c03818b01613813565b60e0870152848a0151848701526101a08a015183870152613c276101c08b01613808565b82870152613c386101e08b01613808565b90860152505050506102008501519092506001600160401b03811115613c5d57600080fd5b613c6986828701613a8d565b9150509250925092565b6101208082526013908201527254726164654775696465204175746f6d61746560681b6101408201526101606020820181905260029082015261060f60f31b6101808201526001600160a01b038816604082015261ffff8716606082015260006101a06001600160a01b03881660808401528060a0840152613cf781840188612e0a565b915050613d0f60c08301866001600160601b03169052565b60ff841660e08301526001600160a01b03831661010083015298975050505050505050565b6001600160e01b0319831681528151600090613d57816004850160208701612dde565b919091016004019392505050565b6001600160a01b03841681526001600160601b038316602082015260606040820181905260009061377790830184612e0a565b60008251613daa818460208701612dde565b919091019291505056fea26469706673582212200792a295517f40bc5a37bc5612707dd7bdeaaadfc06feeb05b4f655f8bdb4e1564736f6c634300080a0033"
}