{
  "address": "0x6C55d8122D2a840B01bd87525B4500eA84346Bfb",
  "abi": [
    {
      "inputs": [
        {
          "internalType": "contract ISwapRouter",
          "name": "_swapRouter",
          "type": "address"
        },
        {
          "internalType": "contract LinkTokenInterface",
          "name": "_link",
          "type": "address"
        },
        {
          "internalType": "address",
          "name": "_registrar",
          "type": "address"
        },
        {
          "internalType": "contract IPriceOracle",
          "name": "_oracleAddress",
          "type": "address"
        },
        {
          "internalType": "contract AutomationRegistryInterface",
          "name": "_registry",
          "type": "address"
        },
        {
          "internalType": "contract IEPNSCommInterface",
          "name": "epnsComms",
          "type": "address"
        },
        {
          "internalType": "address",
          "name": "_channel",
          "type": "address"
        }
      ],
      "stateMutability": "nonpayable",
      "type": "constructor"
    },
    {
      "inputs": [],
      "name": "InsufficientFunds",
      "type": "error"
    },
    {
      "inputs": [],
      "name": "InvalidTPOrSL",
      "type": "error"
    },
    {
      "anonymous": false,
      "inputs": [
        {
          "indexed": false,
          "internalType": "address",
          "name": "to",
          "type": "address"
        },
        {
          "indexed": false,
          "internalType": "uint256",
          "name": "amount",
          "type": "uint256"
        }
      ],
      "name": "Subscribed",
      "type": "event"
    },
    {
      "anonymous": false,
      "inputs": [
        {
          "indexed": false,
          "internalType": "address",
          "name": "_tokenIn",
          "type": "address"
        },
        {
          "indexed": false,
          "internalType": "uint256",
          "name": "_price",
          "type": "uint256"
        }
      ],
      "name": "Swapped",
      "type": "event"
    },
    {
      "anonymous": false,
      "inputs": [
        {
          "indexed": true,
          "internalType": "uint256",
          "name": "upkeedId",
          "type": "uint256"
        }
      ],
      "name": "UpkeepID",
      "type": "event"
    },
    {
      "inputs": [],
      "name": "USDC",
      "outputs": [
        {
          "internalType": "address",
          "name": "",
          "type": "address"
        }
      ],
      "stateMutability": "view",
      "type": "function"
    },
    {
      "inputs": [],
      "name": "_epnsComms",
      "outputs": [
        {
          "internalType": "contract IEPNSCommInterface",
          "name": "",
          "type": "address"
        }
      ],
      "stateMutability": "view",
      "type": "function"
    },
    {
      "inputs": [
        {
          "internalType": "string",
          "name": "link",
          "type": "string"
        }
      ],
      "name": "addAPost",
      "outputs": [],
      "stateMutability": "nonpayable",
      "type": "function"
    },
    {
      "inputs": [
        {
          "internalType": "address",
          "name": "_delegate",
          "type": "address"
        }
      ],
      "name": "addAdelegate",
      "outputs": [],
      "stateMutability": "nonpayable",
      "type": "function"
    },
    {
      "inputs": [
        {
          "components": [
            {
              "internalType": "address",
              "name": "trader",
              "type": "address"
            },
            {
              "internalType": "address",
              "name": "tokenBought",
              "type": "address"
            },
            {
              "internalType": "uint256",
              "name": "timeStamp",
              "type": "uint256"
            },
            {
              "internalType": "int256",
              "name": "buyPrice",
              "type": "int256"
            },
            {
              "internalType": "uint256",
              "name": "amount",
              "type": "uint256"
            },
            {
              "internalType": "enum TradeGuideStorage.TradeState",
              "name": "_tradeState",
              "type": "uint8"
            },
            {
              "internalType": "uint256",
              "name": "upkeepID",
              "type": "uint256"
            },
            {
              "internalType": "int256",
              "name": "sl",
              "type": "int256"
            },
            {
              "internalType": "int256",
              "name": "tp",
              "type": "int256"
            }
          ],
          "internalType": "struct TradeGuideStorage.TradeLog",
          "name": "_tradeLog",
          "type": "tuple"
        },
        {
          "internalType": "uint96",
          "name": "amount",
          "type": "uint96"
        }
      ],
      "name": "addFundsByID",
      "outputs": [],
      "stateMutability": "nonpayable",
      "type": "function"
    },
    {
      "inputs": [
        {
          "internalType": "address",
          "name": "_address",
          "type": "address"
        }
      ],
      "name": "addressToString",
      "outputs": [
        {
          "internalType": "string",
          "name": "",
          "type": "string"
        }
      ],
      "stateMutability": "pure",
      "type": "function"
    },
    {
      "inputs": [
        {
          "components": [
            {
              "internalType": "address",
              "name": "trader",
              "type": "address"
            },
            {
              "internalType": "address",
              "name": "tokenBought",
              "type": "address"
            },
            {
              "internalType": "uint256",
              "name": "timeStamp",
              "type": "uint256"
            },
            {
              "internalType": "int256",
              "name": "buyPrice",
              "type": "int256"
            },
            {
              "internalType": "uint256",
              "name": "amount",
              "type": "uint256"
            },
            {
              "internalType": "enum TradeGuideStorage.TradeState",
              "name": "_tradeState",
              "type": "uint8"
            },
            {
              "internalType": "uint256",
              "name": "upkeepID",
              "type": "uint256"
            },
            {
              "internalType": "int256",
              "name": "sl",
              "type": "int256"
            },
            {
              "internalType": "int256",
              "name": "tp",
              "type": "int256"
            }
          ],
          "internalType": "struct TradeGuideStorage.TradeLog",
          "name": "_tradeLog",
          "type": "tuple"
        }
      ],
      "name": "cancelUpkeepById",
      "outputs": [],
      "stateMutability": "nonpayable",
      "type": "function"
    },
    {
      "inputs": [],
      "name": "channel",
      "outputs": [
        {
          "internalType": "address",
          "name": "",
          "type": "address"
        }
      ],
      "stateMutability": "view",
      "type": "function"
    },
    {
      "inputs": [
        {
          "internalType": "bytes",
          "name": "checkData",
          "type": "bytes"
        }
      ],
      "name": "checkUpkeep",
      "outputs": [
        {
          "internalType": "bool",
          "name": "upkeepNeeded",
          "type": "bool"
        },
        {
          "internalType": "bytes",
          "name": "performData",
          "type": "bytes"
        }
      ],
      "stateMutability": "view",
      "type": "function"
    },
    {
      "inputs": [
        {
          "internalType": "address",
          "name": "user",
          "type": "address"
        }
      ],
      "name": "getNoSubscribers",
      "outputs": [
        {
          "internalType": "uint256",
          "name": "",
          "type": "uint256"
        }
      ],
      "stateMutability": "view",
      "type": "function"
    },
    {
      "inputs": [
        {
          "internalType": "address",
          "name": "user",
          "type": "address"
        }
      ],
      "name": "getNoTrades",
      "outputs": [
        {
          "internalType": "uint256",
          "name": "",
          "type": "uint256"
        }
      ],
      "stateMutability": "view",
      "type": "function"
    },
    {
      "inputs": [
        {
          "internalType": "address",
          "name": "user",
          "type": "address"
        }
      ],
      "name": "getPosts",
      "outputs": [
        {
          "internalType": "string[]",
          "name": "",
          "type": "string[]"
        }
      ],
      "stateMutability": "view",
      "type": "function"
    },
    {
      "inputs": [
        {
          "internalType": "address",
          "name": "user",
          "type": "address"
        }
      ],
      "name": "getProfile",
      "outputs": [
        {
          "internalType": "string",
          "name": "",
          "type": "string"
        }
      ],
      "stateMutability": "view",
      "type": "function"
    },
    {
      "inputs": [
        {
          "internalType": "address",
          "name": "user",
          "type": "address"
        }
      ],
      "name": "getSubcribers",
      "outputs": [
        {
          "internalType": "address[]",
          "name": "",
          "type": "address[]"
        }
      ],
      "stateMutability": "view",
      "type": "function"
    },
    {
      "inputs": [
        {
          "internalType": "address",
          "name": "user",
          "type": "address"
        }
      ],
      "name": "getSubscribersFee",
      "outputs": [
        {
          "internalType": "uint256",
          "name": "",
          "type": "uint256"
        }
      ],
      "stateMutability": "view",
      "type": "function"
    },
    {
      "inputs": [],
      "name": "getTotalTrades",
      "outputs": [
        {
          "internalType": "uint256",
          "name": "",
          "type": "uint256"
        }
      ],
      "stateMutability": "view",
      "type": "function"
    },
    {
      "inputs": [],
      "name": "getTrades",
      "outputs": [
        {
          "components": [
            {
              "internalType": "address",
              "name": "trader",
              "type": "address"
            },
            {
              "internalType": "address",
              "name": "tokenBought",
              "type": "address"
            },
            {
              "internalType": "uint256",
              "name": "timeStamp",
              "type": "uint256"
            },
            {
              "internalType": "int256",
              "name": "buyPrice",
              "type": "int256"
            },
            {
              "internalType": "uint256",
              "name": "amount",
              "type": "uint256"
            },
            {
              "internalType": "enum TradeGuideStorage.TradeState",
              "name": "_tradeState",
              "type": "uint8"
            },
            {
              "internalType": "uint256",
              "name": "upkeepID",
              "type": "uint256"
            },
            {
              "internalType": "int256",
              "name": "sl",
              "type": "int256"
            },
            {
              "internalType": "int256",
              "name": "tp",
              "type": "int256"
            }
          ],
          "internalType": "struct TradeGuideStorage.TradeLog[]",
          "name": "",
          "type": "tuple[]"
        }
      ],
      "stateMutability": "view",
      "type": "function"
    },
    {
      "inputs": [
        {
          "components": [
            {
              "internalType": "address",
              "name": "trader",
              "type": "address"
            },
            {
              "internalType": "address",
              "name": "tokenBought",
              "type": "address"
            },
            {
              "internalType": "uint256",
              "name": "timeStamp",
              "type": "uint256"
            },
            {
              "internalType": "int256",
              "name": "buyPrice",
              "type": "int256"
            },
            {
              "internalType": "uint256",
              "name": "amount",
              "type": "uint256"
            },
            {
              "internalType": "enum TradeGuideStorage.TradeState",
              "name": "_tradeState",
              "type": "uint8"
            },
            {
              "internalType": "uint256",
              "name": "upkeepID",
              "type": "uint256"
            },
            {
              "internalType": "int256",
              "name": "sl",
              "type": "int256"
            },
            {
              "internalType": "int256",
              "name": "tp",
              "type": "int256"
            }
          ],
          "internalType": "struct TradeGuideStorage.TradeLog",
          "name": "_tradeLog",
          "type": "tuple"
        }
      ],
      "name": "getUpkeepInfo",
      "outputs": [
        {
          "internalType": "address",
          "name": "target",
          "type": "address"
        },
        {
          "internalType": "uint32",
          "name": "executeGas",
          "type": "uint32"
        },
        {
          "internalType": "bytes",
          "name": "checkData",
          "type": "bytes"
        },
        {
          "internalType": "uint96",
          "name": "balance",
          "type": "uint96"
        },
        {
          "internalType": "address",
          "name": "admin",
          "type": "address"
        },
        {
          "internalType": "uint96",
          "name": "amountSpent",
          "type": "uint96"
        }
      ],
      "stateMutability": "view",
      "type": "function"
    },
    {
      "inputs": [],
      "name": "i_link",
      "outputs": [
        {
          "internalType": "contract LinkTokenInterface",
          "name": "",
          "type": "address"
        }
      ],
      "stateMutability": "view",
      "type": "function"
    },
    {
      "inputs": [],
      "name": "i_registry",
      "outputs": [
        {
          "internalType": "contract AutomationRegistryInterface",
          "name": "",
          "type": "address"
        }
      ],
      "stateMutability": "view",
      "type": "function"
    },
    {
      "inputs": [
        {
          "internalType": "address",
          "name": "",
          "type": "address"
        }
      ],
      "name": "noOfSubscribers",
      "outputs": [
        {
          "internalType": "uint256",
          "name": "",
          "type": "uint256"
        }
      ],
      "stateMutability": "view",
      "type": "function"
    },
    {
      "inputs": [
        {
          "internalType": "address",
          "name": "",
          "type": "address"
        }
      ],
      "name": "noOfTrades",
      "outputs": [
        {
          "internalType": "uint256",
          "name": "",
          "type": "uint256"
        }
      ],
      "stateMutability": "view",
      "type": "function"
    },
    {
      "inputs": [
        {
          "internalType": "uint256",
          "name": "_number",
          "type": "uint256"
        }
      ],
      "name": "numberToString",
      "outputs": [
        {
          "internalType": "string",
          "name": "",
          "type": "string"
        }
      ],
      "stateMutability": "pure",
      "type": "function"
    },
    {
      "inputs": [],
      "name": "oracleAdress",
      "outputs": [
        {
          "internalType": "contract IPriceOracle",
          "name": "",
          "type": "address"
        }
      ],
      "stateMutability": "view",
      "type": "function"
    },
    {
      "inputs": [
        {
          "internalType": "bytes",
          "name": "performData",
          "type": "bytes"
        }
      ],
      "name": "performUpkeep",
      "outputs": [],
      "stateMutability": "nonpayable",
      "type": "function"
    },
    {
      "inputs": [],
      "name": "poolFee",
      "outputs": [
        {
          "internalType": "uint24",
          "name": "",
          "type": "uint24"
        }
      ],
      "stateMutability": "view",
      "type": "function"
    },
    {
      "inputs": [
        {
          "internalType": "address",
          "name": "",
          "type": "address"
        },
        {
          "internalType": "uint256",
          "name": "",
          "type": "uint256"
        }
      ],
      "name": "posts",
      "outputs": [
        {
          "internalType": "string",
          "name": "",
          "type": "string"
        }
      ],
      "stateMutability": "view",
      "type": "function"
    },
    {
      "inputs": [
        {
          "internalType": "uint96",
          "name": "amount",
          "type": "uint96"
        },
        {
          "internalType": "uint256",
          "name": "_amountOut",
          "type": "uint256"
        },
        {
          "components": [
            {
              "internalType": "address",
              "name": "trader",
              "type": "address"
            },
            {
              "internalType": "address",
              "name": "tokenBought",
              "type": "address"
            },
            {
              "internalType": "uint256",
              "name": "timeStamp",
              "type": "uint256"
            },
            {
              "internalType": "int256",
              "name": "buyPrice",
              "type": "int256"
            },
            {
              "internalType": "uint256",
              "name": "amount",
              "type": "uint256"
            },
            {
              "internalType": "enum TradeGuideStorage.TradeState",
              "name": "_tradeState",
              "type": "uint8"
            },
            {
              "internalType": "uint256",
              "name": "upkeepID",
              "type": "uint256"
            },
            {
              "internalType": "int256",
              "name": "sl",
              "type": "int256"
            },
            {
              "internalType": "int256",
              "name": "tp",
              "type": "int256"
            }
          ],
          "internalType": "struct TradeGuideStorage.TradeLog",
          "name": "_tradeLog",
          "type": "tuple"
        }
      ],
      "name": "registerAndPredictID",
      "outputs": [],
      "stateMutability": "nonpayable",
      "type": "function"
    },
    {
      "inputs": [],
      "name": "registrar",
      "outputs": [
        {
          "internalType": "address",
          "name": "",
          "type": "address"
        }
      ],
      "stateMutability": "view",
      "type": "function"
    },
    {
      "inputs": [
        {
          "internalType": "address[]",
          "name": "_to",
          "type": "address[]"
        },
        {
          "components": [
            {
              "internalType": "address",
              "name": "trader",
              "type": "address"
            },
            {
              "internalType": "address",
              "name": "tokenBought",
              "type": "address"
            },
            {
              "internalType": "uint256",
              "name": "timeStamp",
              "type": "uint256"
            },
            {
              "internalType": "int256",
              "name": "buyPrice",
              "type": "int256"
            },
            {
              "internalType": "uint256",
              "name": "amount",
              "type": "uint256"
            },
            {
              "internalType": "enum TradeGuideStorage.TradeState",
              "name": "_tradeState",
              "type": "uint8"
            },
            {
              "internalType": "uint256",
              "name": "upkeepID",
              "type": "uint256"
            },
            {
              "internalType": "int256",
              "name": "sl",
              "type": "int256"
            },
            {
              "internalType": "int256",
              "name": "tp",
              "type": "int256"
            }
          ],
          "internalType": "struct TradeGuideStorage.TradeLog",
          "name": "_tradeLog",
          "type": "tuple"
        }
      ],
      "name": "sendNotif",
      "outputs": [
        {
          "internalType": "bool",
          "name": "",
          "type": "bool"
        }
      ],
      "stateMutability": "nonpayable",
      "type": "function"
    },
    {
      "inputs": [
        {
          "internalType": "uint256",
          "name": "fee",
          "type": "uint256"
        }
      ],
      "name": "setSubscribersFee",
      "outputs": [],
      "stateMutability": "nonpayable",
      "type": "function"
    },
    {
      "inputs": [
        {
          "internalType": "string",
          "name": "userLink",
          "type": "string"
        }
      ],
      "name": "setUserProfile",
      "outputs": [],
      "stateMutability": "nonpayable",
      "type": "function"
    },
    {
      "inputs": [
        {
          "internalType": "address",
          "name": "_to",
          "type": "address"
        }
      ],
      "name": "subscribe",
      "outputs": [],
      "stateMutability": "nonpayable",
      "type": "function"
    },
    {
      "inputs": [
        {
          "internalType": "address",
          "name": "",
          "type": "address"
        },
        {
          "internalType": "uint256",
          "name": "",
          "type": "uint256"
        }
      ],
      "name": "subscribers",
      "outputs": [
        {
          "internalType": "address",
          "name": "",
          "type": "address"
        }
      ],
      "stateMutability": "view",
      "type": "function"
    },
    {
      "inputs": [
        {
          "internalType": "address",
          "name": "_tokenIn",
          "type": "address"
        },
        {
          "internalType": "uint256",
          "name": "amountIn",
          "type": "uint256"
        },
        {
          "internalType": "address",
          "name": "_tokenOut",
          "type": "address"
        }
      ],
      "name": "swapExactInputSingleAlone",
      "outputs": [
        {
          "internalType": "uint256",
          "name": "amountOut",
          "type": "uint256"
        }
      ],
      "stateMutability": "nonpayable",
      "type": "function"
    },
    {
      "inputs": [],
      "name": "swapRouter",
      "outputs": [
        {
          "internalType": "contract ISwapRouter",
          "name": "",
          "type": "address"
        }
      ],
      "stateMutability": "view",
      "type": "function"
    },
    {
      "inputs": [],
      "name": "totalOfTrades",
      "outputs": [
        {
          "internalType": "uint256",
          "name": "",
          "type": "uint256"
        }
      ],
      "stateMutability": "view",
      "type": "function"
    },
    {
      "inputs": [
        {
          "internalType": "int256",
          "name": "tp",
          "type": "int256"
        },
        {
          "internalType": "int256",
          "name": "sl",
          "type": "int256"
        },
        {
          "internalType": "uint256",
          "name": "amountIn",
          "type": "uint256"
        },
        {
          "internalType": "address",
          "name": "_tokenIn",
          "type": "address"
        },
        {
          "internalType": "address",
          "name": "_tokenOut",
          "type": "address"
        }
      ],
      "name": "useTPandSL",
      "outputs": [],
      "stateMutability": "nonpayable",
      "type": "function"
    },
    {
      "inputs": [
        {
          "internalType": "address",
          "name": "",
          "type": "address"
        }
      ],
      "name": "userProfile",
      "outputs": [
        {
          "internalType": "string",
          "name": "",
          "type": "string"
        }
      ],
      "stateMutability": "view",
      "type": "function"
    },
    {
      "inputs": [],
      "name": "users",
      "outputs": [
        {
          "internalType": "uint256",
          "name": "",
          "type": "uint256"
        }
      ],
      "stateMutability": "view",
      "type": "function"
    },
    {
      "stateMutability": "payable",
      "type": "receive"
    }
  ],
  "transactionHash": "0x575776c6e26e90e3f1353e9fe04799170709c0bd9acf64a5c15589f7f79ff337",
  "args": [
    "0xE592427A0AEce92De3Edee1F18E0157C05861564",
    "0x326C977E6efc84E512bB9C30f76E30c160eD06FB",
    "0x57A4a13b35d25EE78e084168aBaC5ad360252467",
    "0xf0E6744a59177014738e1eF920dc676fb3b8CB62",
    "0xE16Df59B887e3Caa439E0b29B42bA2e7976FD8b2",
    "0xb3971BCef2D791bc4027BbfedFb47319A4AAaaAa",
    "0x12114765eeA16473363682Cf832F5603BB8f6110"
  ],
  "numDeployments": 2,
  "solcInputHash": "a22a24b284b38b4822c8314c9f363c5d",
  "bytecode": "0x61014060405260006002819055600355600b805463ffffffff1916633659d6661790553480156200002f57600080fd5b5060405162003f1638038062003f168339810160408190526200005291620000b2565b6001600160a01b0396871660805294861660a05292851660e05290841660c052831661012052821661010052600180546001600160a01b031916919092161790556200015d565b6001600160a01b0381168114620000af57600080fd5b50565b600080600080600080600060e0888a031215620000ce57600080fd5b8751620000db8162000099565b6020890151909750620000ee8162000099565b6040890151909650620001018162000099565b6060890151909550620001148162000099565b6080890151909450620001278162000099565b60a08901519093506200013a8162000099565b60c08901519092506200014d8162000099565b8091505092959891949750929550565b60805160a05160c05160e0516101005161012051613cb3620002636000396000818161035f01528181610cb601528181610e6101528181610f2c0152818161121701528181611ba70152611d290152600081816103df01528181611db10152611e250152600081816103ab0152610dac01526000818161045301528181611601015281816116930152818161174301528181612015015281816120a70152818161278601526128180152600081816106a701528181610d7d0152818161171501528181611a9001528181611c2f0152611cce0152600081816107e101528181611af301528181611f760152818161232a0152818161273f01526128f80152613cb36000f3fe60806040526004361061023f5760003560e01c80635e57966d1161012e57806399c73c7d116100ab578063ce891f991161006f578063ce891f9914610803578063d0ca428814610830578063e43372e914610850578063ebd34f5014610872578063f20202751461088757600080fd5b806399c73c7d1461073f578063b5c485151461075f578063c27a69f01461077f578063c310d1b01461079f578063c31c9c07146107cf57600080fd5b80637bbdb96e116100f25780637bbdb96e146106755780637d253aff146106955780637d4f225b146106c9578063847e0b2b146106e957806389a302711461071f57600080fd5b80635e57966d146105b15780635f5bafcc146105d15780635fbf9ba7146105f15780636401c30c146106275780636e04ff0d1461064757600080fd5b806342fdcda5116101bc5780634caf9d0b116101805780634caf9d0b146104ef5780634cb47e841461051c57806359963010146105495780635be6bf001461057b5780635c538df31461059157600080fd5b806342fdcda5146104215780634398604e146104415780634585e33b146104755780634ac17c25146104955780634b36c125146104c257600080fd5b80632160f3f6116102035780632160f3f6146103095780632a6636061461034d5780632b20e39714610399578063382988d4146103cd57806341a7726a1461040157600080fd5b8063089fe6aa1461024b5780630f53a4701461027a578063129552ec146102a7578063170dc660146102c95780631c8e8962146102e957600080fd5b3661024657005b600080fd5b34801561025757600080fd5b50610261610bb881565b60405162ffffff90911681526020015b60405180910390f35b34801561028657600080fd5b5061029a610295366004612cdf565b61089d565b6040516102719190612d54565b3480156102b357600080fd5b506102c76102c2366004612e42565b610949565b005b3480156102d557600080fd5b5061029a6102e4366004612ec1565b610980565b3480156102f557600080fd5b5061029a610304366004612cdf565b610a85565b34801561031557600080fd5b5061033f610324366004612cdf565b6001600160a01b031660009081526009602052604090205490565b604051908152602001610271565b34801561035957600080fd5b506103817f000000000000000000000000000000000000000000000000000000000000000081565b6040516001600160a01b039091168152602001610271565b3480156103a557600080fd5b506103817f000000000000000000000000000000000000000000000000000000000000000081565b3480156103d957600080fd5b506103817f000000000000000000000000000000000000000000000000000000000000000081565b34801561040d57600080fd5b506102c761041c366004612cdf565b610b1f565b34801561042d57600080fd5b506102c761043c366004612f8c565b610c8c565b34801561044d57600080fd5b506103817f000000000000000000000000000000000000000000000000000000000000000081565b34801561048157600080fd5b506102c7610490366004612fcc565b61100e565b3480156104a157600080fd5b5061033f6104b0366004612cdf565b60066020526000908152604090205481565b3480156104ce57600080fd5b5061033f6104dd366004612cdf565b60076020526000908152604090205481565b3480156104fb57600080fd5b5061050f61050a366004612cdf565b6110a7565b604051610271919061303d565b34801561052857600080fd5b5061053c610537366004612cdf565b611196565b604051610271919061309f565b34801561055557600080fd5b506105696105643660046130ec565b61120b565b60405161027196959493929190613109565b34801561058757600080fd5b5061033f60025481565b34801561059d57600080fd5b5061029a6105ac366004613161565b6112c5565b3480156105bd57600080fd5b5061029a6105cc366004612cdf565b6112fd565b3480156105dd57600080fd5b506103816105ec366004613161565b6114e8565b3480156105fd57600080fd5b5061033f61060c366004612cdf565b6001600160a01b031660009081526007602052604090205490565b34801561063357600080fd5b506102c7610642366004612e42565b611520565b34801561065357600080fd5b50610667610662366004612fcc565b611540565b60405161027192919061318d565b34801561068157600080fd5b50600154610381906001600160a01b031681565b3480156106a157600080fd5b506103817f000000000000000000000000000000000000000000000000000000000000000081565b3480156106d557600080fd5b506102c76106e43660046131a8565b6115df565b3480156106f557600080fd5b5061033f610704366004612cdf565b6001600160a01b031660009081526006602052604090205490565b34801561072b57600080fd5b50600054610381906001600160a01b031681565b34801561074b57600080fd5b506102c761075a3660046130ec565b611b8c565b34801561076b57600080fd5b506102c761077a3660046131fe565b611c0f565b34801561078b57600080fd5b506102c761079a366004612cdf565b611d92565b3480156107ab57600080fd5b506107bf6107ba36600461325b565b611e09565b6040519015158152602001610271565b3480156107db57600080fd5b506103817f000000000000000000000000000000000000000000000000000000000000000081565b34801561080f57600080fd5b506102c761081e366004612ec1565b33600090815260096020526040902055565b34801561083c57600080fd5b5061033f61084b366004613308565b611f48565b34801561085c57600080fd5b506108656123fe565b60405161027191906133e0565b34801561087e57600080fd5b5060025461033f565b34801561089357600080fd5b5061033f60035481565b6001600160a01b03811660009081526008602052604090208054606091906108c490613423565b80601f01602080910402602001604051908101604052809291908181526020018280546108f090613423565b801561093d5780601f106109125761010080835404028352916020019161093d565b820191906000526020600020905b81548152906001019060200180831161092057829003601f168201915b50505050509050919050565b3360009081526005602090815260408220805460018101825590835291819020835161097c939190910191840190612c1e565b5050565b6060816109a45750506040805180820190915260018152600360fc1b602082015290565b8160005b81156109ce57806109b881613474565b91506109c79050600a836134a5565b91506109a8565b6000816001600160401b038111156109e8576109e8612d67565b6040519080825280601f01601f191660200182016040528015610a12576020820181803683370190505b5090505b8415610a7d57610a276001836134b9565b9150610a34600a866134d0565b610a3f9060306134e4565b60f81b818381518110610a5457610a546134fc565b60200101906001600160f81b031916908160001a905350610a76600a866134a5565b9450610a16565b949350505050565b60086020526000908152604090208054610a9e90613423565b80601f0160208091040260200160405190810160405280929190818152602001828054610aca90613423565b8015610b175780601f10610aec57610100808354040283529160200191610b17565b820191906000526020600020905b815481529060010190602001808311610afa57829003601f168201915b505050505081565b6001600160a01b0381811660009081526009602052604080822054915490516370a0823160e01b8152336004820152919216906370a0823190602401602060405180830381865afa158015610b78573d6000803e3d6000fd5b505050506040513d601f19601f82011682018060405250810190610b9c9190613512565b1015610bbb5760405163356680b760e01b815260040160405180910390fd5b6001600160a01b038082166000908152600960205260408120549054610be492169030906125a3565b6001600160a01b038082166000908152600960205260408120549054610c0f921690339084906126f0565b6001600160a01b038116600081815260046020908152604080832080546001810182559084528284200180546001600160a01b031916331790558383526009825291829020548251938452908301527f4b90d6788928d63c1821907a6a8b95f40d26562d8fe41b105f7489db9966dfcb910160405180910390a150565b60008282604051602001610ca192919061352b565b604051602081830303815290604052905060007f00000000000000000000000000000000000000000000000000000000000000006001600160a01b0316631865c57d6040518163ffffffff1660e01b8152600401600060405180830381865afa158015610d12573d6000803e3d6000fd5b505050506040513d6000823e601f3d908101601f19168201604052610d3a91908101906135fe565b5050805160405191925063ffffffff1690600090610d6a90309061270f90339088908c9087908690602001613775565b60405160208183030381529060405290507f00000000000000000000000000000000000000000000000000000000000000006001600160a01b0316634000aea07f000000000000000000000000000000000000000000000000000000000000000089600b60009054906101000a900460e01b85604051602001610dee929190613852565b6040516020818303038152906040526040518463ffffffff1660e01b8152600401610e1b93929190613883565b6020604051808303816000875af1158015610e3a573d6000803e3d6000fd5b505050506040513d601f19601f82011682018060405250810190610e5e91906138bf565b507f00000000000000000000000000000000000000000000000000000000000000006001600160a01b0316631865c57d6040518163ffffffff1660e01b8152600401600060405180830381865afa158015610ebd573d6000803e3d6000fd5b505050506040513d6000823e601f3d908101601f19168201604052610ee591908101906135fe565b5050805190935063ffffffff16610efd8360016134e4565b811415610fbf576000610f116001436134b9565b60408051914060208301526bffffffffffffffffffffffff197f000000000000000000000000000000000000000000000000000000000000000060601b16908201526001600160e01b031960e086901b16605482015260580160408051601f19818403018152918152815160209092019190912060c08901819052905190915081907f63410b84334e1011f4c6e94909882bd236426deb3c6a08c13ec54cedad72d43c90600090a250611004565b60405162461bcd60e51b8152602060048201526015602482015274185d5d1bcb585c1c1c9bdd9948191a5cd8589b1959605a1b60448201526064015b60405180910390fd5b5050505050505050565b60008061101d838501856138e1565b9150915060008160600151826101000151131580611043575081606001518260e0015112155b9050808015611067575060008260a0015160018111156110655761106561334a565b145b1561109757602082015160005461108a919085906001600160a01b03163361272e565b50600160a08301526110a0565b6110a082611b8c565b5050505050565b6001600160a01b0381166000908152600560209081526040808320805482518185028101850190935280835260609492939192909184015b8282101561118b5783829060005260206000200180546110fe90613423565b80601f016020809104026020016040519081016040528092919081815260200182805461112a90613423565b80156111775780601f1061114c57610100808354040283529160200191611177565b820191906000526020600020905b81548152906001019060200180831161115a57829003601f168201915b5050505050815260200190600101906110df565b505050509050919050565b6001600160a01b03811660009081526004602090815260409182902080548351818402810184019094528084526060939283018282801561093d57602002820191906000526020600020905b81546001600160a01b031681526001909101906020018083116111e25750505050509050919050565b600080606060008060007f00000000000000000000000000000000000000000000000000000000000000006001600160a01b031663c7c3a19a8860c001516040518263ffffffff1660e01b815260040161126791815260200190565b600060405180830381865afa158015611284573d6000803e3d6000fd5b505050506040513d6000823e601f3d908101601f191682016040526112ac9190810190613926565b969e959d50939b50919950909750929550909350505050565b600560205281600052604060002081815481106112e157600080fd5b90600052602060002001600091509150508054610a9e90613423565b604080518082018252601081526f181899199a1a9b1b9c1cb0b131b232b360811b60208201528151602a80825260608281019094526001600160a01b0385169291600091602082018180368337019050509050600360fc1b81600081518110611368576113686134fc565b60200101906001600160f81b031916908160001a905350600f60fb1b81600181518110611397576113976134fc565b60200101906001600160f81b031916908160001a90535060005b60148110156114df57826004856113c984600c6134e4565b602081106113d9576113d96134fc565b1a60f81b6001600160f81b031916901c60f81c60ff16815181106113ff576113ff6134fc565b01602001516001600160f81b0319168261141a836002613a14565b6114259060026134e4565b81518110611435576114356134fc565b60200101906001600160f81b031916908160001a905350828461145983600c6134e4565b60208110611469576114696134fc565b825191901a600f16908110611480576114806134fc565b01602001516001600160f81b0319168261149b836002613a14565b6114a69060036134e4565b815181106114b6576114b66134fc565b60200101906001600160f81b031916908160001a905350806114d781613474565b9150506113b1565b50949350505050565b6004602052816000526040600020818154811061150457600080fd5b6000918252602090912001546001600160a01b03169150829050565b336000908152600860209081526040909120825161097c92840190612c1e565b6000606081611551848601866138e1565b91505060008160600151826101000151131580611576575081606001518260e0015112155b905080801561159a575060008260a0015160018111156115985761159861334a565b145b935085858080601f0160208091040260200160405190810160405280939291908181526020018383808284376000920191909152509699929850919650505050505050565b60405163b3596f0760e01b81526001600160a01b0382811660048301526000917f00000000000000000000000000000000000000000000000000000000000000009091169063b3596f0790602401602060405180830381865afa15801561164a573d6000803e3d6000fd5b505050506040513d601f19601f8201168201806040525081019061166e9190613512565b60405163b3596f0760e01b81526001600160a01b0385811660048301529192506000917f0000000000000000000000000000000000000000000000000000000000000000169063b3596f0790602401602060405180830381865afa1580156116da573d6000803e3d6000fd5b505050506040513d601f19601f820116820180604052508101906116fe9190613512565b60405163b3596f0760e01b81526001600160a01b037f0000000000000000000000000000000000000000000000000000000000000000811660048301529192506000917f0000000000000000000000000000000000000000000000000000000000000000169063b3596f0790602401602060405180830381865afa15801561178a573d6000803e3d6000fd5b505050506040513d601f19601f820116820180604052508101906117ae9190613512565b90506000600a6117be8484613a33565b6117c9906005613a61565b6117d39190613a33565b905060006117e182896134e4565b9050848a1215611804576040516359570a0160e11b815260040160405180910390fd5b84891315611825576040516359570a0160e11b815260040160405180910390fd5b6040516370a0823160e01b815233600482015281906001600160a01b038916906370a0823190602401602060405180830381865afa15801561186b573d6000803e3d6000fd5b505050506040513d601f19601f8201168201806040525081019061188f9190613512565b10156118ae5760405163356680b760e01b815260040160405180910390fd5b6000600a600060025460016118c391906134e4565b8152602080820192909252604090810160002081516101208101835281546001600160a01b03908116825260018084015490911694820194909452600282015492810192909252600381015460608301526004810154608083015260058101549192909160a084019160ff909116908111156119415761194161334a565b60018111156119525761195261334a565b8152600682015460208083019190915260078301546040808401919091526008909301546060928301523384526001600160a01b038b169084015242918301919091528101879052608081018a90529050600060a082018190525060e081018a905261010081018b905233600090815260046020908152604080832080548251818502810185019093528083529192909190830182828015611a1d57602002820191906000526020600020905b81546001600160a01b031681526001909101906020018083116119ff575b50505050509050600081511115611a3a57611a388183611e09565b505b611a4f6001600160a01b038a163330866126f0565b6000611a5d8a8c8b3061272e565b9050600085611a6c888a613a33565b611a769190613a61565b60408051610100810182526001600160a01b03808f1682527f000000000000000000000000000000000000000000000000000000000000000081166020830152610bb88284015230606083015242608083015260a082018a905260c08201849052600060e08301819052925163414bf38960e01b815293945090927f00000000000000000000000000000000000000000000000000000000000000009091169063414bf38990611b2a908590600401613ae6565b6020604051808303816000875af1158015611b49573d6000803e3d6000fd5b505050506040513d601f19601f82011682018060405250810190611b6d9190613512565b9050611b7a818588610c8c565b50505050505050505050505050505050565b60c0810151604051636402401160e11b8152600481018290527f00000000000000000000000000000000000000000000000000000000000000006001600160a01b03169063c804802290602401600060405180830381600087803b158015611bf357600080fd5b505af1158015611c07573d6000803e3d6000fd5b505050505050565b6040516370a0823160e01b81523360048201526001600160601b038216907f00000000000000000000000000000000000000000000000000000000000000006001600160a01b0316906370a0823190602401602060405180830381865afa158015611c7e573d6000803e3d6000fd5b505050506040513d601f19601f82011682018060405250810190611ca29190613512565b1015611cc15760405163356680b760e01b815260040160405180910390fd5b611cff6001600160a01b037f00000000000000000000000000000000000000000000000000000000000000001633306001600160601b0385166126f0565b60c082015160405163948108f760e01b8152600481018290526001600160601b03831660248201527f00000000000000000000000000000000000000000000000000000000000000006001600160a01b03169063948108f790604401600060405180830381600087803b158015611d7557600080fd5b505af1158015611d89573d6000803e3d6000fd5b50505050505050565b60405163e71bdf4160e01b81526001600160a01b0382811660048301527f0000000000000000000000000000000000000000000000000000000000000000169063e71bdf4190602401600060405180830381600087803b158015611df557600080fd5b505af11580156110a0573d6000803e3d6000fd5b6000805b8351811015611f3e5760015484516001600160a01b037f000000000000000000000000000000000000000000000000000000000000000081169263ba3d69d792911690879085908110611e6257611e626134fc565b6020026020010151611e778760400151610980565b8751611e82906112fd565b611e8f89602001516112fd565b611e9c8a60600151610980565b611ea98b60e00151610980565b611eb78c6101000151610980565b604051602001611ecc96959493929190613b4f565b6040516020818303038152906040526040518463ffffffff1660e01b8152600401611ef993929190613c35565b600060405180830381600087803b158015611f1357600080fd5b505af1158015611f27573d6000803e3d6000fd5b505050508080611f3690613474565b915050611e0d565b5060019392505050565b6000611f5f6001600160a01b0385163330866126f0565b60405163095ea7b360e01b81526001600160a01b037f0000000000000000000000000000000000000000000000000000000000000000811660048301526024820185905285169063095ea7b3906044016020604051808303816000875af1158015611fce573d6000803e3d6000fd5b505050506040513d601f19601f82011682018060405250810190611ff291906138bf565b5060405163b3596f0760e01b81526001600160a01b0383811660048301526000917f00000000000000000000000000000000000000000000000000000000000000009091169063b3596f0790602401602060405180830381865afa15801561205e573d6000803e3d6000fd5b505050506040513d601f19601f820116820180604052508101906120829190613512565b60405163b3596f0760e01b81526001600160a01b0387811660048301529192506000917f0000000000000000000000000000000000000000000000000000000000000000169063b3596f0790602401602060405180830381865afa1580156120ee573d6000803e3d6000fd5b505050506040513d601f19601f820116820180604052508101906121129190613512565b905060008561212184846134a5565b61212b9190613a14565b90506000806000600a6000600254600161214591906134e4565b8152602081019190915260400160009081208054336001600160a01b0319918216178255600180830180549092166001600160a01b038d1617909155426002830155600482018c9055600382018990556005820180549294509160ff19169083021790555060078101839055600881018290553360009081526004602090815260408083208054825181850281018501909352808352919290919083018282801561221957602002820191906000526020600020905b81546001600160a01b031681526001909101906020018083116121fb575b505050505090506000815111156122d257604080516101208101825283546001600160a01b0390811682526001808601549091166020830152600285015492820192909252600384015460608201526004840154608082015260058401546122d092849291869160a084019160ff16908111156122985761229861334a565b60018111156122a9576122a961334a565b81526020016006820154815260200160078201548152602001600882015481525050611e09565b505b60408051610100810182526001600160a01b03808e1682528b81166020830152610bb88284015233606083015242608083015260a082018d905260c08201889052600060e0830152915163414bf38960e01b815290917f0000000000000000000000000000000000000000000000000000000000000000169063414bf3899061235f908490600401613ae6565b6020604051808303816000875af115801561237e573d6000803e3d6000fd5b505050506040513d601f19601f820116820180604052508101906123a29190613512565b60058401805460ff191660019081179091553360009081526007602052604081208054939c5091926123d59084906134e4565b9091555050600280549060006123ea83613474565b919050555050505050505050509392505050565b6002546060906000816001600160401b0381111561241e5761241e612d67565b60405190808252806020026020018201604052801561249e57816020015b61248b604080516101208101825260008082526020820181905291810182905260608101829052608081018290529060a082019081526020016000815260200160008152602001600081525090565b81526020019060019003908161243c5790505b50905060005b8281101561259c57600a60006124bb8360016134e4565b8152602080820192909252604090810160002081516101208101835281546001600160a01b03908116825260018084015490911694820194909452600282015492810192909252600381015460608301526004810154608083015260058101549192909160a084019160ff909116908111156125395761253961334a565b600181111561254a5761254a61334a565b8152602001600682015481526020016007820154815260200160088201548152505082828151811061257e5761257e6134fc565b6020026020010181905250808061259490613474565b9150506124a4565b5092915050565b80158061261d5750604051636eb1769f60e11b81523060048201526001600160a01b03838116602483015284169063dd62ed3e90604401602060405180830381865afa1580156125f7573d6000803e3d6000fd5b505050506040513d601f19601f8201168201806040525081019061261b9190613512565b155b6126885760405162461bcd60e51b815260206004820152603660248201527f5361666545524332303a20617070726f76652066726f6d206e6f6e2d7a65726f60448201527520746f206e6f6e2d7a65726f20616c6c6f77616e636560501b6064820152608401610ffb565b6040516001600160a01b0383166024820152604481018290526126eb90849063095ea7b360e01b906064015b60408051601f198184030181529190526020810180516001600160e01b03166001600160e01b0319909316929092179091526129bd565b505050565b6040516001600160a01b03808516602483015283166044820152606481018290526127289085906323b872dd60e01b906084016126b4565b50505050565b60006127646001600160a01b0386167f0000000000000000000000000000000000000000000000000000000000000000866125a3565b60405163b3596f0760e01b81526001600160a01b0384811660048301526000917f00000000000000000000000000000000000000000000000000000000000000009091169063b3596f0790602401602060405180830381865afa1580156127cf573d6000803e3d6000fd5b505050506040513d601f19601f820116820180604052508101906127f39190613512565b60405163b3596f0760e01b81526001600160a01b0388811660048301529192506000917f0000000000000000000000000000000000000000000000000000000000000000169063b3596f0790602401602060405180830381865afa15801561285f573d6000803e3d6000fd5b505050506040513d601f19601f820116820180604052508101906128839190613512565b905060008661289284846134a5565b61289c9190613a14565b60408051610100810182526001600160a01b03808c1682528981166020830152610bb882840152888116606083015242608083015260a082018b905260c08201849052600060e0830152915163414bf38960e01b8152929350917f00000000000000000000000000000000000000000000000000000000000000009091169063414bf3899061292f908490600401613ae6565b6020604051808303816000875af115801561294e573d6000803e3d6000fd5b505050506040513d601f19601f820116820180604052508101906129729190613512565b33600090815260076020526040812080549297506001929091906129979084906134e4565b9091555050600280549060006129ac83613474565b919050555050505050949350505050565b6000612a12826040518060400160405280602081526020017f5361666545524332303a206c6f772d6c6576656c2063616c6c206661696c6564815250856001600160a01b0316612a8f9092919063ffffffff16565b8051909150156126eb5780806020019051810190612a3091906138bf565b6126eb5760405162461bcd60e51b815260206004820152602a60248201527f5361666545524332303a204552433230206f7065726174696f6e20646964206e6044820152691bdd081cdd58d8d9595960b21b6064820152608401610ffb565b6060612a9e8484600085612aa8565b90505b9392505050565b606082471015612b095760405162461bcd60e51b815260206004820152602660248201527f416464726573733a20696e73756666696369656e742062616c616e636520666f6044820152651c8818d85b1b60d21b6064820152608401610ffb565b600080866001600160a01b03168587604051612b259190613c61565b60006040518083038185875af1925050503d8060008114612b62576040519150601f19603f3d011682016040523d82523d6000602084013e612b67565b606091505b5091509150612b7887838387612b83565b979650505050505050565b60608315612bef578251612be8576001600160a01b0385163b612be85760405162461bcd60e51b815260206004820152601d60248201527f416464726573733a2063616c6c20746f206e6f6e2d636f6e74726163740000006044820152606401610ffb565b5081610a7d565b610a7d8383815115612c045781518083602001fd5b8060405162461bcd60e51b8152600401610ffb9190612d54565b828054612c2a90613423565b90600052602060002090601f016020900481019282612c4c5760008555612c92565b82601f10612c6557805160ff1916838001178555612c92565b82800160010185558215612c92579182015b82811115612c92578251825591602001919060010190612c77565b50612c9e929150612ca2565b5090565b5b80821115612c9e5760008155600101612ca3565b6001600160a01b0381168114612ccc57600080fd5b50565b8035612cda81612cb7565b919050565b600060208284031215612cf157600080fd5b8135612aa181612cb7565b60005b83811015612d17578181015183820152602001612cff565b838111156127285750506000910152565b60008151808452612d40816020860160208601612cfc565b601f01601f19169290920160200192915050565b602081526000612aa16020830184612d28565b634e487b7160e01b600052604160045260246000fd5b60405161012081016001600160401b0381118282101715612da057612da0612d67565b60405290565b604051608081016001600160401b0381118282101715612da057612da0612d67565b60405161018081016001600160401b0381118282101715612da057612da0612d67565b604051601f8201601f191681016001600160401b0381118282101715612e1357612e13612d67565b604052919050565b60006001600160401b03821115612e3457612e34612d67565b50601f01601f191660200190565b600060208284031215612e5457600080fd5b81356001600160401b03811115612e6a57600080fd5b8201601f81018413612e7b57600080fd5b8035612e8e612e8982612e1b565b612deb565b818152856020838501011115612ea357600080fd5b81602084016020830137600091810160200191909152949350505050565b600060208284031215612ed357600080fd5b5035919050565b6001600160601b0381168114612ccc57600080fd5b803560028110612cda57600080fd5b60006101208284031215612f1157600080fd5b612f19612d7d565b9050612f2482612ccf565b8152612f3260208301612ccf565b6020820152604082013560408201526060820135606082015260808201356080820152612f6160a08301612eef565b60a082015260c082013560c082015260e082013560e082015261010080830135818301525092915050565b60008060006101608486031215612fa257600080fd5b8335612fad81612eda565b925060208401359150612fc38560408601612efe565b90509250925092565b60008060208385031215612fdf57600080fd5b82356001600160401b0380821115612ff657600080fd5b818501915085601f83011261300a57600080fd5b81358181111561301957600080fd5b86602082850101111561302b57600080fd5b60209290920196919550909350505050565b6000602080830181845280855180835260408601915060408160051b870101925083870160005b8281101561309257603f19888603018452613080858351612d28565b94509285019290850190600101613064565b5092979650505050505050565b6020808252825182820181905260009190848201906040850190845b818110156130e05783516001600160a01b0316835292840192918401916001016130bb565b50909695505050505050565b600061012082840312156130ff57600080fd5b612aa18383612efe565b600060018060a01b03808916835263ffffffff8816602084015260c0604084015261313760c0840188612d28565b6001600160601b0396871660608501529416608083015250921660a0909201919091529392505050565b6000806040838503121561317457600080fd5b823561317f81612cb7565b946020939093013593505050565b8215158152604060208201526000612a9e6040830184612d28565b600080600080600060a086880312156131c057600080fd5b85359450602086013593506040860135925060608601356131e081612cb7565b915060808601356131f081612cb7565b809150509295509295909350565b600080610140838503121561321257600080fd5b61321c8484612efe565b915061012083013561322d81612eda565b809150509250929050565b60006001600160401b0382111561325157613251612d67565b5060051b60200190565b600080610140838503121561326f57600080fd5b82356001600160401b0381111561328557600080fd5b8301601f8101851361329657600080fd5b803560206132a6612e8983613238565b82815260059290921b830181019181810190888411156132c557600080fd5b938201935b838510156132ec5784356132dd81612cb7565b825293820193908201906132ca565b95506132fc905087878301612efe565b93505050509250929050565b60008060006060848603121561331d57600080fd5b833561332881612cb7565b925060208401359150604084013561333f81612cb7565b809150509250925092565b634e487b7160e01b600052602160045260246000fd5b60018060a01b038082511683528060208301511660208401525060408101516040830152606081015160608301526080810151608083015260a0810151600281106133bb57634e487b7160e01b600052602160045260246000fd5b60a083015260c0818101519083015260e0808201519083015261010090810151910152565b6020808252825182820181905260009190848201906040850190845b818110156130e05761340f838551613360565b9284019261012092909201916001016133fc565b600181811c9082168061343757607f821691505b6020821081141561345857634e487b7160e01b600052602260045260246000fd5b50919050565b634e487b7160e01b600052601160045260246000fd5b60006000198214156134885761348861345e565b5060010190565b634e487b7160e01b600052601260045260246000fd5b6000826134b4576134b461348f565b500490565b6000828210156134cb576134cb61345e565b500390565b6000826134df576134df61348f565b500690565b600082198211156134f7576134f761345e565b500190565b634e487b7160e01b600052603260045260246000fd5b60006020828403121561352457600080fd5b5051919050565b8281526101408101612aa16020830184613360565b805163ffffffff81168114612cda57600080fd5b8051612cda81612eda565b805162ffffff81168114612cda57600080fd5b805161ffff81168114612cda57600080fd5b8051612cda81612cb7565b600082601f8301126135a057600080fd5b815160206135b0612e8983613238565b82815260059290921b840181019181810190868411156135cf57600080fd5b8286015b848110156135f35780516135e681612cb7565b83529183019183016135d3565b509695505050505050565b600080600083850361022081121561361557600080fd5b608081121561362357600080fd5b61362b612da6565b61363486613540565b8152602086015161364481612eda565b602082015260408681015190820152606080870151908201529350610180607f19820181131561367357600080fd5b61367b612dc8565b915061368960808701613540565b825261369760a08701613540565b60208301526136a860c0870161355f565b60408301526136b960e08701613540565b60608301526101006136cc81880161355f565b60808401526101206136df818901613572565b60a08501526101406136f2818a01613554565b60c0860152610160613705818b01613540565b60e0870152848a0151848701526101a08a0151838701526137296101c08b01613584565b8287015261373a6101e08b01613584565b90860152505050506102008501519092506001600160401b0381111561375f57600080fd5b61376b8682870161358f565b9150509250925092565b6101208082526013908201527254726164654775696465204175746f6d61746560681b6101408201526101606020820181905260029082015261060f60f31b6101808201526001600160a01b038816604082015261ffff8716606082015260006101a06001600160a01b03881660808401528060a08401526137f981840188612d28565b91505061381160c08301866001600160601b03169052565b60ff841660e08301526001600160a01b03831661010083015298975050505050505050565b60008151613848818560208601612cfc565b9290920192915050565b6001600160e01b0319831681528151600090613875816004850160208701612cfc565b919091016004019392505050565b6001600160a01b03841681526001600160601b03831660208201526060604082018190526000906138b690830184612d28565b95945050505050565b6000602082840312156138d157600080fd5b81518015158114612aa157600080fd5b60008061014083850312156138f557600080fd5b823591506139068460208501612efe565b90509250929050565b80516001600160401b0381168114612cda57600080fd5b600080600080600080600080610100898b03121561394357600080fd5b885161394e81612cb7565b975061395c60208a01613540565b965060408901516001600160401b0381111561397757600080fd5b8901601f81018b1361398857600080fd5b8051613996612e8982612e1b565b8181528c60208385010111156139ab57600080fd5b6139bc826020830160208601612cfc565b97506139cd91505060608a01613554565b94506139db60808a01613584565b93506139e960a08a01613584565b92506139f760c08a0161390f565b9150613a0560e08a01613554565b90509295985092959890939650565b6000816000190483118215151615613a2e57613a2e61345e565b500290565b600082613a4257613a4261348f565b600160ff1b821460001984141615613a5c57613a5c61345e565b500590565b60006001600160ff1b0381841382841380821686840486111615613a8757613a8761345e565b600160ff1b6000871282811687830589121615613aa657613aa661345e565b60008712925087820587128484161615613ac257613ac261345e565b87850587128184161615613ad857613ad861345e565b505050929093029392505050565b81516001600160a01b03908116825260208084015182169083015260408084015162ffffff16908301526060808401518216908301526080808401519083015260a0838101519083015260c0808401519083015260e09283015116918101919091526101000190565b600360fc1b81526000602b60f81b806001840152603360f81b6002840152806003840152506914ddd85c08105b195c9d60b21b60048301528751613b9a81600e850160208c01612cfc565b601d60f91b600e918401918201528751613bbb81600f840160208c01612cfc565b65189bdd59da1d60d21b600f92909101918201528651613be2816015840160208b01612cfc565b613c27613c21613c1b613c0b613c0560158688010161185d60f21b815260020190565b8b613836565b630eed2e8d60e31b815260040190565b88613836565b86613836565b9a9950505050505050505050565b6001600160a01b038481168252831660208201526060604082018190526000906138b690830184612d28565b60008251613c73818460208701612cfc565b919091019291505056fea2646970667358221220bf353400c0a6b02debe076e15c71b5f5ee415aeef4380be06f39dbe67ad0e70b64736f6c634300080a0033"
}